:100000000C945D060C947A060C947A060C947A068D
:100010000C947A060C947A060C947A060C947A0660
:100020000C947A060C947A060C9490300C946431FB
:100030000C94A72A0C947A060C947A060C947A06EF
:100040000C947A060C947A060C947A060C947A0630
:100050000C947A060C944A2B0C947A060C947A062B
:100060000C947A060C947A060C947A060C947A0610
:100070000C947A060C947A060C947A060C947A0600
:100080000C947A060C947A060C947A060C947A06F0
:100090000C947A060C947A060C947A060C947A06E0
:1000A0000C947A060C947A060C947A066F74686540
:1000B0007200464E0A004D656469610A004C617920
:1000C00065723A20000000000000000000000000FF
:1000D0000000000000000000000000000000000020
:1000E0008080C0C0C0E0E0E0C0C0C0C0C0800000F0
:1000F0000000000000000000000000000000000000
:1001000000000000000000000000000000000000EF
:1001100000000000000000000000000000000000DF
:1001200000000000000000000000000000000000CF
:1001300000000000000000000000000000000000BF
:10014000000000000000000000000000000000802F
:100150008080800000000000000000E0F8FCFEFF4E
:100160003F1FCFCFE7E7F3F3E7C787033379FC7E81
:100170007EBE98C0808000000000000000000000EB
:10018000000000000000000000000000000000006F
:10019000000000000000000000000000000000005F
:1001A000000000000000000000000000000000004F
:1001B000000000000000000000000000000000003F
:1001C0000000000000000000000000387CFEFFFF7F
:1001D000FFFFFFFFFFFFFFFFFFFFFFFFFFFFFFC06E
:1001E000001F3F7FFFFFFFFFFF7F3F1F0000001E3C
:1001F0001F1F1F0F0F0F0F0E0E0E0E0E0E0E0E0EE8
:100200000E0E0E0E0E0E0E0E0E0E0E0C0C0C0C0C18
:100210000C1C1C1C1C1C1C1C1C1C1C1C1C1C1C1832
:1002200018181818181818181818181838383838CE
:10023000383838383838383830303030300000000E
:1002400000000000000000000000000000000101AC
:100250000307070707070707070303030303030150
:10026000000000000000000000000000000000008E
:10027000000000000000000000000000000000007E
:10028000000000000000000000000000000000006E
:10029000000000000000000000000000000000005E
:1002A000000000000000000000000000000000004E
:1002B000000000000000000000000000000000003E
:1002C0000000000000AC00AB0001502800A800A90D
:1002D00000AA00010001000100010001000100016D
:1002E000000004643214643214783C1E1E140A05A3
:1002F0002223252628292A2C2D2F30323335363833
:100300003A3B3D3E4042434547494A4C4E5051538B
:100310005557595A5C5E6062646668696B6D6F71AF
:10032000737577797B7D7F81838587898A8C8E90B1
:10033000929496989A9C9E9FA1A3A5A7A8AAACAEBA
:10034000AFB1B3B4B6B8B9BBBCBEBFC1C2C3C5C6FA
:10035000C7C9CACBCCCDCED0D1D2D2D3D4D5D6D7A3
:10036000D7D8D9D9DADADBDBDBDCDCDCDCDCDDDDE1
:10037000DDDDDCDCDCDCDCDBDBDBDADAD9D9D8D7D1
:10038000D7D6D5D4D3D2D2D1D0CECDCCCBCAC9C773
:10039000C6C5C3C2C1BFBEBCBBB9B8B6B4B3B1AFAA
:1003A000AEACAAA8A7A5A3A19F9E9C9A989694924A
:1003B000908E8C8A89878583817F7D7B7977757321
:1003C000716F6D6B6968666462605E5C5A595755FF
:1003D0005351504E4C4A4947454342403E3D3B3ABB
:1003E0003836353332302F2D2C2A29282625232242
:1003F000FFAA7F5540000101010101010101010235
:1004000002020202020202020303030303030303C4
:10041000040404040404040505050505060606068F
:1004200006070707070708080808090909090A0A4B
:100430000A0B0B0B0C0C0C0D0D0D0E0E0E0F0F0FEF
:10044000101011111112121313141415151616177A
:1004500017181819191A1A1B1B1C1D1D1E1E1F20E8
:1004600020212222232424252626272829292A2B35
:100470002C2D2D2E2F30313232333435363738395A
:100480003A3B3C3D3E3F4041424344454647484954
:100490004A4C4D4E4F50515354555658595A5B5D26
:1004A0005E5F616264656668696B6C6D6F707273C4
:1004B0007577787A7B7D7E8082838587888A8C8E2B
:1004C0008F91939596989A9C9EA0A2A3A5A7A9AB5D
:1004D000ADAFB1B3B5B7BABCBEC0C2C4C6C9CBCD4F
:1004E000CFD1D4D6D8DBDDDFE2E4E7E9EBEEF0F301
:1004F000F5F8FAFDFF00AE00AF00DA0281FFD9F196
:10050000DB20A4A62EAF00A0C000A1C800AED580FD
:10051000A81FD300408D14200007087F0807003E65
:100520005B4F5B3E003E6B4F6B3E001C3E7C3E1CB7
:1005300000183C7E3C18001C577D571C001C5E7F39
:100540005E1C0000183C180000FFE7C3E7FF000036
:100550001824180000FFE7DBE7FF0030483A060EDA
:1005600000262979292600407F05050700407F05E0
:10057000253F005A3CE73C5A007F3E1C1C080008FF
:100580001C1C3E7F0014227F2214005F5F005F5F0F
:100590000006097F017F00006689956A006060603F
:1005A00060600094A2FFA2940008047E040800107A
:1005B000207E20100008082A1C0800081C2A0808B1
:1005C000001E10101010000C1E0C1E0C0030383EC7
:1005D000383000060E3E0E0600000000000000004D
:1005E000005F000000000700070000147F147F1464
:1005F00000242A7F2A120023130864620036495619
:10060000205000000807030000001C2241000000E9
:1006100041221C00002A1C7F1C2A0008083E0808F2
:100620000000807030000008080808080000006022
:100630006000002010080402003E5149453E0000C1
:10064000427F4000007249494946002141494D33EB
:10065000001814127F10002745454539003C4A49CF
:100660004931004121110907003649494936004600
:100670004949291E00000014000000004034000019
:100680000000081422410014141414140000412224
:100690001408000201590906003E415D594E007CD4
:1006A0001211127C007F49494936003E41414122E6
:1006B000007F4141413E007F49494941007F09098E
:1006C0000901003E41415173007F0808087F000086
:1006D000417F4100002040413F01007F081422413A
:1006E000007F40404040007F021C027F007F0408E2
:1006F000107F003E4141413E007F09090906003E4E
:100700004151215E007F0919294600264949493295
:100710000003017F0103003F4040403F001F204095
:10072000201F003F4038403F00631408146300035B
:1007300004780403006159494D4300007F41414161
:1007400000020408102000004141417F0004020122
:100750000204004040404040000003070800002021
:1007600054547840007F2844443800384444442896
:1007700000384444287F0038545454180000087E40
:1007800009020018A4A49C78007F080404780000E3
:10079000447D4000002040403D00007F1028440080
:1007A0000000417F4000007C04780478007C08044D
:1007B000047800384444443800FC182424180018F5
:1007C000242418FC007C08040408004854545424D1
:1007D0000004043F4424003C4040207C001C204096
:1007E000201C003C4030403C004428102844004C71
:1007F0009090907C004464544C44000008364100C2
:1008000000000077000000004136080000020102ED
:100810000402003C2623263C0000000000000040AB
:100820004040F0F8F8FF38FFF8F83FF8F8FF38FFDD
:10083000F8F8F040404000000000000080C0C0C058
:10084000800000C0C08000000080C0C000C0C000A8
:100850000080C0C00000000000C0C0C0C0C000C018
:10086000C0000000000000000000000000000000C8
:100870000000000000000000000000000000000078
:100880000000000000000000000000000000000068
:100890000000000000000000C0F0F8FC3E1E060151
:1008A0000000007F4141417F007F4141417F0000C6
:1008B00080C0E07E5B4F5BFEC00000C000DCD7DE86
:1008C000DEDED7DC00C000000000000000000000F9
:1008D00000000000000000000000000000000049CF
:1008E0004949FFFFFFFFE0DFBFBF00BFBFDFE0FF01
:1008F000FFFFFF49494900000000001F3F6060E022
:10090000BF1F007F7F071E381E077F7F007F7F0E7F
:100910001F3B716000000000007F7F0C0C0C007E0C
:100920007E007F7E0303007F7E03037E7E03037FC2
:100930007E000F3E703C063C703E0F00327B494902
:100940003F7E007F7E0303001E3F69696F26000023
:100950000000000000000000030F1F3F3C787060A3
:100960000000007F4141417F007F4141417F0030D5
:100970007B7F7830202030787F3B0003000F7F0F93
:100980000F0F7F0F000300000000000000000000B8
:100990000000000000000000000000000000000156
:1009A0000101070F0F7F0F7F0F0F7E0F0F7F0F7F4C
:1009B0000F0F07010101000000000000000000000F
:1009C0000101000000000000000000000000000025
:1009D0000000000000000000000000000000000017
:1009E0000000000000000000000000000000000007
:1009F00000000000000000000000000000000000F7
:100A000000000000000000000000000000000000E6
:100A100000000000000000000000000000000000D6
:100A200000000000000000000000000000000000C6
:100A300000000000000000000000000000000000B6
:100A400000000000000000000000000000000000A6
:100A50000000000000000000000000000000000096
:100A6000002A2B2800000000000000000000000009
:100A70000000000029000000002C1E342021222448
:100A8000342627252E362D3738271E1F20212223D6
:100A90002425263333362E37381F04050607080968
:100AA0000A0B0C0D0E0F101112131415161718192E
:100AB0001A1B1C1D2F3130232D350405060708098C
:100AC0000A0B0C0D0E0F101112131415161718190E
:100AD0001A1B1C1D2F3130354C0000000000000097
:100AE0000000000000000000000000000000000006
:100AF000000000000000000000000000007E0F0069
:100B0000D4FFFFFFC700000078180363007200697C
:100B1000006D0073006F006E0020007000610064C3
:100B20000000000C03740069006D0061006C00009F
:100B3000000403090409025B00030100A0FA090490
:100B40000000010301010009211101000122400000
:100B500007058103080001090401000203000000E9
:100B60000921110100012222000705820320000152
:100B7000070503032000010904020001030000002F
:100B800009211101000122B600070584032000019C
:100B90001201000200000008EDFE62600100010287
:100BA00000010660FF0961A1010962150026FF002E
:100BB0009520750881020963150026FF00952075B0
:100BC000089102C005010902A10185020901A100E5
:100BD00005091901290815002501950875018102EB
:100BE0000501093009311581257F950275088106B7
:100BF00009381581257F950175088106050C0A388D
:100C0000021581257F950175088106C0C00501097F
:100C100080A101850319012AB700150126B70095A7
:100C20000175108100C0050C0901A101850419019D
:100C30002AA002150126A002950175108100C005A9
:100C4000010906A1018506050719E029E715002518
:100C5000019508750181020507190029EF15002586
:100C60000195F075018102050819012905950575A1
:100C7000019102950175039101C005010906A101C9
:100C8000050719E029E7150025019508750181027E
:100C90009501750881010507190029FF150026FF38
:100CA0000095067508810005081901290595057547
:100CB000019102950175039101C011241FBECFEF70
:100CC000DAE0DEBFCDBF11E0A0E0B1E0E6E2F9E698
:100CD00002C005900D92A03DB107D9F725E0A0ED27
:100CE000B1E001C01D92AB34B207E1F70E94481594
:100CF0000C9468340C94000060E08DEB90E00E944E
:100D0000E5208091DB010E94B207882341F0813009
:100D100099F060E08CEA90E00E94F72005C060E066
:100D200086EB90E00E94E52060E072E085EC90E0C8
:100D30000E94FD2080E0089560E082EB90E0F2CF19
:100D400081FF03C0249A2C9808952498FCCF82E058
:100D5000089581E0089581E008950E94AB0608950A
:100D600008950E94B0060895A5E0B0E0EAEBF6E031
:100D70000C94BD3349835A833091D70189819A817C
:100D8000311119C0662399F0222389F00E94BA0C10
:100D9000182F682F89819A810E949F0C69817A811E
:100DA000812F0E9499252596E3E00C94D9330E9467
:100DB000AC0C182FF3CF0E94BA0C69817A81F1CF65
:100DC000FC01262F408151816281738184810E94C0
:100DD000B406089581E00895CF93DF93EC0160E0BD
:100DE0000E94E006BE010E94B106DF91CF910895F6
:100DF000E1E0F0E0DF0102C0AA0FBB1F6A95E2F755
:100E0000BD01DF0102C0AA0FBB1F4A95E2F76A2BA2
:100E100001C0EE0F2A95EAF7962F9823961302C089
:100E20008E2B0895E0958E230895242F462F682F4A
:100E30008091DB010E94F8060E94FF0B08950E943A
:100E40004E1408950E945214089508950E94910B23
:100E50000E9425072FEF84E39CE0215080409040C2
:100E6000E1F700C0000008950E9426070E946E2B43
:100E700008950E9426070E947F2B08950F931F93C9
:100E8000CF93DF938C0161E00E94E006EC01F80152
:100E90008281882319F0CE010E945B27B801CE0120
:100EA0000E94291E811106C080E0DF91CF911F9121
:100EB0000F910895B801CE010E94AD068823A1F3D9
:100EC000B801CE010E94DF26882371F3B801CE015C
:100ED0000E94A122882341F3B801CE010E9451262D
:100EE000882311F3B801CE010E94DE1C8823E1F2B1
:100EF000F8018281882361F0CA35FDE5DF0701F141
:100F000058F4C115ECE5DE0791F0CE3DDC4591F0DB
:100F1000C8010E94A906C9CFCC358DE5D80769F074
:100F200090F0C73ADD45A1F70E943907BDCF0E9476
:100F30003407BACF0E947311F7CF0E94AD10E8CFEB
:100F40000E94B710E5CF0E94BB10E2CF0E94892A11
:100F50000E94D5070E94592208950E94D9070E9435
:100F60008E2A0895982F92959F7011F0892F94E002
:100F7000282F2695269511F09E5F822F869509F0E1
:100F80009F5F892F08950E94A006089581E008952B
:100F90000E94C60708950895CF93C82F0E94C307E3
:100FA0008C2F0E94C807CF91089580E00E94CC0743
:100FB00008950E943A290E94CC070895CF930E9479
:100FC0003A29C82F8091D2018C1779F0C093D201B1
:100FD0000E94132B6093D3017093D4018093D501A9
:100FE0009093D6018C2F0E94CC07CF910895ABE04F
:100FF000B0E0EDEFF7E00C94BE334F83588769877C
:101000007A878B8761110E94F80F1E821D8285E00E
:10101000FE013796DE01119601900D928A95E1F757
:101020008C819D81892B61F449815A816B817C81FE
:101030008D819E810E94210F2B96E2E00C94DA3381
:1010400089819A8189238F3F79F3CE0101960E948D
:10105000EA068111E9CFF0CFFC01808191810E94E5
:10106000E70C0895CF93C82F8823C9F08238C9F4BC
:101070000E943A2981FD13C089E30E94B00F0E94AB
:1010800019102FEF87EE93E0215080409040E1F758
:1010900000C0000089E30E94B80F0E941910CF9190
:1010A00008958338A1F40E943A2980FDF8CF83E5A2
:1010B0000E94B00F0E9419102FEF81EE94E0215092
:1010C00080409040E1F700C0000083E5E4CF843821
:1010D000A1F40E943A2982FDE2CF87E40E94B00F7A
:1010E0000E9419102FEF81EE94E021508040904033
:1010F000E1F700C0000087E4CECF8CEF8C0F813A7F
:1011000090F46C2F80910001909101010E94AF2911
:10111000882329F08C2F0E94B80F0E9419108C2F61
:101120000E94B00FBACF80E28C0F883048F4C770AD
:1011300081E001C0880FCA95EAF70E94DB0FADCFAE
:10114000EBE5EC0FE33040F4F0E0E35AFE4F808132
:1011500090E00E946F29A3CFE8E5EC0FE73150F44F
:10116000F0E0EE0FFF1FE15DFE4F808191810E9454
:10117000852995CFC03F08F492CF8C2F0E94CC15C3
:101180000E949F168CCF882309F455C0823879F4C9
:101190000E943A2981FF4FC089E30E94B00F0E944C
:1011A000191089E30E94B80F0E941910089583381E
:1011B00059F40E943A2980FF3EC083E50E94B00F97
:1011C0000E94191083E5EECF843859F40E943A2921
:1011D00082FF31C087E40E94B00F0E94191087E49B
:1011E000E1CF9CEF980F913AE8F290E2980F983097
:1011F00050F4877091E001C0990F8A95EAF7892F22
:101200000E94E10FD1CF9BE5980F933028F490E036
:1012100080E00E946F29089598E5980F973128F48F
:1012200090E080E00E9485290895803F20F00E9490
:1012300026160E949F1608951F93CF93DF93182FB1
:10124000EB010E943208209739F4812F0E94C308D5
:10125000DF91CF911F9108958FE99FE00197F1F7FA
:1012600000C000002197EFCF70E060E0893311F4F7
:1012700060E570E00E941C090895882321F00E9417
:10128000DB0F0E9419100895882321F00E94E10FBE
:101290000E9419100895B0E0A0E0E1E5F9E00C9497
:1012A000B7336C01D62FC72FFC011281F580F29461
:1012B0009FE0F9220E94D10FE82E8823B9F0E12E99
:1012C0001123A1F08C2F807F803421F080E28D0FDC
:1012D0008830D0F080911D0382FF16C082E00E940A
:1012E0007C100E94D10F91E0E82EE926BC2EB2942A
:1012F0008FE0B822FBE0FB1508F468C0EB2DF0E0AE
:10130000E659FB4C0C948E33E12CF0CF0C2F0F7070
:10131000C07F11F00295007F112399F0002359F04E
:1013200080E28D0F883010F0D11107C0802F0E940D
:10133000DB0F0E9419108D2F41C0802F0E94EB0FF0
:10134000F8CF8D2F0E94C308002309F43FC080E22C
:101350008D0F883010F0D11104C0802F0E94E10F52
:1013600003C0802F0E94F10F0E9419102FC00C2F74
:101370000F70C07FC03211F00295007FDD2381F035
:10138000D13009F463C0112309F46DC0FF2009F4C2
:1013900063C0F601858180FFCECF8F7085835CC0EE
:1013A00080911D0382FD33C0112359F0002329F0E1
:1013B000802F0E94DB0F0E94191080E00E943208EB
:1013C00005C080E00E94C3080111C7CFEB2DE85093
:1013D000FF0B349720F40E943A290E94CC07EE209C
:1013E00089F00E94CD0F80FD0DC0F60112820E948F
:1013F000C70F0E94130CC6010E94510B0E94C70F19
:101400000E941F0CCDB7DEB7E9E00C94D333112353
:1014100089F0F11006C00E94FB0F802B0E943D094D
:10142000D5CF21E0F212F7CF0E94FB0F802B0E9454
:101430000210CCCFF11006C00E940F10802F0E9426
:101440004409C4CF31E0F31609F2F6CF112331F08D
:1014500085E08F1508F4BACF802FE0CF94E09F1578
:1014600008F4B4CFEBCFFF2049F3D93349F4FFEFB1
:1014700027EE33E0F15020403040E1F700C000009B
:101480008D2F0E94C308A2CF8C2F869586958370DE
:1014900069F0813009F09ACF8D2F9C2F9370111134
:1014A00002C090E080E00E94852990CF8D2F9C2F74
:1014B0009370111102C090E080E00E946F2986CFE6
:1014C0008D2F112329F00E94CC150E949F167ECFEC
:1014D0000E942616FACF8C2F837079F5111176CFE2
:1014E0004D2F429546954770440F440F8D2F8F70B6
:1014F000042E01C0880F0A94EAF72D2F2071D4FF23
:1015000007C02FE030E001C0220F4A95EAF720958E
:10151000C695C695C370822BC23049F058F4C130CD
:1015200019F00E94ED0B52CF0E94E70B4FCF0E94A3
:10153000F30B4CCF0E94E40B49CF8695112311F099
:101540008C2F8170882309F441CF4D2F4295469509
:101550004770440F440F8D2F8F70042E01C0880FE9
:101560000A94EAF72D2F2071D4FF07C02FE030E056
:1015700001C0220F4A95EAF72095C695C695C3701B
:10158000822BC23049F058F4C13019F00E943E0C51
:101590001DCF0E94380C1ACF0E94440C17CF0E9416
:1015A000FF0B14CFCF70112329F08C2F0E94130C46
:1015B0008D2F34CF8D2F0E9444098C2F0E941F0C39
:1015C00005CFD23F51F160F4D03FB9F0D13F81F067
:1015D000112309F449C0F110AECE8C2F8F7121C0B8
:1015E000D33F11F1D43FA1F780911D0382FD26C0A6
:1015F0008C2F8F71112311F314C0112349F084E053
:101600008F1508F4E3CE8C2F8F710E942C0CDECE48
:1016100095E09F1508F4DACEF6CF8C2F8F7111115B
:10162000CDCF0E94130CD2CE112329F08C2F8F71B5
:101630000E940A0CCBCE0E94060CC8CE112349F0A2
:10164000CF718C2F0E94130C63E08C2F0E945E10D0
:10165000BDCE81E00E947C10E1E0EF1508F0B6CE2F
:1016600082E00E947C10B2CEF110FFCE8C2F8F71E1
:10167000A5CF0F931F93CF93DF93EC0168817981FE
:101680008A810E94F20C8C010E944A0C0E94E30B9A
:10169000B801CE010E944B09DF91CF911F910F91AC
:1016A0000895CF93DF93EC018B819C81892B29F0E6
:1016B0008881998189238F3F51F4DF91CF910895DB
:1016C000CE010E94390BCE010E94EC06F6CFCE016E
:1016D0000E943E078111F4CF0E94D10F882369F345
:1016E0008A81882351F380911D0382FFE6CF82E037
:1016F0000E947C10E2CF90E080E00E946F2990E091
:1017000080E00E9485290E94F80F0E9419100E9413
:10171000BB160E949F1608950E94C00F0E947B0B6B
:1017200008950E94E80F0E948C0B089592959F7077
:10173000963091F058F4925F9F70923058F4803F49
:1017400019F030F4883E30F481E008959A5FF4CFC8
:10175000843FD1F380E00895883EB0F3813FD1F714
:10176000F3CFFC0183819481892B29F080819181C1
:1017700089238F3F11F480E00895808191810E9438
:10178000E70C0E94960B0895A5E0B0E0EAECFBE0C0
:101790000C94BE332596E2E00C94DA33A6E0B0E078
:1017A000E4EDFBE00C94BE332696E2E00C94DA33D1
:1017B00008950E94D80B08950E94D90B8093DC01F4
:1017C0000E947B0B089508950E94DC0B0895909170
:1017D000DC01892B0E94DC0B08959091DC018923A8
:1017E0000E94DC0B08959091DC0189270E94DC0B9C
:1017F00008950E94D80B08950E94F90B08950E9445
:10180000FC0B8093DB010E947B0B089580E00E941B
:10181000FF0B089591E001C0990F8A95EAF7892F8F
:101820000E94FF0B089521E030E001C0220F8A954D
:10183000EAF78091DB01822B0E94FF0B089521E0E3
:1018400030E001C0220F8A95EAF720958091DB01F4
:1018500082230E94FF0B089521E030E001C0220F97
:101860008A95EAF78091DB0182270E94FF0B089599
:101870009091DB01892B0E94FF0B08959091DB0171
:1018800089230E94FF0B08959091DB0189270E9414
:10189000FF0B08950895262F277091E001C0990F3E
:1018A0002A95EAF723E0769567952A95E1F7FB01FB
:1018B000EE0FFF1FE60FF71FE40FF51F50E040E0AB
:1018C000682F70E08191DF0111979B01042E02C007
:1018D000369527950A94E2F7217021952827292328
:1018E00028272C934F5F5F4F4330510559F70895D8
:1018F000A82FA77023E0969587952A95E1F7FC011C
:10190000EE0FFF1FE80FF91FE60FF71F50E040E052
:1019100080E0219130E00A2E02C0369527950A9486
:10192000E2F721703327042E01C0220F0A94EAF750
:10193000822B4F5F5F4F4330510559F70895262F93
:10194000911109C0873038F4682F70E048ED51E0FC
:10195000822F0E944B0C089591110AC0873030F4F9
:1019600068ED71E090E00E94780C982F892F08951F
:1019700090E0FCCFCF92DF92FF920F931F93CF9313
:10198000DF936C010091DB018091DC01082BC7E043
:10199000D0E010E0FC2EC8010C2E02C09595879572
:1019A0000A94E2F780FD0CC02197A0F7F12C8F2D4F
:1019B000DF91CF911F910F91FF90DF90CF9008950D
:1019C000B6018C2F0E942913019771F3F0CFCF93AA
:1019D000DF93EC010E94BA0CBE010E942913DF9133
:1019E000CF9108951F93CF93DF93EB019091D7018F
:1019F000992339F0CB010E94E70CDF91CF911F9121
:101A00000895882369F0CB010E94BA0C182F682F23
:101A1000CE010E949F0CBE01812F0E942913EDCFA1
:101A2000CB010E94AC0C182FF6CF1F93CF93DF93FE
:101A3000C091DD0116E08091DE018C1304C0DF91BE
:101A4000CF911F910895D0E01C9FF0011D9FF00DD4
:101A50001124E152FE4F4081518162817381848162
:101A600095810E94CE0B2196C770E5CF40910F0261
:101A70005091100260911102709112028091130234
:101A8000909114020E94CE0B08951F93CF93DF9381
:101A900080911402807F09F049C08091110288234F
:101AA00009F444C08091DD01C091DE0160910F0214
:101AB00070911002A0911202B0911302D62FD72379
:101AC00016E0C81799F190E0109711F0DF3F19F474
:101AD00001968770F6CF189F9001199F300D112441
:101AE000F901E152FE4F41814713F2CF4081461385
:101AF000EFCF42814111ECCF438154814A1B5B0BF4
:101B0000483C510528F7809114028F7080618093C2
:101B10001402F901EC51FE4F80818F708061808347
:101B20008FE092E00E94510B0E94150DDF91CF9142
:101B30001F910895A1E1B0E0E0EAFDE00C94B63316
:101B40008C0185E0F801DE011D9601900D928A95C9
:101B5000E1F7F801E2808FE0C82E82E0D82E609194
:101B60001202709113026115710509F44EC1909132
:101B70000F0220911002892F82238F3F09F445C163
:101B800040815181A380B480F0901102F501E61BE1
:101B9000F70BFF2009F4EAC080911402382F307F40
:101BA000E83CF10508F0A3C031116DC0FE2C2513EF
:101BB00016C0941314C0E11012C08F70806180931E
:101BC00014020E94360DC6010E94510B809114022E
:101BD000F80185838F2D6196EAE00C94D233A1142D
:101BE000B10429F0842F85238F3F09F027C180E0BD
:101BF000F82FF170DF2E80FF3CC08091DD01209135
:101C0000DE0136E0821315C04D875E878D859E8587
:101C10000E94E70C292F22952F702230F0F02430FB
:101C200018F59F70F1F0F8019581907FD1F4D12CD7
:101C30001EC090E0389FF001399FF00D1124E15251
:101C4000FE4F6181651306C06081641303C0628129
:101C5000E6120FC001968770D5CF9F7011F08823D0
:101C600031F3805E883018F3C8010E94510BFD2CBF
:101C7000B1CFEE2009F4AECF809114028160809341
:101C80001402F12CA7CF251306C0941304C0F80149
:101C9000EE2009F487C0C8010E94B10B882319F116
:101CA000EE2009F180911402803270F020910F0231
:101CB0003091100238872F831986BB86AA868C87BD
:101CC000CE0107960E94510B86E0F801AFE0B2E02A
:101CD00001900D928A95E1F70E94450D0E94360D04
:101CE000FF24F39477CFC8010E94510BF9CF311133
:101CF00013C07A2DB98AA88A6E2D89890E94C40BD7
:101D00008FE092E00E94510B86E0F60111928A95D5
:101D1000E9F70E94360DB5CF25130FC094130DC0FF
:101D2000E1100BC0F8018583C8010E94510B86E0C9
:101D3000F60111928A95E9F74DCFC8010E94B10BC7
:101D4000882389F2EE2079F280911402803208F41F
:101D5000BBCF20910F02309110023A8329831B825E
:101D6000BD82AC828E83CE010196ACCFE83CF105FA
:101D700008F03EC0FE2CEE2009F4B5CF25132AC092
:101D8000941328C08091140280FD1BC0982F907F6F
:101D9000C1F0F8018583903F31F0982F907F905FDC
:101DA0008F70892B8583C8010E94510B86E0F80152
:101DB000AFE0B2E001900D928A95E1F70E94360DF6
:101DC00009CF86E0F801AFE0B2E001900D928A956C
:101DD000E1F700CFC8010E94B10B811175CF80914E
:101DE0001402816080931402C8010E94510BF2CE4C
:101DF0007A2DB98AA88A6E2D89890E94C40B86E043
:101E0000F60111928A95E9F7D9CFEE2009F46BCF4C
:101E1000C8010E94B10BF82E882309F464CF86E034
:101E2000F801AFE0B2E001900D928A95E1F78FE002
:101E300092E00E942C080E94450DC0CF81E08E25C3
:101E4000D7CEACE0B0E0E7E2FFE00C94BD334F83C7
:101E5000588769877A878B879C87CE0107960E946F
:101E60009A0D882369F08A859B85892B39F04F81EB
:101E70005885842F85238F3F09F06BC016E05FC023
:101E800086E0FE013796DE01119601900D928A954B
:101E9000E1F78A859B85892B89F38F819885892332
:101EA0008F3F61F32091DE0130E0C9010196877018
:101EB00099274091DD014817190671F40E94910B92
:101EC0001092DE011092DD0186E0EFE0F2E0DF012A
:101ED0001D928A95E9F7D2CF96E0929FD001939F09
:101EE000B00D1124A152BE4FFE01319601900D920A
:101EF0009A95E1F78093DE010E94150DBFCF819F77
:101F0000C001112481529E4F0E949A0D8823E9F04E
:101F1000E091DD011E9FF0011124E152FE4F40814E
:101F2000518162817381848195810E94CE0B809161
:101F3000DD0190E00196877099278093DD01809103
:101F4000DD019091DE018913DACF2C96E3E00C9449
:101F5000D93369857A858B859C850E94CE0B8ECF7F
:101F6000682F80910001909101010E942F2A08950D
:101F7000682F80910001909101010E943D2A0895EF
:101F800080910001909101010E944B2A0895809157
:101F900035028595859585950895809135028770E0
:101FA000089590913502977081E009F480E00895DA
:101FB00080915802089590915802892B809358027D
:101FC000089580959091580298239093580208950F
:101FD00010925802089590915702892B80935702CE
:101FE00008958095909157029823909357020895F1
:101FF00010925702089580913602089508950E9424
:10200000FE0F089590911D0392FF08C09091360233
:10201000981721F0809336020E94FF0F0895809157
:102020003602882329F01092360280E00E94FF0FCA
:102030000895CF93DF93E0910001F0910101809129
:1020400058028083E0910001F0910101808190911C
:102050005702892B808390913602992381F0E09179
:102060000001F09101018081892B80838091000122
:10207000909101010E949B2981110E940F10C09133
:102080000001D091010140E250E065E172E0CE0133
:102090000E940A34892B59F080E2FE01A5E1B2E0EA
:1020A00001900D928A95E1F7CE010E944729DF91B8
:1020B000CF91089508950E945A10089590911D039C
:1020C00092FF11C098E0899F90011124622B6093C8
:1020D00035020E94130C8091350285958595859572
:1020E0000E945B1008950E94130C0895109235020F
:1020F00080E00E945B1008959091350280958923BD
:1021000080933502282F277091F4282F082E000C79
:10211000330B9217130659F090911D0392FF07C0DD
:102120008595859585950E941F0C0E9476100895CF
:1021300090911D0392FB222720F9281769F080FB5C
:1021400092F990931D0380911C0390911D030E94AE
:10215000EA1082E00E947C10089580911D0382FBAA
:10216000882780F991E089270E949810089581E0DE
:102170000E949810089580E00E94981008956FEFD3
:102180007FEF90E080E00E945234089590E080E07C
:102190000E942E34883E9E4F19F40E94C41D08955B
:1021A00080E0089582E090E00E942034089583E06A
:1021B00090E00E9420340895CF9384E090E00E9444
:1021C0002034C82F82E290E00E942034982F8C2F78
:1021D000CF910895CF93C92F682F84E090E00E949B
:1021E00034346C2F82E290E00E943434CF91089511
:1021F000AB01BC018FE090E00E9446340895AB0132
:10220000BC0183E190E00E944634089560E070E0F4
:10221000CB010E94FF10089560E070E0CB010E94A6
:10222000F8100E940611089568EE7EEF90E080E0BD
:102230000E94523460E082E090E00E94343460E01A
:1022400083E090E00E9434341092DC0160E084E08E
:1022500090E00E94343464E082E290E00E943434E2
:1022600060E085E090E00E94343460E086E090E039
:102270000E9434346FEF87E090E00E94343440E0F5
:1022800050E0BA0188E090E00E94463460E08DE0C2
:1022900090E00E94343440E050E0BA0188E190E0E0
:1022A0000E94463460E087E190E00E94343440E0D0
:1022B00050E0BA018CE190E00E94463470E060E0AA
:1022C00080E290E00E94523440E050E0BA0188E1A0
:1022D00090E00E94463480E00E94DD1D0E940C1EAA
:1022E0000E940C1108950E9414110895682F8EE029
:1022F00090E00E94343408950E94132B6093600292
:1023000070936102809362029093630260935C0217
:1023100070935D0280935E0290935F02089508952A
:1023200008950E949011089508950E9494110895AF
:1023300083E194E10E9430290E948F110E94911143
:10234000089581E008950E94A111089508950895C7
:102350000E94A6110E94A71108950E9432140E94A3
:10236000CB0708950E94FE2A0E941C1E0E94CB14D7
:102370000E94AD1180E00E94BB1F0E94121C0E94AF
:1023800095110895AAE0B0E0E8ECF1E10C94B733C0
:102390000E94D714D0905B0280E00E945514C82E92
:1023A000D8122FC00E94072B8C0180915902909166
:1023B0005A0208171907A1F08FEF89838A831B82BD
:1023C0000E94072B8160782F9D838C8349815A81DD
:1023D0006B818D810E94F70710935A020093590276
:1023E0000E9470270E944E1C0E947722DC100E94DF
:1023F0003D210E94DD160E94DE072A96E9E00C943A
:10240000D3338091640281FD0E945B140E94A3116A
:10241000B82E80E00E945514182F80915B02181787
:1024200021F1E12EE82600E0FF24F3948E2D8F2188
:10243000B1F0BB20A1F00E831F8291E0812F8F218C
:1024400009F490E098870E94072B8160782F9A8783
:1024500089874E815F8168858A850E94F7070F5FB3
:10246000FF0C073019F710935B020E947C11B8CF64
:10247000CF93DF930E942E13EC01811521E5920783
:1024800008F042C0811530E5930708F09FC0883EF0
:10249000910530F5803E910508F094C0883A910589
:1024A00088F4853A910508F086C08130910509F4D9
:1024B00089C0009709F486C0049708F083C0D0E073
:1024C000C0E080C08F3B9105D0F7C85AD0E0CC0F58
:1024D000DD1FC05ADE4F0990D881C02DD46472C070
:1024E000811540E2940750F4C11581E0D80708F047
:1024F00069C0C03FD10518F3D06564C08115904410
:10250000F0F2DF70D06A5EC0811535E5930718F5EB
:10251000811544E5940708F085C0C11583E5D80707
:1025200008F06CC0C11522E5D20708F462C0CE01E4
:102530008370992721E030E002C0220F331F8A9573
:10254000E2F7C695C69580E2C89FE0011124C22B30
:10255000D32BDC6837C0811539E59307A8F48115C2
:1025600048E5940708F063C0C11586E5D80708F070
:10257000A6CF8C2F0E94D013C82FD0E0DC2FCC2701
:10258000CC27DF71D0621EC081152AE5920708F4BE
:1025900053C090568115904208F091CF8D2F8F71C6
:1025A0000E94D01390E0982F882788279F719C0164
:1025B0002C2BE901E7CFC55AD0E0C257DE4FC881C6
:1025C000D0E0D064CE01DF91CF9108958370992738
:1025D00021E030E002C0220F331F8A95E2F7C69552
:1025E000C69540E2C49FE0011124C22BD32BDD68C5
:1025F000E9CFDC2FCC27C16FD06AE4CFCE01837046
:10260000992721E030E002C0220F331F8A95E2F7BC
:10261000C695C69540E2C49FE0011124C22BD32B7E
:10262000DA68D0CFD82FCC27C46FD06ACBCFD82FC1
:10263000CC27C06FD06AC6CF8F700E94D01334E011
:10264000D695C7953A95E1F7CF709C2FEC01D069EC
:10265000B9CF0E9499250E943812089582389105B9
:10266000B9F1B0F48133910509F47DC048F48932A1
:10267000910509F46DC08A32910509F47BC0089573
:102680008533910509F45FC08933910509F10895F7
:10269000833E9105D9F138F4803E910529F1823EBF
:1026A000910579F10895863E9105D9F1873E91050E
:1026B00009F43EC0843E910541F520911D0321FFA0
:1026C00024C080911C0384FD19C087EE90E008951A
:1026D00020911C03237009F05AC020911D0323FF91
:1026E00014C089E290E0089520911C0320FD38C0B9
:1026F00030911D0330FF09C024FF43C090E080E00B
:10270000089520911C0322FDF7CF089520911C030A
:1027100022FD3AC030911D0330FD39C024FFF5CFB2
:10272000EDCF20911C0323FFF0CF24FDE7CFCDCFC9
:1027300020911C0323FD2EC030911D0331FFEECFED
:1027400084EE90E0089520911C0325FFDECFC9CFD1
:1027500020911C0325FD21C020911D0323FFD5CF0F
:1027600089E390E0D2CF20911C0326FFCECF8AE2EE
:1027700090E0089520911C0326FFC7CF81E390E0ED
:10278000089583EE90E0089582EE90E0089580EE43
:1027900090E0089586EE90E0089585E390E0089536
:1027A00090911C0392FF06C0282F28712830F9F45D
:1027B000877F846093FF06C0282F28712831F1F4A9
:1027C000877E846120911D0320FF06C0382F387159
:1027D0003830D9F4877F816021FF06C0282F287107
:1027E0002831D1F4877E816194FD877E0895282F5A
:1027F00024712430F9F68B7F8860DCCF282F247178
:10280000243101F78B7E8861DDCF382F3171313073
:1028100019F78E7F8860E0CF282F2171213121F7B1
:102820008E7E8861E1CF80E008950E94BF100895F8
:102830000E94D7142FEF86E791E02150804090400E
:10284000E1F700C000000E94D71480E00E945514F8
:1028500080FF04C00E9415140E946E2B08950E94F0
:10286000181408950E94C610811102C00E947311AD
:102870000E94D210809364020E94DC1090931D038A
:1028800080931C030E942F140E94D7100E94E40B17
:102890008091DB010E94FC0B089508950E944D1465
:1028A000089508950E9451140895E82FF0E0E15E24
:1028B000FC4F80810895089580EA8A95F1F7089584
:1028C00000C008950E945C140895F894E82FE295E2
:1028D000EF70F0E031A1282F2F7081E090E001C06F
:1028E000880F2A95EAF7982F9095932391A392A1A8
:1028F000892B82A378940895CF93DF9386E30E9477
:102900006514C1E9D1E089918F3F11F00E946514EF
:1029100081E0C839D807B9F7DF91CF9108950F93B7
:102920001F93CF93DF938C01C62FF894269A2E988D
:1029300078940E946014E1E9F1E081E0D0E09191A7
:102940009F3F79F0A92FA295AF70B0E090962C919F
:1029500030E09F7002C0359527959A95E2F7982F41
:1029600020FD90E0D92B880F91E0E839F90739F77D
:1029700086E30E94651461E0D11101C060E08C2FF4
:102980000E946214F801EC0FF11DD083DF91CF910A
:102990001F910F9108950E947C1410921F031092B2
:1029A0001E0381E00E94FC140E941F070895A1E00D
:1029B000B0E0EDEDF4E10C94BD33198260E0CE019E
:1029C00001960E948F1490911E03898121E0981333
:1029D00001C020E0981380931E0341E06FE173E093
:1029E0008EE193E00E94FD14182F0E942207812F90
:1029F0002196E3E00C94D9330895CF92DF92EF92C1
:102A0000FF920F931F93CF936C017B01042F22231E
:102A100049F081E0809367020E94072B9093660241
:102A200080936502C0916702C1110AC0C0E08C2F7B
:102A3000CF911F910F91FF90EF90DF90CF9008956D
:102A400080916502909166020E941F2B059770F39A
:102A500010E0A801B601C7010E940A34892B41F099
:102A6000A801B601C7010E94173410926702DFCF98
:102A7000C0E0FBCF0E946A2D0E94B2110E94772D08
:102A800008950E947C2D0E94C2110E94962D0895E7
:102A90000E94A02A0E94502D0E9498110E943A156F
:102AA0000E9441150E94A811FBCF80916E0280FF09
:102AB0000DC06091070170E0660F771F60387105E7
:102AC00070F56115710569F1862F089581FF07C0C2
:102AD0006091070184E0689FB0011124EFCF6091FD
:102AE000070182FD0AC080916D028823A9F0209120
:102AF000060160910701821710F088E0ECCF869FF5
:102B0000C001112433E0880F991F3A95E1F7622F35
:102B100070E00E943933D2CF68E070E0D5CF8FE704
:102B2000089581E0089580916E0280FF0CC060914D
:102B3000030170E075956795759567956115710549
:102B400049F1862F089581FF06C06091030170E06E
:102B500075956795F3CF6091030182FD0BC090914D
:102B60006C029923A1F060910201809103019617F4
:102B700038F0682F70E06038710500F38FE7089532
:102B8000899FC001112470E00E943933F4CF61E0C5
:102B900070E0D7CF81E00895803F31F40E94551551
:102BA0008195809372020895813F19F40E94551512
:102BB000F8CF823F31F40E945515819580937102C0
:102BC0000895833F19F40E945515F8CF893F29F4E1
:102BD0000E9493158093730208958A3F21F40E9406
:102BE00093158195F7CF8B3F31F40E949315819512
:102BF0008093740208958C3F19F40E949315F8CFC6
:102C00009CE0980F953070F4845F990B21E030E0E0
:102C100001C0220F8A95EAF780917002822B80937F
:102C2000700208958D3F31F480916E02816080932F
:102C30006E0208958E3F21F480916E028260F7CF7C
:102C40008F3FB9F780916E028460F1CF409171029D
:102C5000803F59F48091720287FF0DC0109272027A
:102C600041110BC010926D0208C0813F81F4809128
:102C7000720218169CF3442381F0809173029091A4
:102C80007402892B09F05AC010926C020895823F99
:102C900049F447FFF0CF10927102809172028111C6
:102CA000ECCFE0CF833F19F41416ACF3E4CF90914E
:102CB0007302893F29F41916F4F610927302DBCFE0
:102CC0008A3F19F497FFD7CFF8CF909174028B3FCA
:102CD00029F497FFD0CF10927402CDCF8C3F19F416
:102CE0001916CCF3C8CF9CE0980F953090F4845F10
:102CF000990B21E030E0B90102C0660F771F8A9579
:102D0000E2F7CB0180959091700289238093700245
:102D1000B2CF8D3F31F480916E028E7F80936E0230
:102D2000AACF8E3F21F480916E028D7FF7CF8F3F27
:102D300009F0A1CF80916E028B7FF0CF08950E94A1
:102D4000072B9C019091710280917202982B21F0C7
:102D500030936B0220936A02909173028091740207
:102D6000982B21F030936902209368028FE692E05D
:102D70000E946129089586E0EFE6F2E0DF011D92EE
:102D80008A95E9F710926D0210926C0210926E0211
:102D90000895FC01828181110EC0838181110BC0D5
:102DA0008481811108C091E08581811101C090E08A
:102DB000892F8170089581E0FCCFA6E0B0E0E3EEBA
:102DC000F6E10C94BD3386E0EFE6F2E0DE01119609
:102DD00001900D928A95E1F71092710210927202A1
:102DE00010927302109274028B819C81892B89F05E
:102DF00080916A0290916B020E941F2BAC0190910E
:102E00006D029923C9F1809108018417150608F411
:102E100040C08D819E81892B91F0809168029091B4
:102E200069020E941F2BAC0190916C02992309F456
:102E300071C0809104018417150608F479C0BE01A1
:102E40006F5F7F4F8FE692E00E945D2A811105C07F
:102E50008FE692E00E94C91681110E949F1686E0BB
:102E6000FE013196AFE6B2E001900D928A95E1F74E
:102E70002696E3E00C94D933209109018AE0289F3B
:102E8000900111242417350720F69F5F90936D025F
:102E900002C09F3FD1F71B81112359F00E945515A5
:102EA0009FEF11160CF491E0899F802D11248093DF
:102EB00071021C81112359F00E9455159FEF1116C4
:102EC0000CF491E0899F802D11248093720230913F
:102ED0007102332309F49DCF20917202222309F459
:102EE00098CF45EB3403C0011124992359F09093F6
:102EF000710245EB240390011124332339F0309300
:102F0000720287CF81E080937102F3CF81E08093DA
:102F100072027FCF209105018AE0289F9001112441
:102F20002417350708F08BCF9F5F90936C0202C087
:102F30009F3FD1F71D81112359F00E9493159FEFF8
:102F400011160CF491E0899F802D11248093730257
:102F50001E81112359F00E9493159FEF11160CF456
:102F600091E0899F802D1124809374023091730227
:102F7000332309F464CF20917402222309F45FCF34
:102F800045EB3403C0011124992359F09093730247
:102F900045EB240390011124332339F0309374025C
:102FA0004ECF81E080937302F3CF81E0809374026F
:102FB00046CFEF92FF920F931F93CF93DF93EB01D6
:102FC000E82FD1110EC0442321F0F0E0EB50FC4F6C
:102FD000E4916E2F7E2F8E2FCDB7DEB7E6E00C94F6
:102FE000D6330D2F10E0282F30E0442329F02B504A
:102FF0003C4FF901249130E0F6E0CF9FC00111244D
:10300000EFEFF0E0BF010E942533AB018C2F90E081
:10301000880F991FA5E5A49FB001A59F700D1124ED
:10302000861B970B982F990F980FBF01601B710B90
:10303000629FD001639FB00D729FB00D11248B2F42
:103040009D9FB0011124672F7727EF01C61BD70B77
:10305000BE01629FE001639FD00D729FD00D1124CD
:103060007F01E91AF108E09EB001E19E700DF09E2B
:10307000700D1124672F7727E61BF70BE29F800165
:10308000E39F100DF29F100D1124E12F722F42309B
:10309000510599F048F44115510569F04130510549
:1030A00081F0EB2F8D2F07C04430510569F080F07F
:1030B00046305105B1F76E2F8FCFE22F7B2F812F36
:1030C000FACFE22F7D2FF7CFEB2F822F712FF3CF87
:1030D0007B2F822FED2FEFCF41E00E94D91708956B
:1030E00008950E946C180895CF93DF93762FE9011D
:1030F000682F842F0E947118798368838A83DF91F7
:10310000CF91089580912003982F9E7F29F481709C
:1031100082608093200308958034E8F381708E6389
:10312000F8CF88E090E00E9428340895CF92DF9293
:10313000EF92FF926B017C010E948218B701A601F9
:1031400088E090E00E944634FF90EF90DF90CF90AF
:103150000895609120037091210380912203909142
:1031600023030E9496180895E0E2F3E083E0808351
:1031700011828FEF828383831482608171818281C7
:1031800093810E94961808958091200380FF02C0C9
:103190008695089580E0089590912403933018F463
:1031A0009F5F90932403882351F0609120037091D6
:1031B000210380912203909123030E949618089581
:1031C00081E00E94CC18089590912403992319F06E
:1031D000915090932403882351F0609120037091C3
:1031E000210380912203909123030E949618089551
:1031F00081E00E94E418089580912403089580934B
:103200002403662351F06091200370912103809183
:103210002203909123030E949618089560E00E9473
:10322000FF18089580912103089580912203089545
:1032300080912303089570E00E94981D0895609185
:103240000B018091200380FF0BC080910A0123E0D5
:10325000829FC00111248B5D9C4F0E941B19089511
:1032600080910C0190910D0123E0829FF0011124C7
:10327000EB5DFC4F891748F71182108212828F5F35
:103280003396F8CF9091200390FF0EC090910C01DF
:1032900020910D0133E0939FF0011124EB5DFC4F71
:1032A000921718F00E941F1908958183608342834A
:1032B0009F5F3396F5CFA3E0B0E0E1E6F9E10C942F
:1032C000BE339091200390FF0AC09E012F5F3F4FB5
:1032D0000E9474184B8169818A810E944219239649
:1032E000E2E00C94DA33CF93DF93EC01EC81F0E071
:1032F000E051FD4F4491E0E2F3E0628181810E9460
:103300005B198C818F5F8C83DF91CF910895CF9370
:10331000DF93EC01E0E2F3E0438162818C810E9463
:103320005B198C818F5F8C83DF91CF910895A3E02F
:10333000B0E0EDE9F9E10C94BC338C0180917502A9
:1033400081110AC09E012F5F3F4F4FEF6FEF0E9428
:1033500074188A8180937502F8016481613069F084
:103360008091750240E0662361F040E0623011F424
:103370004091750280E060E004C06091750240E019
:1033800080E00E944219F801848190E0019663E098
:1033900070E00E94393384832396E4E00C94D833A0
:1033A000A3E0B0E0E6EDF9E10C94B733082FD62E98
:1033B000E42EC22E9091200390FF29C0E92FE695BC
:1033C000AE2FB0E0A856BE4F8C9180937E029E7FB8
:1033D000923009F59E012F5F3F4F802F0E94741895
:1033E0004B8169818A810E94421900932103D09206
:1033F0002203E0922303CC2051F0609120037091CE
:10340000210380912203909123030E949618239612
:10341000E9E00C94D333823019F4E0902303E5CF34
:10342000863019F400912103E0CF8930D9F385313A
:10343000E1F6E5516E2F6170B62EE695F0E0E051B1
:10344000FC4F1491F12C60910E01F61618F00E94B9
:103450001F19CBCFF19EC001112470E00E942533CB
:10346000802FB11014C0860F20910C01622F6F0DB8
:103470007727771F9B01220F331F260F371F2B5DE6
:103480003C4F4E2D6D2D0E947418F394DCCF861B9B
:10349000EBCFE0E2F3E09181282F4381628188E065
:1034A000890F0E94D019089581E00E94491A089559
:1034B000E0E2F3E09181282F4381628188EF890F58
:1034C0000E94D019089581E00E94581A0895E0E200
:1034D000F3E0628128E0620F08F46FEF282F438148
:1034E00081810E94D019089581E00E94671A089591
:1034F000E0E2F3E0628128E0621B08F460E0282F3C
:10350000438181810E94D019089581E00E94781A38
:103510000895E0E2F3E0438128E0420F08F44FEF22
:10352000282F628181810E94D019089581E00E9434
:10353000891A0895E0E2F3E0438128E0421B08F491
:1035400040E0282F628181810E94D019089581E096
:103550000E949A1A089520E00E94D0190895EF92CF
:10356000FF921F93CF93DF93EC0110E0EE24EA94D7
:10357000F12C60910E01161770F00E941F199A81AC
:103580008C8190FF27C08F5F8C83DF91CF911F913B
:10359000FF90EF90089520910C01422F410F552785
:1035A000551FCA019A01220F331F280F391F2B5DA7
:1035B0003C4F70E0C7010E943933962F8C814091B7
:1035C000230360912203199F800D11240E94741817
:1035D0001F5FCFCF8150D8CFB0E0A0E0E2EFFAE19B
:1035E0000C94B633FC0182810FEF80FF01E010E004
:1035F00045E0A42E80910E01181798F00E941F1923
:1036000080917602013009F04FC0811102C0809193
:103610000E01815080937602CDB7DEB7EAE00C94BC
:10362000D233C0910C01C12ED12CCC0DDD2DD11D7A
:10363000CE01880F991FC80FD91FCB5DDC4F1982AF
:1036400018821A8234E0E32EF12CB12C809176029C
:103650008B0D86301CF16A2D0E941733892F082E9E
:10366000000C990BC816D90691F4809123038E9D06
:10367000A0018F9D500D112455954795559547955F
:103680009E0160912203809121030E947418B00E64
:10369000F1E0EF1AF108D1F61F5FACCF87FFDFCF63
:1036A00090910E01890FDBCF90E0019660910E01A1
:1036B00070E00E943933AECFE0E2F3E080818E7F8C
:1036C000808360817181828193810E94961810921B
:1036D0007F022FEF80E792E0215080409040E1F799
:1036E00000C000000E941F190895E0E2F3E080810D
:1036F0008E7F808310927F022FEF80E792E021502F
:1037000080409040E1F700C000000E941F1908951A
:1037100060912003669570E04BE050E08FE091E00F
:103720000E94FD33892B19F481E080937F020E946F
:10373000072B90937802809377020895909120034D
:1037400090FF2BC09170811129C09260909320034B
:10375000662351F060912003709121038091220330
:10376000909123030E94961860912003669570E063
:103770004BE050E08FE091E00E94FD33892BA9F0EF
:1037800010927F0281E080937A024091230360913E
:103790002203809121030E94AB1A0895803210F019
:1037A0009E63D4CF880F982BD1CF0E94881BEACF7D
:1037B000682F90912003969581E0890F803208F060
:1037C00081E00E949E1B089581E00E94D81B08950D
:1037D000682F9091200396958FEF890F09F48FE160
:1037E0000E949E1B089581E00E94E81B089561E0FD
:1037F0000E949E1B0895E0E2F3E080818160808357
:1038000086950E94F71B08958091200380FF03C0D6
:103810000E945C1B08950E94FB1B089560E00E94BB
:103820009E1B089580917D0281112EC00E94C610BA
:10383000811104C00E9473110E94B4180E94911853
:1038400060932003709321038093220390932303BA
:103850006E7F61F40E94B4180E9491186093200357
:103860007093210380932203909323030E94821874
:1038700010927F028091200380FF03C086950E94F2
:103880000E1C81E080937D020895E0E2F3E08081E8
:103890008160808386950E940E1C08950F931F936C
:1038A000CF93DF9380917F028823B9F180917E02CC
:1038B000E0912003E695E81BE0937902823091F5D0
:1038C000F0E0E451FD4FE491CE2FD0E003E719E1A1
:1038D00080917A02882361F010927A020E94072B6D
:1038E000909378028093770210927C0210927B0270
:1038F0000E94072BE0917702F09178028E1B9F0BBC
:103900008F3F9F4750F4EC0FFD1FF0937802E09338
:10391000770287E792E0F8010995DF91CF911F9137
:103920000F910895863049F4F0E0E751FD4FE4919E
:10393000CE2FD0E007E819E1CBCF893051F4E695DE
:10394000F0E0EA51FD4FE491CE2FD0E00FEA1AE10A
:10395000BFCF8F3051F4E695F0E0ED51FD4FE4918B
:10396000CE2FD0E00CEE1AE1B3CFC0EDD7E000E7E8
:1039700018E18F3109F0ACCFE1EEF2E0C591D491BE
:1039800007E919E1A5CFFA01811101C0FB010995F1
:103990000895CF93DF93C82FD62F0E94C4188C1799
:1039A00048F00E94C4188D1728F40E94E41BDF9190
:1039B000CF9108958C2F0E94F71BF9CF1F93CF93BF
:1039C000DF93EC01FB011281111173C00E94D80F2B
:1039D0008272CC3CFCE5DF0709F491C008F041C0DD
:1039E000C63CECE5DE0709F476C0D8F4C33C9CE5A0
:1039F000D90709F466C030F4C23CDC4509F45EC066
:103A000011E057C0C43C9CE5D90709F45FC043E608
:103A10005AE164E57AE1C53CDC4591F70E94C31C9C
:103A200048C0C93CFCE5DF0709F45FC068F4C73C47
:103A3000ECE5DE0709F454C044E75AE165E87AE1B1
:103A4000C83CDC4559F3DCCFCA3C9CE5D90709F4F6
:103A500051C048EF58E160EE78E1CB3CDC45F1F233
:103A6000CFCFC13DFCE5DF0709F45AC098F4CE3C46
:103A70009CE5D90709F44CC008F446C0CF3CFCE5EE
:103A8000DF0709F44AC0C03DDC4509F0B9CF6EE05C
:103A900089E040C0C43D9CE5D90709F444C048F022
:103AA000C53DFCE5DF0709F441C0CD35DD4509F032
:103AB000A7CF812FDF91CF911F9108950E94041C01
:103AC000F8CF43EF5BE164EE7BE1A8CF44EE5BE12E
:103AD00063EF7BE1A3CF44E55AE163E67AE19ECF51
:103AE00045E85AE164E77AE199CF47EA5AE166E9A5
:103AF0007AE194CF46E95AE167EA7AE18FCF40EE66
:103B000058E168EF78E18ACF81E00E94F71BD1CFBE
:103B100065E082E00E94C91CCCCF68E086E0FACF65
:103B200064E18FE0F7CF6EE185E1F4CF8FE1EDCF77
:103B3000259A45B14F7D55B15062EFB7F8949B017E
:103B4000220F331F260F371F280F391F2817390759
:103B500041F4EFBF8FE594E00197F1F700C000005A
:103B60000895DC016D91CD0178E055B9000000C0E9
:103B700067FF45B9660F000000C000C000C045B92E
:103B800000C07A9591F7E2CF83E290E00E94203462
:103B9000823289F484E290E00E942034813159F429
:103BA00085E290E00E94203491E0883009F090E0B6
:103BB000892F8170089580E0FCCFCF93C82F6FEFDD
:103BC000811162E283E290E00E9434346FEFC11110
:103BD00061E184E290E00E9434346FEFC11168E04B
:103BE00085E290E00E943434CF910895089586E2F2
:103BF00090E00E942034682F70E090E080E008950B
:103C00000895CF93C62F0E94001E6C2F86E290E08D
:103C10000E943434CF91089580E00E94DD1D60E061
:103C200070E0CB010E94011E0E941F250E94F62514
:103C300081E00E94DD1D08950E94F61D0E94F71D7F
:103C40000E94001E0E94C41D811102C00E940C1E11
:103C50000895CF93FB01C281CC2309F19C0122512D
:103C60003F452031310520F582510E940626C0E0F3
:103C70008C2FCF91089581E00E94130C43E062E005
:103C800081E00E941507F3CF81E00E941F0C43E002
:103C900062E081E00E941507EBCF82E0F6CF803131
:103CA000FFE59F0789F381319F45B9F3C1E0E0CF7C
:103CB0008031EFE59E07F9F281319F45C9F682E038
:103CC000DBCF2FEFFC0120830895CF93DF93EC012E
:103CD00088818138E9F028F4803871F0DF91CF9144
:103CE00008958238C9F08338C9F70E941219898370
:103CF0000E9415198A83F2CF0E9418192FEF829F14
:103D0000C00111246FEF70E00E9425336983E6CF74
:103D10000E94C4188983E2CF0E94FC18FBCFCF9386
:103D2000DF93EC018881813821F128F4803869F033
:103D3000DF91CF910895823841F18338C9F70E940D
:103D40001819482F6A81898111C089812FEF829FBC
:103D5000C00111246FEF70E00E942533D62F0E941E
:103D60001519C82F0E9412194D2F6C2F0E94AB1AE3
:103D7000DFCF89810E940E1C8981811103C00E94BE
:103D8000751BD6CF0E94451CD3CF89810E940E1986
:103D9000CFCF1F93CF93DF93EC01162FDC01ED9172
:103DA000CD01E150E33108F0A0C0F0E0EA58FB4C4F
:103DB0000C948E3319828AE08A830FC08981823005
:103DC000A1F08330A9F08130B9F40E94132B0E9436
:103DD00094336A837B838C839D83612FCE010E9401
:103DE000232CDF91CF911F9108950E94F71DEFCFF3
:103DF00080E00E945514E0CF612FCE010E94611E29
:103E0000ECCF89818230C1F76A817B818C819D8171
:103E10000E9494330E94011EE0CF4B816A81898108
:103E20000E94D4249827892798279D838C83D5CFF7
:103E30002C813D813227232732274B816A8189815A
:103E40000E94FE24CACF0E941F25C7CF0E948F1E4A
:103E5000C4CF0E94651EC1CF0E94A918BECF0E9488
:103E6000A7258983BACF0E94A92598278927982753
:103E70009A838983B2CF6B8170E089819A81AE0188
:103E80004C5F5F4F9827892798270E94AC25A5CFC4
:103E90006B8170E089819A81AE014C5F5F4F9827FA
:103EA000892798270E94D12598CF0E94F62595CF83
:103EB0000E94D224D6CF6B8170E089819A81AE01B5
:103EC0004C5F5F4F9827892798270E94532585CFFD
:103ED0006B8170E089819A81AE014C5F5F4F9827BA
:103EE000892798270E94762578CF8FEF888375CF12
:103EF000B0E0A0E0EEE7FFE10C94B8336C017B0189
:103F000064E670E088E70E944A28EC0197FD12C041
:103F100010E000E0F601E00FF11F849164E670E02C
:103F20000E94B628EC01892B29F40F5F1F4F0E1554
:103F30001F0581F70E942C29CE01CDB7DEB7E8E03E
:103F40000C94D43308950E94A21F0895E4E3F3E093
:103F500080E092E0DF019C011D9221503040E1F7AA
:103F6000F0933905E09338058FEF9FEF9093AC0203
:103F70008093AB0208950E94A21F0E94A31F80930A
:103F8000A70280FD0FC080E88093A6020E9444280B
:103F90006DE070E08CE095E00E94781F892B21F0A5
:103FA00080E0089580E2F0CF8091A70263E070E0A6
:103FB00081FD26C089E095E00E94781F892B81F75A
:103FC0006DE070E089EF94E00E94781F892B41F743
:103FD0000E94132B605A75418F4F9F4F6093340599
:103FE0007093350580933605909337050E94A61F80
:103FF00081E08093AA028093A9021092A8020895FA
:1040000086E095E0D9CF2091A60236E0839FC001DB
:104010001124629F800D911D1124811522E09207C9
:1040200014F090E080E08C5C9C4F90933905809375
:104030003805089520913805309139052E523340C6
:104040004091A602642F70E0C9010E942533481BED
:10405000463010F4240F311D211582E0380710F08E
:1040600030E020E02C5C3C4F30933905209338053C
:1040700008951F93CF93DF93162F8A3039F481E090
:104080000E94B220DF91CF911F9108958D3011F4DD
:1040900080E0F6CFC0913805D091390596E0FE0159
:1040A000A0E8B2E001900D929A95E1F7803EB8F059
:1040B00086E0FE0111928A95E9F711111CC0C091AA
:1040C0003805D091390546E050E0BE0180E892E025
:1040D0000E940A34892BE9F40E941A20D3CFF6E01B
:1040E0008F9FB0011124675E7A4F46E050E0CE0109
:1040F0000E94F433E2CFE0913805F09139059F0139
:104100002A5F3F4F2E173F07D1F280818095819320
:10411000F9CFC453D340CE0125E0969587952A95D3
:10412000E1F721E030E0A90102C0440F551F8A9554
:10413000E2F7CA014091AB025091AC02842B952B5F
:10414000259645E0D695C7954A95E1F702C0220F1E
:10415000331FCA95E2F7822B932B9093AC02809386
:10416000AB02BACFCF93382FE0913805F0913905E3
:10417000E453F3402091A602622F70E0CF010E9429
:104180002533281B822F332369F066E00E940B330E
:10419000C82FC15010F4CF91089560E080E20E94D2
:1041A0003920F7CF9F01280F311D2115324018F01B
:1041B00080E0F0E0E0E08E0F9F2F911D8C5C9C4F23
:1041C0009093390580933805E6CF1F93CF93DF9303
:1041D000EC01162FFE018491811104C0DF91CF9173
:1041E0001F910895612F0E9439202196F3CF0E94DC
:1041F000E52081E00E94B2200895CF93DF932091C3
:1042000038053091390524533340A901460F571F13
:104210004130524020F060E072E0621B730B40912D
:10422000AB025091AC02FC01C901620F731FC1E0E7
:10423000D0E08617970738F05093AC024093AB025A
:10424000DF91CF9108952491DC01AC5CBC4F3C918F
:10425000321781F02C939C01A5E036952795AA95FD
:10426000E1F7DE0102C0AA0FBB1F2A95E2F79D010C
:104270004A2B532B01963196DCCF8091AA028111F3
:1042800003C08091A90208950E94132B605A7541C2
:104290008F4F9F4F6093340570933505809336059B
:1042A000909337058091A9028111EBCF62E070E015
:1042B00087EF94E00E94781F892B19F781E08093A3
:1042C000A902DFCF2F923F925F926F927F928F92DF
:1042D0009F92AF92BF92CF92DF92EF92FF920F9395
:1042E0001F93CF93DF938091AA02882369F02091D6
:1042F000AB023091AC022115310531F08091A8025A
:1043000061E070E0882399F0DF91CF911F910F91C8
:10431000FF90EF90DF90CF90BF90AF909F908F90E5
:104320007F906F905F903F902F9008958F5F082F40
:1043300010E01B01082E02C0220C331C0A94E2F785
:10434000A90142215321452B89F39091A70290FDA9
:1043500044C08295880F807680931C019801369521
:1043600027953695279520931F01815E80931D0127
:104370001092200124E630E047E050E06AE171E06D
:1043800088E70E94E428892B09F0BECFA80125E028
:10439000440F551F2A95E1F78091A70280FD2BC09D
:1043A0004C5C5C4F04E610E020E230E060E488E71B
:1043B0000E940529892B09F0A7CF0E943D21E10128
:1043C000C095D0958091AB029091AC02C823D923BF
:1043D000D093AC02C093AB0297CF880F880F880FA1
:1043E00080931C0110921F01895F80931D0183E05F
:1043F00080932001BFCFE6E8F2E080E2DF011D926A
:104400008A95E9F7ACEBB1E008EB11E080ECC82E3F
:1044100081E0D82E97E0592E772473948D91E8018E
:1044200029918E01240F352F311D2C5C3C4FE82F34
:10443000F0E0EA57FD4F90E080E0652C681A872C89
:10444000082E01C0880C0A94EAF77901A12CE70133
:10445000B9907E01B820662D6A196770962E062ED7
:10446000000C770BDB2D01C0DD0F9A94EAF77195F4
:10447000619571096770772701C0B6946A95EAF76C
:10448000BD2A6081962E9B289082A39468E0A61294
:10449000DECF019631968830910579F6CA16DB0693
:1044A00009F0BCCF04E610E020E230E046E852E03C
:1044B0007DCF8091A9029091AA02911103C091E051
:1044C00089270895882369F062E070E085EF94E021
:1044D0000E94781F892B19F08091A90208951092EB
:1044E000A9028091A902EBCF0E947C0608950F9348
:1044F0001F938091AA02882309F160E080E00E9466
:1045000003200E9474220E9462218091A9028823C4
:10451000A9F00E94132B00913405109135052091CC
:10452000360530913705601B710B820B930B6F3F83
:104530007F4F8F4F9F4710F40E9459221F910F9178
:104540000895CF93DF93EC01FB018281882309F466
:1045500064C1C330FDE5DF07E0F5CA3F9CE5D9073C
:1045600030F49E0122503C4524313105D8F50E949B
:10457000DC1090931D0380931C03C231ECE5DE0731
:1045800009F41FC108F06EC0C9308CE5D80709F4E2
:10459000F2C008F03FC0C530ECE5DE0709F4DBC02F
:1045A00058F5C3308CE5D80709F4CDC008F0CFC06A
:1045B00080911C038160C230DC4509F4AEC080915B
:1045C0001C0390911D030E94EA100E94910B80E051
:1045D00009C0C53AEDE5DE0751F238F4C1369DE574
:1045E000D90729F2DF91CF9108959E012D5A3D45BB
:1045F00023303105B8F7BBCF80911C038062C730F0
:10460000FCE5DF0709F489C008F4B1C080911C0300
:10461000806483C0CD309CE5D90709F4BAC070F43A
:1046200080911C038E7FCB30FCE5DF0709F475C059
:1046300008F4A7C080911C038D7F6FC0CF309CE52C
:10464000D90709F4B6C008F4A8C0C031FCE5DF07FB
:1046500009F4B3C0C131DC4509F0B1CF80911C032E
:104660008F7B5BC0CF3F9CE5D90709F4B4C098F5B8
:10467000CA3FFCE5DF0709F472C0B8F4C4319CE519
:10468000D90709F4B6C008F4A2C0C531DC4509F069
:1046900096CF80911C0382FB992790F921E0922705
:1046A00090FB82F990FB83F938C0CC3F8CE5D807AA
:1046B00009F477C008F457C0CD3FECE5DE0709F4F4
:1046C00074C080911D038360CE3FDC4509F077CF35
:1046D00080931D0374CFC1368DE5D80709F496C0C9
:1046E00068F4C130EDE5DE0709F48CC008F477C04A
:1046F000C230DD4509F063CF80E085C0CD3A9DE54D
:10470000D907E9F068F490911C03892F8E7F90FF00
:104710008160C53ADD4509F052CF80931C034FCF2D
:10472000CE3A8DE5D80789F1CF3ADD4509F047CF7C
:1047300090911D03892F877F93FF8860C9CF809157
:104740001D038860C5CF80911C038260E6CF8091F5
:104750001C038460E2CF80911C038860DECF8091CF
:104760001D038160B5CF80911D038260B1CF809120
:104770001C038061D2CF0E94910B80911C03806842
:10478000CCCF80911C038C60C8CF80911D03877FA4
:104790009FCF80911C038B7FC0CF80911C03877FAC
:1047A000BCCF80911D038E7F93CF80911D038D7FA1
:1047B0008FCF80911C038F7EB0CF80911C038F7DA3
:1047C000ACCF0E94910B80911C038F77A6CF809174
:1047D0001C03837FA2CF80911D038C7F79CF8091B2
:1047E0001D03982F909591708E7F892B90FB81F9F6
:1047F0006FCF0E94910B90911C03892F97FB87F933
:1048000080588BCF81E00E947611D9CE90911C0305
:10481000892F8F7E94FF806180CF81E0E3CEB0E06E
:10482000A0E0E5E1F4E20C94B933E82FF0E0E75AB8
:10483000F54FD490282F26952695269530E0F9013E
:10484000E750F54F0491877010E0082E02C01595CF
:1048500007950A94E2F701701127F901E751F54F26
:10486000E490F12C082E02C0F594E7940A94E2F744
:1048700091E0E922FF24F901E752F54FC491D0E01D
:1048800002C0D595C7958A95E2F7C170DD2701155D
:10489000110519F081EE0E943208E114F10419F0BB
:1048A00086EE0E9432088D2D0E943409E114F10435
:1048B00019F086EE0E94C3080115110519F081EE6A
:1048C0000E94C308CD2B19F08CE20E943409CDB7A9
:1048D000DEB7E7E00C94D533EF92FF920F931F936E
:1048E000CF93DF93EC01162F0AE08881882309F427
:1048F00054C0813009F04EC08981813099F47E0125
:1049000022E0E20EF11C8A810E943409E70121961F
:10491000812F815050F3EFE9FFE03197F1F700C0AC
:104920000000F7CF823041F47E0182E0E80EF11CF6
:104930008A810E943208EACF833041F47E01E2E0AE
:10494000EE0EF11C8A810E94C308E0CF843011F082
:104950002196DDCF2A81229690E080E0AE014F5F64
:104960005F4F2053330B2A30310548F0019778F21E
:10497000EFE9FFE03197F1F700C00000F7CF089FA3
:10498000B001099F700D1124C901860F971F29815D
:10499000EA01E4CF0E940F24BACFCDB7DEB7E6E03C
:1049A0000C94D63384E008950F931F93CF93DF9335
:1049B000843008F561111FC04730E8F4042F10E07F
:1049C000000F111F2EE0829F000D111D1124C80140
:1049D00087960E942034C82FD0E0DC2FCC27C80156
:1049E00088960E9420349E01282BC901DF91CF9127
:1049F0001F910F91089590E080E0F8CF1F93CF931F
:104A0000DF93122F8430B8F4611115C0473098F449
:104A1000C42FD0E0CC0FDD1F9EE0899FC00DD11DBB
:104A20001124632FCE0187960E943434612FCE016A
:104A300088960E943434DF91CF911F910895CF92D0
:104A4000DF92EF92FF921F93CF93DF9385ECC82EF6
:104A500082E0D82ED0E0C0E0760110E00E94A706E8
:104A600021E030E08C171D0621F01CF0F7012591A4
:104A70003491412F60E08C2F0E94FE2482E0E80EEA
:104A8000F11C1F5F173051F721968EE0C80ED11C24
:104A9000C430D10509F7DF91CF911F91FF90EF90BE
:104AA000DF90CF900895EF92FF920F931F93CF93D3
:104AB000DF93EC018A017C01E60EF71ECE0187969A
:104AC000CE15DF0529F4CDB7DEB7E6E00C94D6337A
:104AD000C833D10540F40E942034F80180830F5F71
:104AE0001F4F2196EBCFF8011082F9CFB0E0A0E084
:104AF000ECE7F5E20C94B8337C016A018C01060FF7
:104B0000171FEC01CE018796C017D10729F4CDB746
:104B1000DEB7E8E00C94D433C833D10540F4FE018D
:104B2000EE19FF09EC0DFD1D60810E9434342196C1
:104B3000E9CF462F843040F4711106C0673020F46D
:104B400060E00E94D424089590E080E0089580E120
:104B5000089581EA93E00895EF92FF920F931F93D7
:104B6000CF93DF93EC018A017C01E60EF71ECE01A4
:104B7000815A9F4FCE15DF0529F4CDB7DEB7E6E0A9
:104B80000C94D633C13A23E0D20740F40E9420347B
:104B9000F80180830F5F1F4F2196E9CFF801108243
:104BA000F9CFB0E0A0E0E7EDF5E20C94B8337C017A
:104BB0006A018C01060F171FEC01CE01815A9F4F2D
:104BC000C017D10729F4CDB7DEB7E8E00C94D43391
:104BD000C13A23E0D20740F4FE01EE19FF09EC0DC3
:104BE000FD1D60810E9434342196E7CFCF93DF937F
:104BF000CFE5D0E060E0CE010E9434342196C115AB
:104C000084E0D807B9F7DF91CF910895A4E0B0E030
:104C1000ECE0F6E20C94B933F82E8FE08F1548F1F2
:104C20008FEF93E00E942034811123C00FE510E044
:104C3000F11023C019821A821B821C82DD24D394B6
:104C400078018FEFE81AF80AC8010E94203489839E
:104C50001A82882371F09FEF980F9330D8F48A83DB
:104C6000D9820E5F1F4FC7010E9420348B838111B0
:104C700012C02496E7E00C94D533011584E01807A0
:104C8000C1F3C8010E942034811101C0FA940F5F62
:104C90001F4FCECF870160E0CE0101960E946C24A9
:104CA000CFCFCF93DF93EB0186319C4511F50E9466
:104CB000D80F9A81992399F08A7A91E009F490E0CB
:104CC0009093AD02811109C089E20E94B00F0E9449
:104CD000191080E0DF91CF91089585E3F6CF8091A0
:104CE000AD02811104C089E20E94B80FF0CF85E3C4
:104CF000FBCF81E0EFCF0F931F93CF93DF93C42FB0
:104D0000D22FFC0182818823C9F04093B0020E9417
:104D1000072B9093AF028093AE0280E28C0F883015
:104D200040F4C77081E001C0880FCA95EAF70E947D
:104D30003D09DF91CF911F910F9108951091B0021D
:104D4000141332C08091AE029091AF020E941F2BCB
:104D5000883C910548F5C0E2CD0F1D17B9F080E2FF
:104D6000810F883040F4177081E001C0880F1A95D8
:104D7000EAF70E944409C83048F481E09D2F9770FB
:104D800001C0880F9A95EAF70E943D09802F0E9482
:104D90003409C83070F6D77081E001C0880FDA9509
:104DA000EAF70E944409C5CF80E28C0F883008F6EC
:104DB000C77081E001C0880FCA95EAF7F2CF0F9360
:104DC0009C01CB01233F4CE5340759F1A8F4283D61
:104DD000FCE53F0701F1293D4CE53407D1F1273DC2
:104DE0003C4591F406E221EE41EE67ED7CE50E9440
:104DF0007B2680E00F910895253FFCE53F07E9F011
:104E0000B0F0263F3C45F9F0FC018281882339F15E
:104E10001092B002EFCF07E225EE45EE68ED7CE59B
:104E2000E6CF06E221EE40EE63EF7CE5E0CF07E25D
:104E300025EE44EE64EF7CE5DACF06E221EE42EEA9
:104E400065EF7CE5D4CF07E225EE46EE66EF7CE524
:104E5000CECF08E221E045EE69ED7CE5C8CF81E0E8
:104E6000C9CF9C013056211540E2340748F0305E2E
:104E7000211540E1340720F0315C21153F4178F4E1
:104E800099279C01245031092432310578F02752AA
:104E9000310981E02E30310550F080E008958F3FD8
:104EA000910579F370F390E080E0EBCF81E0089515
:104EB0000E94312708950E945827882381F0E091AD
:104EC000B702F0E0EE0FFF1FE854FD4F80819181A3
:104ED0008F3F2FE7920719F0019691838083089501
:104EE0008F929F92AF92BF92CF92DF92EF92FF92FA
:104EF000CF93C090B802D090B9020D2C000CEE08F0
:104F0000FF082091210130E0E8EBF2E081E090E041
:104F10003296281739070CF0A7C06091EA02709109
:104F2000EB028091EC029091ED020E942E2B4B013E
:104F30005C01C091210189EC88169104A104B1049F
:104F400014F18091B70290E0019669E170E00E944F
:104F500039338093B702880F991FFC01E854FD4F45
:104F6000118210828C2FC83108F087E18F5F809307
:104F700021010E94132B6093EA027093EB0280934D
:104F8000EC029093ED0282E0C816D104E104F10432
:104F90000CF476C0A0E6BAEEA70196010E949B33FE
:104FA0006B017C0188ECC89F90011124032E000C3A
:104FB000440B550B280D391D4A1D5B1DA5E0B0E0C3
:104FC0000E949B339B01AC01C701B6010E944D3387
:104FD00069017A0181EFC816D104E104F1042CF0D3
:104FE00080EFC82ED12CE12CF12C6091B30270918E
:104FF000B4028091B5029091B6020E942E2B4B0113
:105000005C0185E688169104A104B10484F00E9435
:10501000132B6093B3027093B4028093B502909304
:10502000B6028091EE028093B202C092B102C091AA
:10503000B202A091B102AC1BBB0BA50194010E946E
:10504000A63324E630E040E050E00E946F33C20F08
:10505000C093EE02CF91FF90EF90DF90CF90BF9082
:10506000AF909F908F90089540815181052E000C44
:10507000660B770BC40ED51EE61EF71E019648CFB1
:10508000C12CD12C7601B1CF1092B9008CE0809365
:10509000B8000895B0E0A0E0E0E5F8E20C94B53384
:1050A000B82EEB010E94072B6C01EE24E394F12C47
:1050B000C431D10560F025E0E22EF12CCF3FDC07B2
:1050C00031F0CE0164E170E00E9425337B0184EA77
:1050D000A82E94E8992E1092BC00A092BC000E94C9
:1050E000072B8C018091BC0087FF0DC08091B90017
:1050F000887F8830F9F08091B900887F8031D1F0C5
:105100000FEF1FEF08C0C8010E941F2BE816F90619
:1051100048F70EEF1FEFCF3FDC07E9F2C6010E9410
:105120001F2BC817D907B8F6C801CDB7DEB7EBE01B
:105130000C94D133B092BB009092BC000E94072B1C
:105140008C018091BC0087FF0AC08091B900887FE4
:10515000883111F08034A1F610E000E0E5CFC801FD
:105160000E941F2BE816F90660F7D3CF0F931F9309
:10517000CF93DF93EB018093BB0084E88093BC0066
:105180000E94072B8C018091BC0087FF11C02091E9
:10519000B900287F81E090E0283211F490E080E0AF
:1051A000919581959109DF91CF911F910F9108956C
:1051B000CF3FDC0741F3C8010E941F2BC817D90756
:1051C00010F78EEF9FEFEFCFB0E0A0E0EAEEF8E24D
:1051D0000C94B8336B018A017901B9010E944A2805
:1051E000E6010C0D1D1DC017D10711F097FF08C077
:1051F00024E92093BC00CDB7DEB7E8E00C94D433AB
:10520000B70189910E94B628EECFB0E0A0E0EBE0B4
:10521000F9E20C94B833C62F6A017901B8010E94F3
:105220004A2897FD0CC0B8018C2F0E94B628E601D1
:10523000EC0CFD1CCE15DF0511F097FF08C024E92A
:105240002093BC00CDB7DEB7E8E00C94D433B801AE
:1052500089910E94B628EECF84E98093BC0008951E
:105260009093D1018093D00108959093F40280939C
:10527000F3020895E091F302F091F402309729F0DF
:105280000190F081E02D0995089580E00895E09166
:10529000F302F091F402309799F020912E0122232D
:1052A00059F020911C0327FF07C0DC012C911196B7
:1052B0002C93119726E02C930280F381E02D099521
:1052C0000895E091F302F091F402309739F022E072
:1052D000DC012C930480F581E02D0995089520913F
:1052E000F1023091F2022817390771F09093F2021F
:1052F0008093F102E091F302F091F402309721F0F3
:105300000680F781E02D099508952091EF023091F4
:10531000F0022817390771F09093F0028093EF02A2
:10532000E091F302F091F402309721F00084F185CE
:10533000E02D09950895FC01329680912E01882375
:1053400021F080911C039EE187FF96E080E0915060
:1053500008F4089521912223D1F38F5FF8CF6623BB
:1053600001F120912E012223F1F020911C0327FF4F
:105370001AC0462F4695469546954E3190F4677073
:1053800021E030E002C0220F331F6A95E2F7840F5C
:10539000911DFC01828190E02823392381E0232B99
:1053A00069F480E00895FC01329608962191261751
:1053B00021F0E817F907D1F7F4CF81E008959C01B7
:1053C000FC0132969FEF80E04191461751F09F3FDC
:1053D00019F4411101C0982F8F5F8630A9F79F3FC4
:1053E00009F40895290F311D97FD3A95F90162835B
:1053F0000895FC01329608962191261303C0DF011F
:1054000011971C92E817F907B9F70895E62FE6956A
:10541000E695E695EE3168F4E80FF92FF11D677017
:1054200021E030E001C0220F6A95EAF78281822BE9
:1054300082830895E62FE695E695E695EE3170F4C1
:10544000E80FF92FF11D677021E030E001C0220F55
:105450006A95EAF720958281282322830895209176
:105460002E01222339F020911C0327FF03C00E9444
:10547000062A08950E94DF29089520912E012223F3
:1054800039F020911C0327FF03C00E941A2A0895B7
:105490000E94F9290895FC01329680912E018823FB
:1054A00051F080911C0387FF06C08EE1DF011D9241
:1054B0008A95E9F7089586E0F9CF46E050E00E942A
:1054C0000A3421E0892B09F420E0822F0895089501
:1054D0000E94672A0895811106C081E08093F50239
:1054E0000E94682A089582E0F9CF83E08093F50254
:1054F0000E94682A08950E946B2A089581E0809393
:10550000F5020E94682A08950E947E2A089508954F
:1055100008950E94882A0895089508950E94872A70
:1055200008950E948C2A0E94D7140E948D2A80E040
:105530000E94551491E0811101C090E0892F0895D7
:1055400085B7806885BF85B7806885BF08951F923D
:105550001FB61F9211248F939F93AF93BF93809197
:10556000F602811113C080913A0590913B05A091FC
:105570003C05B0913D054196A11DB11D80933A05B2
:1055800090933B05A0933C05B0933D05BF91AF912F
:105590009F918F911F901FBE1F901895809142057B
:1055A000843031F10E94A6071092F60288E190E063
:1055B00020E40FB6F894A895809360000FBE209366
:1055C000600083B7817F846083BF83B7816083BFBE
:1055D0007894889583B78E7F83BF0FB6F894A8958B
:1055E00080916000886180936000109260000FBE1F
:1055F00008950E94910B0E94AD07089582E084BD3A
:1056000093E095BD9AEF97BD80936E0008952FB7F4
:10561000F89480913A0590913B05A0913C05B0919A
:105620003D052FBF08952FB7F89460913A0570910A
:105630003B0580913C0590913D052FBF08959C014D
:105640004FB7F89480913A0590913B05A0913C05A5
:10565000B0913D054FBF821B930B0895CF92DF920F
:10566000EF92FF922FB7F894C0903A05D0903B0587
:10567000E0903C05F0903D052FBFA7019601261B49
:10568000370B480B590BCA01B901FF90EF90DF901F
:10569000CF90089578941F921FB61F9211248F9374
:1056A0009F93AF93BF9380913A0590913B05A09152
:1056B0003C05B0913D050196A11DB11D80933A05B1
:1056C00090933B05A0933C05B0933D05BF91AF91EE
:1056D0009F918F911F901FBE1F90189587E797E7A6
:1056E000909301088093000888E19AE00FB6F8943F
:1056F000A895809360000FBE90936000FFCF88E173
:105700009AE00FB6F894A895809360000FBE90932E
:105710006000FFCF80911A03089508959C0184E0F2
:105720008093E9009FEF8091E800915085FD06C0CD
:1057300085ED8A95F1F700009111F5CF8091E80091
:1057400085FF0CC050E040E066E070E0C9010E94B7
:10575000352E8091E8008E778093E8000895CF93EE
:10576000DF93EC0180912E018823B1F180911C031D
:1057700087FF32C060E284E08093E9008FEF909170
:10578000E800815095FD06C095ED9A95F1F700006F
:105790008111F5CF8091E80085FF1BC080912E011B
:1057A00070E050E040E0811104C050E040E068E06B
:1057B00070E0CE010E94352E8091E8008E778093B4
:1057C000E80080E2FE01AAEFB2E001900D928A9516
:1057D000E1F7DF91CF91089568E081E0CDCF80932C
:1057E000F7027093F9026093F802809142058430C9
:1057F000F9F48093E9008FEF9091E800815095FDD6
:1058000006C095ED9A95F1F700008111F5CF8091D2
:10581000E80085FF0DC050E040E063E070E087EFF6
:1058200092E00E94352E8091E8008E778093E80008
:105830000895BC0184E00E94EF2B0895BC0183E031
:105840000E94EF2B0895CF93FC01603221F58091E7
:105850004205843001F5C091E900CF702091EC0041
:10586000922F917020FD90E8C92B82E08093E9008F
:105870008091E80080FF0CC050E040E060E270E002
:10588000CF010E94352E8091E8008E778093E8004A
:10589000CF70C093E900CF910895809141058111A7
:1058A00009C00E9414300E9471308091E20084602F
:1058B0008093E20008951092410508950E947E2A87
:1058C000089560913E0581E0611101C080E00E9471
:1058D000752A08959091420581E0943009F080E0A6
:1058E00060913E050E947B2A089542E061EC81E0D0
:1058F0000E94902F42E261EC84E00E94902F42E2ED
:1059000061EC82E00E94902F42E260EC83E00E9412
:10591000902F9091420581E0943009F080E06091F1
:105920003E050E946B2A089580914405833009F456
:1059300063C030F48130E1F1823009F4A0C00895F1
:105940008A3009F48CC08B3009F471C0893009F0B9
:1059500052C080914305813209F04DC080914705C6
:1059600090914805009719F0029709F044C0809182
:10597000E800877F8093E8008091E80082FF37C0CD
:105980009091F3008091F200029731F48091F10040
:10599000813011F0863021F48091F10080931A0358
:1059A0008091E8008B778093E8000E94C42F23C089
:1059B00080914305813AF9F48091E800877F8093D4
:1059C000E8008091470590914805892B61F460E2D9
:1059D0008AEF92E070E00E94D32E8091E8008B77EE
:1059E0008093E800089560E090E080E0F3CF80913C
:1059F00042058111C1CF089580914305813AD9F7BD
:105A00008091470590914805892BA9F78091E8007E
:105A1000877F8093E8008091E80080FFFCCF809131
:105A20002E018093F1008091E8008E77BCCF8091A9
:105A30004305813201F78091470590914805892BF4
:105A4000D1F68091E800877F8093E8000E94C42F00
:105A50008091450580932E010E94910B08958091BD
:105A60004305813241F68091E800877F8093E8000A
:105A70000E94C42F8091460580931B030895809156
:105A80004305813A09F0B7CF8091E800877F809382
:105A9000E8008091E80080FFFCCF80911B03C1CF1C
:105AA00084B7877F84BF0FB6F894A8958091600073
:105AB000886180936000109260000FBE80E890E0E3
:105AC0000FB6F89480936100909361000FBE0E941E
:105AD000842A08950E9414300E947130E2EEF0E0B2
