:100000000C94D3050C94F0050C94F0050C94F005B9
:100010000C94F0050C94F0050C94F0050C94F0058C
:100020000C94F0050C94F0050C945E2C0C94322D7D
:100030000C9491260C94F0050C94F0050C94F005AA
:100040000C94F0050C94F0050C94F0050C94F0055C
:100050000C94F0050C9418270C94F0050C94F00502
:100060000C94F0050C94F0050C94F0050C94F0053C
:100070000C94F0050C94F0050C94F0050C94F0052C
:100080000C94F0050C94F0050C94F0050C94F0051C
:100090000C94F0050C94F0050C94F0050C94F0050C
:1000A0000C94F0050C94F0050C94F0056F746865E1
:1000B0007200464E0A004D656469610A004C617920
:1000C00065723A20000000000000000000000000FF
:1000D0000000000000000000000000000000000020
:1000E0008080C0C0C0E0E0E0C0C0C0C0C0800000F0
:1000F0000000000000000000000000000000000000
:1001000000000000000000000000000000000000EF
:1001100000000000000000000000000000000000DF
:1001200000000000000000000000000000000000CF
:1001300000000000000000000000000000000000BF
:10014000000000000000000000000000000000802F
:100150008080800000000000000000E0F8FCFEFF4E
:100160003F1FCFCFE7E7F3F3E7C787033379FC7E81
:100170007EBE98C0808000000000000000000000EB
:10018000000000000000000000000000000000006F
:10019000000000000000000000000000000000005F
:1001A000000000000000000000000000000000004F
:1001B000000000000000000000000000000000003F
:1001C0000000000000000000000000387CFEFFFF7F
:1001D000FFFFFFFFFFFFFFFFFFFFFFFFFFFFFFC06E
:1001E000001F3F7FFFFFFFFFFF7F3F1F0000001E3C
:1001F0001F1F1F0F0F0F0F0E0E0E0E0E0E0E0E0EE8
:100200000E0E0E0E0E0E0E0E0E0E0E0C0C0C0C0C18
:100210000C1C1C1C1C1C1C1C1C1C1C1C1C1C1C1832
:1002200018181818181818181818181838383838CE
:10023000383838383838383830303030300000000E
:1002400000000000000000000000000000000101AC
:100250000307070707070707070303030303030150
:10026000000000000000000000000000000000008E
:10027000000000000000000000000000000000007E
:10028000000000000000000000000000000000006E
:10029000000000000000000000000000000000005E
:1002A000000000000000000000000000000000004E
:1002B000000000000000000000000000000000003E
:1002C0000000000000AC00AB0001502800A800A90D
:1002D00000AA00010001000100010001000100016D
:1002E00000000101010101010101010202020202FB
:1002F00002020202030303030303030304040404CE
:100300000404040505050505060606060607070795
:10031000070708080808090909090A0A0A0B0B0B4C
:100320000C0C0C0D0D0D0E0E0E0F0F0F10101111E9
:10033000111212131314141515161617171818196D
:10034000191A1A1B1B1C1D1D1E1E1F2020212222D4
:10035000232424252626272829292A2B2C2D2D2E17
:100360002F30313232333435363738393A3B3C3D31
:100370003E3F404142434445464748494A4C4D4E22
:100380004F50515354555658595A5B5D5E5F6162E8
:1003900064656668696B6C6D6F7072737577787A77
:1003A0007B7D7E8082838587888A8C8E8F919395D2
:1003B00096989A9C9EA0A2A3A5A7A9ABADAFB1B3F6
:1003C000B5B7BABCBEC0C2C4C6C9CBCDCFD1D4D6D6
:1003D000D8DBDDDFE2E4E7E9EBEEF0F3F5F8FAFD78
:1003E000FF00AE00AF00DA0281FFD9F1DB20A4A646
:1003F0002EAF00A0C000A1C800AED580A81FD300BA
:10040000408D14200007087F0807003E5B4F5B3ECD
:10041000003E6B4F6B3E001C3E7C3E1C00183C7E39
:100420003C18001C577D571C001C5E7F5E1C0000A2
:10043000183C180000FFE7C3E7FF0000182418006D
:1004400000FFE7DBE7FF0030483A060E0026297977
:10045000292600407F05050700407F05253F005AFB
:100460003CE73C5A007F3E1C1C0800081C1C3E7FD9
:100470000014227F2214005F5F005F5F0006097F87
:10048000017F00006689956A00606060606000948A
:10049000A2FFA2940008047E04080010207E201011
:1004A0000008082A1C0800081C2A0808001E101052
:1004B0001010000C1E0C1E0C0030383E38300006A8
:1004C0000E3E0E060000000000000000005F00006D
:1004D00000000700070000147F147F1400242A7F07
:1004E0002A12002313086462003649562050000087
:1004F0000807030000001C224100000041221C00EC
:10050000002A1C7F1C2A0008083E08080000807092
:1005100030000008080808080000006060000020A3
:1005200010080402003E5149453E0000427F400051
:10053000007249494946002141494D3300181412BF
:100540007F10002745454539003C4A494931004163
:100550002111090700364949493600464949291EF3
:1005600000000014000000004034000000000814E7
:100570002241001414141414000041221408000233
:1005800001590906003E415D594E007C1211127C52
:10059000007F49494936003E41414122007F4141A7
:1005A000413E007F49494941007F09090901003E58
:1005B00041415173007F0808087F0000417F4100DE
:1005C000002040413F01007F08142241007F40404D
:1005D0004040007F021C027F007F0408107F003E25
:1005E0004141413E007F09090906003E4151215E1B
:1005F000007F091929460026494949320003017F35
:100600000103003F4040403F001F2040201F003FAB
:100610004038403F00631408146300030478040367
:10062000006159494D4300007F41414100020408E7
:10063000102000004141417F0004020102040040FB
:100640004040404000000307080000205454784018
:10065000007F284444380038444444280038444447
:10066000287F0038545454180000087E09020018EE
:10067000A4A49C78007F080404780000447D400016
:10068000002040403D00007F102844000000417FD2
:100690004000007C04780478007C0804047800386A
:1006A0004444443800FC182424180018242418FC5E
:1006B000007C080404080048545454240004043FF7
:1006C0004424003C4040207C001C2040201C003C76
:1006D0004030403C004428102844004C9090907CCE
:1006E000004464544C440000083641000000007788
:1006F0000000000041360800000201020402003C34
:100700002623263C00000000000000404040F0F896
:10071000F8FF38FFF8F83FF8F8FF38FFF8F8F04036
:10072000404000000000000080C0C0C0800000C049
:10073000C08000000080C0C000C0C0000080C0C0F9
:100740000000000000C0C0C0C0C000C0C000000069
:100750000000000000000000000000000000000099
:100760000000000000000000000000000000000089
:100770000000000000000000000000000000000079
:1007800000000000C0F0F8FC3E1E06010000007FE3
:100790004141417F007F4141417F000080C0E07EB8
:1007A0005B4F5BFEC00000C000DCD7DEDEDED7DCC6
:1007B00000C0000000000000000000000000000079
:1007C0000000000000000000000000494949FFFF50
:1007D000FFFFE0DFBFBF00BFBFDFE0FFFFFFFF495C
:1007E000494900000000001F3F6060E0BF1F007F1C
:1007F0007F071E381E077F7F007F7F0E1F3B7160C3
:1008000000000000007F7F0C0C0C007E7E007F7ECD
:100810000303007F7E03037E7E03037F7E000F3E83
:10082000703C063C703E0F00327B49493F7E007FA2
:100830007E0303001E3F69696F2600000000000070
:1008400000000000030F1F3F3C7870600000007F35
:100850004141417F007F4141417F00307B7F7830C3
:10086000202030787F3B0003000F7F0F0F0F7F0F9A
:100870000003000000000000000000000000000075
:100880000000000000000000000000010101070F4F
:100890000F7F0F7F0F0F7E0F0F7F0F7F0F0F07014F
:1008A0000101000000000000000000000101000044
:1008B0000000000000000000000000000000000038
:1008C0000000000000000000000000000000000028
:1008D0000000000000000000000000000000000018
:1008E0000000000000000000000000000000000008
:1008F00000000000000000000000000000000000F8
:1009000000000000000000000000000000000000E7
:1009100000000000000000000000000000000000D7
:1009200000000000000000000000000000000000C7
:1009300000000000000000000000000000000000B7
:10094000000000000000000000000000002A2B282A
:100950000000000000000000000000000000000097
:1009600029000000002C1E342021222434262725B3
:100970002E362D3738271E1F2021222324252633EB
:1009800033362E37381F0405060708090A0B0C0DED
:100990000E0F101112131415161718191A1B1C1DFF
:1009A0002F3130232D350405060708090A0B0C0DDD
:1009B0000E0F101112131415161718191A1B1C1DDF
:1009C0002F3130354C000000000000000000000016
:1009D0000000000000000000000000000000000017
:1009E0000000000000000000007E0F00D4FFFFFFA9
:1009F000C70000007818036300720069006D00737F
:100A0000006F006E00200070006100640000000CA8
:100A100003740069006D0061006C000000040309AC
:100A20000409025B00030100A0FA090400000103AD
:100A30000101000921110100012240000705810385
:100A4000080001090401000203000000092111014E
:100A5000000122220007058203200001070503038D
:100A60002000010904020001030000000921110116
:100A7000000122B6000705840320000112010002D4
:100A800000000008EDFE6260010001020001066046
:100A9000FF0961A1010962150026FF009520750874
:100AA00081020963150026FF00952075089102C098
:100AB00005010902A10185020901A1000509190129
:100AC00029081500250195087501810205010930E5
:100AD00009311581257F9502750881060938158130
:100AE000257F950175088106050C0A3802158125B8
:100AF0007F950175088106C0C005010980A10185A7
:100B00000319012AB700150126B700950175108158
:100B100000C0050C0901A101850419012AA00215D4
:100B20000126A002950175108100C005010906A1EA
:100B3000018506050719E029E715002501950875C7
:100B40000181020507190029EF1500250195F075AF
:100B50000181020508190129059505750191029584
:100B60000175039101C005010906A101050719E0FE
:100B700029E7150025019508750181029501750881
:100B800081010507190029FF150026FF009506754C
:100B9000088100050819012905950575019102953F
:100BA0000175039101C011241FBECFEFDAE0DEBF53
:100BB000CDBF11E0A0E0B1E0E6ECFFE502C005909A
:100BC0000D92A63AB107D9F724E0A6EAB1E001C038
:100BD0001D92AB3DB207E1F70E94B2140C94B82FFE
:100BE0000C94000060E08DEB90E00E94E21D80918B
:100BF000B1010E942007882341F0813099F060E024
:100C00008CEA90E00E94F41D05C060E086EB90E065
:100C10000E94E21D60E072E085EC90E00E94FA1D07
:100C200080E0089560E082EB90E0F2CF81FF03C0A6
:100C3000249A2C9808952498FCCF82E0089581E0AE
:100C4000089581E008950E942106089508950E9464
:100C500026060895A5E0B0E0E0E3F6E00C94292F25
:100C600049835A833091AD0189819A81311119C02C
:100C7000662399F0222389F00E94280C182F682FF0
:100C800089819A810E940D0C69817A81812F0E944D
:100C900096222596E3E00C94452F0E941A0C182FFB
:100CA000F3CF0E94280C69817A81F1CFFC01262FB5
:100CB000408151816281738184810E942A06089556
:100CC00081E00895CF93DF93EC0160E00E94560627
:100CD000BE010E942706DF91CF910895E1E0F0E088
:100CE000DF0102C0AA0FBB1F6A95E2F7BD01DF0159
:100CF00002C0AA0FBB1F4A95E2F76A2B01C0EE0F94
:100D00002A95EAF7962F9823961302C08E2B089502
:100D1000E0958E230895242F462F682F8091B101EE
:100D20000E946E060E946D0B08950E94B8130895EC
:100D30000E94BC13089508950E94FF0A0E949B061A
:100D40002FEF84E39CE0215080409040E1F700C009
:100D5000000008950E949C060E943C2708950E946E
:100D60009C060E944D2708950F931F93CF93DF9306
:100D70008C0161E00E945606EC01B8010E94261B1E
:100D8000811106C080E0DF91CF911F910F910895EE
:100D9000B801CE010E9423068823A1F3B801CE0139
:100DA0000E94DC23882371F3B801CE010E949E1FAC
:100DB000882341F3B801CE010E944E23882311F30A
:100DC000B801CE010E941C1A8823E1F2F801828149
:100DD000882361F0CA35FDE5DF0701F158F4C1153C
:100DE000ECE5DE0791F0CE3DDC4591F0C8010E94B4
:100DF0001F06C9CFCC358DE5D80769F090F0C73A0A
:100E0000DD45A1F70E94AF06BDCF0E94AA06BACF6A
:100E10000E94E110F7CF0E941B10E8CF0E9425101E
:100E2000E5CF0E942910E2CF0E9473260E9443075B
:100E30000E94561F08950E9447070E947826089531
:100E4000982F92959F7011F0892F94E0282F269566
:100E5000269511F09E5F822F869509F09F5F892F5E
:100E600008950E941606089581E008950E943407AF
:100E700008950895CF93C82F0E9431078C2F0E94A8
:100E80003607CF91089580E00E943A0708950E94A6
:100E900024250E943A070895CF930E942425C82F45
:100EA0008091A8018C1779F0C093A8010E94FD26BB
:100EB0006093A9017093AA018093AB019093AC0158
:100EC0008C2F0E943A07CF910895ABE0B0E0EBE69B
:100ED000F7E00C942A2F4F83588769877A878B878E
:100EE00061110E94660F1E821D8285E0FE01379609
:100EF000DE01119601900D928A95E1F78C819D811A
:100F0000892B61F449815A816B817C818D819E811D
:100F10000E948F0E2B96E2E00C94462F89819A81D5
:100F200089238F3F79F3CE0101960E9460068111DB
:100F3000E9CFF0CFFC01808191810E94550C08958A
:100F4000CF93C82F8823C9F08238C9F40E94242582
:100F500081FD13C089E30E941E0F0E94870F2FEFAF
:100F600087EE93E0215080409040E1F700C0000000
:100F700089E30E94260F0E94870FCF91089583383E
:100F8000A1F40E94242580FDF8CF83E50E941E0F66
:100F90000E94870F2FEF81EE94E021508040904017
:100FA000E1F700C0000083E5E4CF8438A1F40E949B
:100FB000242582FDE2CF87E40E941E0F0E94870F46
:100FC0002FEF81EE94E0215080409040E1F700C087
:100FD000000087E4CECF8CEF8C0F813A90F46C2F19
:100FE00080910001909101010E949925882329F0A8
:100FF0008C2F0E94260F0E94870F8C2F0E941E0F9D
:10100000BACF80E28C0F883048F4C77081E001C00D
:10101000880FCA95EAF70E94490FADCFEBE5EC0FB8
:10102000E33040F4F0E0EF5AFE4F808190E00E9400
:101030005925A3CFE8E5EC0FE73150F4F0E0EE0FCF
:10104000FF1FED5DFE4F808191810E946F2595CF3E
:10105000C03F08F492CF8C2F0E9436150E940916CB
:101060008CCF882309F455C0823879F40E94242556
:1010700081FF4FC089E30E941E0F0E94870F89E302
:101080000E94260F0E94870F0895833859F40E940A
:10109000242580FF3EC083E50E941E0F0E94870F1B
:1010A00083E5EECF843859F40E94242582FF31C0B5
:1010B00087E40E941E0F0E94870F87E4E1CF9CEF18
:1010C000980F913AE8F290E2980F983050F48770B8
:1010D00091E001C0990F8A95EAF7892F0E944F0F7E
:1010E000D1CF9BE5980F933028F490E080E00E94E8
:1010F0005925089598E5980F973128F490E080E0FD
:101100000E946F250895803F20F00E9490150E9454
:10111000091608951F93CF93DF93182FEB010E94B8
:10112000A007209739F4812F0E943108DF91CF91D9
:101130001F9108958FE99FE00197F1F700C000002B
:101140002197EFCF70E060E0893311F460E570E043
:101150000E948A080895882321F00E94490F0E9466
:10116000870F0895882321F00E944F0F0E94870F58
:101170000895B0E0A0E0EFEBF8E00C94232F6C01B1
:10118000D62FC72FFC011281F580F2949FE0F9223F
:101190000E943F0FE82E8823B9F0E12E1123A1F021
:1011A0008C2F807F803421F080E28D0F8830D0F04A
:1011B0008091AD0282FF16C082E00E94EA0F0E9479
:1011C0003F0F91E0E82EE926BC2EB2948FE0B822C2
:1011D000FBE0FB1508F468C0EB2DF0E0E654F04DA1
:1011E0000C940D2FE12CF0CF0C2F0F70C07F11F05D
:1011F0000295007F112399F0002359F080E28D0FB2
:10120000883010F0D11107C0802F0E94490F0E9432
:10121000870F8D2F41C0802F0E94590FF8CF8D2F3F
:101220000E943108002309F43FC080E28D0F88300E
:1012300010F0D11104C0802F0E944F0F03C0802FE7
:101240000E945F0F0E94870F2FC00C2F0F70C07F6E
:10125000C03211F00295007FDD2381F0D13009F416
:1012600063C0112309F46DC0FF2009F463C0F601C7
:10127000858180FFCECF8F7085835CC08091AD0269
:1012800082FD33C0112359F0002329F0802F0E94E2
:10129000490F0E94870F80E00E94A00705C080E0F0
:1012A0000E9431080111C7CFEB2DE850FF0B349796
:1012B00020F40E9424250E943A07EE2089F00E9423
:1012C0003B0F80FD0DC0F60112820E94350F0E9477
:1012D000810BC6010E94BF0A0E94350F0E948D0B30
:1012E000CDB7DEB7E9E00C943F2F112389F0F11060
:1012F00006C00E94690F802B0E94AB08D5CF21E069
:10130000F212F7CF0E94690F802B0E94700FCCCF92
:10131000F11006C00E947D0F802F0E94B208C4CF3A
:1013200031E0F31609F2F6CF112331F085E08F1585
:1013300008F4BACF802FE0CF94E09F1508F4B4CF23
:10134000EBCFFF2049F3D93349F4FFEF27EE33E029
:10135000F15020403040E1F700C000008D2F0E9486
:101360003108A2CF8C2F86958695837069F08130E5
:1013700009F09ACF8D2F9C2F9370111102C090E02D
:1013800080E00E946F2590CF8D2F9C2F93701111BC
:1013900002C090E080E00E94592586CF8D2F112356
:1013A00029F00E9436150E9409167ECF0E949015E2
:1013B000FACF8C2F837079F5111176CF4D2F42958E
:1013C00046954770440F440F8D2F8F70042E01C037
:1013D000880F0A94EAF72D2F2071D4FF07C02FE061
:1013E00030E001C0220F4A95EAF72095C695C695D0
:1013F000C370822BC23049F058F4C13019F00E94FA
:101400005B0B52CF0E94550B4FCF0E94610B4CCF0C
:101410000E94520B49CF8695112311F08C2F8170B9
:10142000882309F441CF4D2F429546954770440FCC
:10143000440F8D2F8F70042E01C0880F0A94EAF795
:101440002D2F2071D4FF07C02FE030E001C0220F04
:101450004A95EAF72095C695C695C370822BC2308F
:1014600049F058F4C13019F00E94AC0B1DCF0E9416
:10147000A60B1ACF0E94B20B17CF0E946D0B14CF90
:10148000CF70112329F08C2F0E94810B8D2F34CF28
:101490008D2F0E94B2088C2F0E948D0B05CFD23F5A
:1014A00051F160F4D03FB9F0D13F81F0112309F43C
:1014B00049C0F110AECE8C2F8F7121C0D33F11F1F6
:1014C000D43FA1F78091AD0282FD26C08C2F8F7191
:1014D000112311F314C0112349F084E08F1508F48F
:1014E000E3CE8C2F8F710E949A0BDECE95E09F1574
:1014F00008F4DACEF6CF8C2F8F711111CDCF0E9468
:10150000810BD2CE112329F08C2F8F710E94780B82
:10151000CBCE0E94740BC8CE112349F0CF718C2F13
:101520000E94810B63E08C2F0E94CC0FBDCE81E026
:101530000E94EA0FE1E0EF1508F0B6CE82E00E94CB
:10154000EA0FB2CEF110FFCE8C2F8F71A5CF0F9383
:101550001F93CF93DF93EC01688179818A810E9488
:10156000600C8C010E94B80B0E94510BB801CE0197
:101570000E94B908DF91CF911F910F910895CF93E9
:10158000DF93EC018B819C81892B29F088819981E3
:1015900089238F3F51F4DF91CF910895CE010E94AE
:1015A000A70ACE010E946206F6CFCE010E94B406C1
:1015B0008111F4CF0E943F0F882369F38A81882329
:1015C00051F38091AD0282FFE6CF82E00E94EA0FE4
:1015D000E2CF90E080E00E94592590E080E00E94F8
:1015E0006F250E94660F0E94870F0E9425160E9499
:1015F000091608950E942E0F0E94E90A08950E947C
:10160000560F0E94FA0A089592959F70963091F0B5
:1016100058F4925F9F70923058F4803F19F030F484
:10162000883E30F481E008959A5FF4CF843FD1F38F
:1016300080E00895883EB0F3813FD1F7F3CFFC01FD
:1016400083819481892B29F08081918189238F3F27
:1016500011F480E00895808191810E94550C0E94D0
:10166000040B0895A5E0B0E0E8E3FBE00C942A2F1A
:101670002596E2E00C94462FA6E0B0E0E2E4FBE021
:101680000C942A2F2696E2E00C94462F08950E948F
:10169000460B08950E94470B8093B2010E94E90A0D
:1016A000089508950E944A0B08959091B201892BE4
:1016B0000E944A0B08959091B20189230E944A0B1F
:1016C00008959091B20189270E944A0B08950E94C3
:1016D000460B08950E94670B08950E946A0B809341
:1016E000B1010E94E90A089580E00E946D0B0895FF
:1016F00091E001C0990F8A95EAF7892F0E946D0B3E
:10170000089521E030E001C0220F8A95EAF7809128
:10171000B101822B0E946D0B089521E030E001C0E1
:10172000220F8A95EAF720958091B10182230E94C9
:101730006D0B089521E030E001C0220F8A95EAF791
:101740008091B10182270E946D0B08959091B101A3
:10175000892B0E946D0B08959091B10189230E94FD
:101760006D0B08959091B10189270E946D0B08952A
:101770000895262F277091E001C0990F2A95EAF766
:1017800023E0769567952A95E1F7FB01EE0FFF1FA1
:10179000E60FF71FE40FF51F50E040E0682F70E000
:1017A0008191DF0111979B01042E02C03695279588
:1017B0000A94E2F7217021952827292328272C93C2
:1017C0004F5F5F4F4330510559F70895A82FA77019
:1017D00023E0969587952A95E1F7FC01EE0FFF1F10
:1017E000E80FF91FE60FF71F50E040E080E021917D
:1017F00030E00A2E02C0369527950A94E2F7217050
:101800003327042E01C0220F0A94EAF7822B4F5F80
:101810005F4F4330510559F70895262F911109C0A4
:10182000873038F4682F70E04EEA51E0822F0E9432
:10183000B90B089591110AC0873030F46EEA71E057
:1018400090E00E94E60B982F892F089590E0FCCF3E
:10185000CF92DF92FF920F931F93CF93DF936C0190
:101860000091B1018091B201082BC7E0D0E010E0F7
:10187000FC2EC8010C2E02C0959587950A94E2F7BC
:1018800080FD0CC02197A0F7F12C8F2DDF91CF9117
:101890001F910F91FF90DF90CF900895B6018C2F8C
:1018A0000E949312019771F3F0CFCF93DF93EC0175
:1018B0000E94280CBE010E949312DF91CF910895DF
:1018C0001F93CF93DF93EB019091AD01992339F0F2
:1018D000CB010E94550CDF91CF911F910895882371
:1018E00069F0CB010E94280C182F682FCE010E94AE
:1018F0000D0CBE01812F0E949312EDCFCB010E94EF
:101900001A0C182FF6CF1F93CF93DF93C091B3011A
:1019100016E08091B4018C1304C0DF91CF911F9128
:101920000895D0E01C9FF0011D9FF00D1124EB5491
:10193000FE4F4081518162817381848195810E9433
:101940003C0B2196C770E5CF4091E5015091E6012F
:101950006091E7017091E8018091E9019091EA01BD
:101960000E943C0B08951F93CF93DF938091EA016F
:10197000807F09F049C08091E701882309F444C0C1
:101980008091B301C091B4016091E5017091E601CD
:10199000A091E801B091E901D62FD72316E0C8172E
:1019A00099F190E0109711F0DF3F19F401968770DC
:1019B000F6CF189F9001199F300D1124F901EB54B7
:1019C000FE4F41814713F2CF40814613EFCF428152
:1019D0004111ECCF438154814A1B5B0B483C5105BC
:1019E00028F78091EA018F7080618093EA01F90104
:1019F000E654FE4F80818F708061808385EE91E098
:101A00000E94BF0A0E94830CDF91CF911F9108951D
:101A1000A1E1B0E0EEE0FDE00C94222F8C0185E026
:101A2000F801DE011D9601900D928A95E1F7F8010B
:101A3000E28085EEC82E81E0D82E6091E801709199
:101A4000E9016115710509F44EC19091E5012091FC
:101A5000E601892F82238F3F09F445C140815181DE
:101A6000A380B480F090E701F501E61BF70BFF209F
:101A700009F4EAC08091EA01382F307FE83CF10593
:101A800008F0A3C031116DC0FE2C251316C09413AD
:101A900014C0E11012C08F7080618093EA010E942F
:101AA000A40CC6010E94BF0A8091EA01F801858357
:101AB0008F2D6196EAE00C943E2FA114B10429F019
:101AC000842F85238F3F09F027C180E0F82FF17024
:101AD000DF2E80FF3CC08091B3012091B40136E03D
:101AE000821315C04D875E878D859E850E94550C9B
:101AF000292F22952F702230F0F0243018F59F7096
:101B0000F1F0F8019581907FD1F4D12C1EC090E0C6
:101B1000389FF001399FF00D1124EB54FE4F618185
:101B2000651306C06081641303C06281E6120FC0B2
:101B300001968770D5CF9F7011F0882331F3805EB6
:101B4000883018F3C8010E94BF0AFD2CB1CFEE20E7
:101B500009F4AECF8091EA0181608093EA01F12C13
:101B6000A7CF251306C0941304C0F801EE2009F492
:101B700087C0C8010E941F0B882319F1EE2009F1CC
:101B80008091EA01803270F02091E5013091E60108
:101B900038872F831986BB86AA868C87CE01079645
:101BA0000E94BF0A86E0F801A5EEB1E001900D9217
:101BB0008A95E1F70E94B30C0E94A40CFF24F394D1
:101BC00077CFC8010E94BF0AF9CF311113C07A2D17
:101BD000B98AA88A6E2D89890E94320B85EE91E020
:101BE0000E94BF0A86E0F60111928A95E9F70E94E9
:101BF000A40CB5CF25130FC094130DC0E1100BC07A
:101C0000F8018583C8010E94BF0A86E0F60111929F
:101C10008A95E9F74DCFC8010E941F0B882389F2EE
:101C2000EE2079F28091EA01803208F4BBCF209156
:101C3000E5013091E6013A8329831B82BD82AC82A3
:101C40008E83CE010196ACCFE83CF10508F03EC092
:101C5000FE2CEE2009F4B5CF25132AC0941328C01A
:101C60008091EA0180FD1BC0982F907FC1F0F801A0
:101C70008583903F31F0982F907F905F8F70892BF4
:101C80008583C8010E94BF0A86E0F801A5EEB1E095
:101C900001900D928A95E1F70E94A40C09CF86E08D
:101CA000F801A5EEB1E001900D928A95E1F700CF21
:101CB000C8010E941F0B811175CF8091EA018160DC
:101CC0008093EA01C8010E94BF0AF2CE7A2DB98A38
:101CD000A88A6E2D89890E94320B86E0F601119246
:101CE0008A95E9F7D9CFEE2009F46BCFC8010E949D
:101CF0001F0BF82E882309F464CF86E0F801A5EEC7
:101D0000B1E001900D928A95E1F785EE91E00E9495
:101D10009A070E94B30CC0CF81E08E25D7CEACE0ED
:101D2000B0E0E5E9FEE00C94292F4F8358876987DE
:101D30007A878B879C87CE0107960E94080D88239F
:101D400069F08A859B85892B39F04F815885842FCE
:101D500085238F3F09F06BC016E05FC086E0FE016F
:101D60003796DE01119601900D928A95E1F78A85EA
:101D70009B85892B89F38F81988589238F3F61F318
:101D80002091B40130E0C9010196877099274091F4
:101D9000B3014817190671F40E94FF0A1092B401AA
:101DA0001092B30186E0E5EEF1E0DF011D928A9525
:101DB000E9F7D2CF96E0929FD001939FB00D112406
:101DC000AB54BE4FFE01319601900D929A95E1F70A
:101DD0008093B4010E94830CBFCF819FC001112466
:101DE0008B549E4F0E94080D8823E9F0E091B301C7
:101DF0001E9FF0011124EB54FE4F408151816281FE
:101E00007381848195810E943C0B8091B30190E0A5
:101E10000196877099278093B3018091B3019091C7
:101E2000B4018913DACF2C96E3E00C94452F698531
:101E30007A858B859C850E943C0B8ECF682F809184
:101E40000001909101010E9419260895682F809148
:101E50000001909101010E942726089580910001C0
:101E6000909101010E943526089580910B0285957D
:101E700085958595089580910B02877008959091BE
:101E80000B02977081E009F480E0089580912E02A2
:101E9000089590912E02892B80932E0208958095AB
:101EA00090912E02982390932E02089510922E0264
:101EB000089590912D02892B80932D02089580958D
:101EC00090912D02982390932D02089510922D0247
:101ED000089580910C02089508950E946C0F089552
:101EE0009091AD0292FF08C090910C02981721F0DA
:101EF00080930C020E946D0F089580910C0288233C
:101F000029F010920C0280E00E946D0F0895CF938B
:101F1000DF93E0910001F091010180912E02808316
:101F2000E0910001F0910101808190912D02892BB7
:101F3000808390910C02992381F0E0910001F0914F
:101F400001018081892B80838091000190910101A2
:101F50000E94852581110E947D0FC0910001D091C2
:101F6000010140E250E06BEE71E0CE010E945A2F79
:101F7000892B59F080E2FE01ABEEB1E001900D92A9
:101F80008A95E1F7CE010E943125DF91CF91089526
:101F900008950E94C80F08959091AD0292FF11C05C
:101FA00098E0899F90011124622B60930B020E949C
:101FB000810B80910B028595859585950E94C90FAF
:101FC00008950E94810B089510920B0280E00E94F8
:101FD000C90F089590910B028095892380930B027D
:101FE000282F277091F4282F082E000C330B9217FE
:101FF000130659F09091AD0292FF07C08595859523
:1020000085950E948D0B0E94E40F08959091AD027A
:1020100092FB222720F9281769F080FB92F9909310
:10202000AD028091AC029091AD020E94581082E006
:102030000E94EA0F08958091AD0282FB882780F903
:1020400091E089270E940610089581E00E94061001
:10205000089580E00E94061008956FEF7FEF90E0F2
:1020600080E00E94A22F089590E080E00E947E2FE1
:10207000883E9E4F19F40E94C11A089580E0089589
:1020800082E090E00E94702F089583E090E00E942B
:10209000702F0895CF9384E090E00E94702FC82F96
:1020A00082E290E00E94702F982F8C2FCF9108959C
:1020B000CF93C92F682F84E090E00E94842F6C2F6B
:1020C00082E290E00E94842FCF910895AB01BC0181
:1020D0008FE090E00E94962F0895AB01BC0183E150
:1020E00090E00E94962F089560E070E0CB010E947E
:1020F0006D10089560E070E0CB010E9466100E94B0
:102100007410089568EE7EEF90E080E00E94A22FA8
:1021100060E082E090E00E94842F60E083E090E045
:102120000E94842F1092B20160E084E090E00E944F
:10213000842F64E082E290E00E94842F60E085E0DA
:1021400090E00E94842F60E086E090E00E94842F5F
:102150006FEF87E090E00E94842F40E050E0BA01EA
:1021600088E090E00E94962F60E08DE090E00E9471
:10217000842F40E050E0BA0188E190E00E94962F61
:1021800060E087E190E00E94842F40E050E0BA01D7
:102190008CE190E00E94962F70E060E080E290E099
:1021A0000E94A22F40E050E0BA0188E190E00E9436
:1021B000962F80E00E94DA1A0E94091B0E947A1072
:1021C00008950E9482100895682F8EE090E00E948A
:1021D000842F08950E94FD26609336027093370283
:1021E00080933802909339026093320270933302E5
:1021F00080933402909335020895089508950E94C3
:10220000FE10089508950E94021108958DE793E14C
:102210000E941A250E94FD100E94FF10089581E07F
:1022200008950E940F110895089508950E941411B1
:102230000E94151108950E949C130E943907089569
:102240000E94E8260E94191B0E9435140E941B114F
:1022500080E00E94B81C0E94DC190E9403110895BE
:10226000AAE0B0E0E6E3F1E10C94232F0E944114D0
:10227000D090310280E00E94BF13C82ED8122BC02C
:102280000E94F1268C0180912F0290913002081754
:102290001907A1F08FEF89838A831B820E94F126A0
:1022A0008160782F9D838C8349815A816B818D81D8
:1022B0000E9465071093300200932F020E94741F42
:1022C000DC100E943A1E0E9447160E944C072A9674
:1022D000E9E00C943F2F80913A0281FD0E94C513E2
:1022E0000E941111B82E80E00E94BF13182F809118
:1022F0003102181721F1E12EE82600E0FF24F394C3
:102300008E2D8F21B1F0BB20A1F00E831F8291E0B2
:10231000812F8F2109F490E098870E94F126816037
:10232000782F9A8789874E815F8168858A850E9488
:1023300065070F5FFF0C073019F7109331020E94F9
:10234000EA10BCCFCF93DF930E949812EC01811565
:1023500021E5920708F042C0811530E5930708F0A7
:102360009FC0883E910530F5803E910508F094C0ED
:10237000883A910588F4853A910508F086C0813045
:10238000910509F489C0009709F486C0049708F004
:1023900083C0D0E0C0E080C08F3B9105D0F7C85A21
:1023A000D0E0CC0FDD1FCC5ADE4F0990D881C02D74
:1023B000D46472C0811540E2940750F4C11581E0E5
:1023C000D80708F069C0C03FD10518F3D06564C0D4
:1023D00081159044F0F2DF70D06A5EC0811535E55A
:1023E000930718F5811544E5940708F085C0C115D9
:1023F00083E5D80708F06CC0C11522E5D20708F4C0
:1024000062C0CE018370992721E030E002C0220F24
:10241000331F8A95E2F7C695C69580E2C89FE00112
:102420001124C22BD32BDC6837C0811539E5930703
:10243000A8F4811548E5940708F063C0C11586E546
:10244000D80708F0A6CF8C2F0E943A13C82FD0E0EF
:10245000DC2FCC27CC27DF71D0621EC081152AE586
:10246000920708F453C090568115904208F091CF1E
:102470008D2F8F710E943A1390E0982F882788271C
:102480009F719C012C2BE901E7CFC55AD0E0CE57B4
:10249000DE4FC881D0E0D064CE01DF91CF910895A6
:1024A0008370992721E030E002C0220F331F8A9504
:1024B000E2F7C695C69540E2C49FE0011124C22B05
:1024C000D32BDD68E9CFDC2FCC27C16FD06AE4CFF6
:1024D000CE018370992721E030E002C0220F331F24
:1024E0008A95E2F7C695C69540E2C49FE0011124A3
:1024F000C22BD32BDA68D0CFD82FCC27C46FD06AA9
:10250000CBCFD82FCC27C06FD06AC6CF8F700E9498
:102510003A1334E0D695C7953A95E1F7CF709C2FE2
:10252000EC01D069B9CF0E9496220E94A2110895B1
:1025300082389105B9F1B0F48133910509F47DC079
:1025400048F48932910509F46DC08A32910509F485
:102550007BC008958533910509F45FC089339105E7
:1025600009F10895833E9105D9F138F4803E910533
:1025700029F1823E910579F10895863E9105D9F1C0
:10258000873E910509F43EC0843E910541F52091B6
:10259000AD0221FF24C08091AC0284FD19C087EEFA
:1025A00090E008952091AC02237009F05AC0209168
:1025B000AD0223FF14C089E290E008952091AC029F
:1025C00020FD38C03091AD0230FF09C024FF43C068
:1025D00090E080E008952091AC0222FDF7CF0895AD
:1025E0002091AC0222FD3AC03091AD0230FD39C0DD
:1025F00024FFF5CFEDCF2091AC0223FFF0CF24FDD7
:10260000E7CFCDCF2091AC0223FD2EC03091AD029B
:1026100031FFEECF84EE90E008952091AC0225FFCB
:10262000DECFC9CF2091AC0225FD21C02091AD02A3
:1026300023FFD5CF89E390E0D2CF2091AC0226FFD3
:10264000CECF8AE290E008952091AC0226FFC7CF5A
:1026500081E390E0089583EE90E0089582EE90E0AB
:10266000089580EE90E0089586EE90E0089585E369
:1026700090E008959091AC0292FF06C0282F287137
:102680002830F9F4877F846093FF06C0282F2871D3
:102690002831F1F4877E84612091AD0220FF06C0CD
:1026A000382F38713830D9F4877F816021FF06C018
:1026B000282F28712831D1F4877E816194FD877E8F
:1026C0000895282F24712430F9F68B7F8860DCCFA1
:1026D000282F2471243101F78B7E8861DDCF382FBC
:1026E0003171313019F78E7F8860E0CF282F21714A
:1026F000213121F78E7E8861E1CF80E008950E942C
:102700002D1008950E9441142FEF86E791E021508B
:1027100080409040E1F700C000000E94411480E03A
:102720000E94BF1380FF04C00E947F130E943C27B9
:1027300008950E94821308950E943410811102C0EE
:102740000E94E1100E94401080933A020E944A10B9
:102750009093AD028093AC020E9499130E944510A1
:102760000E94520B8091B1010E946A0B0895089556
:102770000E94B713089508950E94BB130895E82F8F
:10278000F0E0E155FD4F80810895089580EA8A9533
:10279000F1F7089500C008950E94C6130895F894B3
:1027A000E82FE295EF70F0E031A1282F2F7081E043
:1027B00090E001C0880F2A95EAF7982F909593230F
:1027C00091A392A1892B82A378940895CF93DF934C
:1027D00086E30E94CF13C5E8D1E089918F3F11F0C5
:1027E0000E94CF1381E0CC38D807B9F7DF91CF91A1
:1027F00008950F931F93CF93DF938C01C62FF89406
:10280000269A2E9878940E94CA13E5E8F1E081E0B8
:10281000D0E091919F3F79F0A92FA295AF70B0E0E1
:1028200090962C9130E09F7002C0359527959A952F
:10283000E2F7982F20FD90E0D92B880F91E0EC383B
:10284000F90739F786E30E94CF1361E0D11101C087
:1028500060E08C2F0E94CC13F801EC0FF11DD083A7
:10286000DF91CF911F910F9108950E94E61310926E
:10287000AF021092AE0281E00E9466140E9495069B
:102880000895A1E0B0E0E7E4F4E10C94292F198267
:1028900060E0CE0101960E94F9139091AE02898109
:1028A00021E0981301C020E098138093AE0241E02C
:1028B0006FEA72E08EEA92E00E946714182F0E947D
:1028C0009806812F2196E3E00C94452F0895CF922E
:1028D000DF92EF92FF920F931F93CF936C017B01D6
:1028E000042F222349F081E080933D020E94F126CB
:1028F00090933C0280933B02C0913D02C1110AC0FB
:10290000C0E08C2FCF911F910F91FF90EF90DF903F
:10291000CF90089580913B0290913C020E9409273C
:10292000059770F310E0A801B601C7010E945A2F65
:10293000892B41F0A801B601C7010E94672F1092B0
:102940003D02DFCFC0E0FBCF0E9438290E9420115A
:102950000E94452908950E944A290E9430110E9430
:10296000642908950E948A260E941E290E94061149
:102970000E94A4140E94AB140E941611FBCF8091F8
:10298000440280FF0DC06091070170E0660F771F61
:102990006038710570F56115710569F1862F08952C
:1029A00081FF07C06091070184E0689FB001112496
:1029B000EFCF6091070182FD0AC080914302882316
:1029C000A9F02091060160910701821710F088E0BC
:1029D000ECCF869FC001112433E0880F991F3A95F0
:1029E000E1F7622F70E00E94F92ED2CF68E070E02C
:1029F000D5CF8FE7089581E008958091440280FF4C
:102A00000CC06091030170E07595679575956795A9
:102A10006115710549F1862F089581FF06C0609107
:102A2000030170E075956795F3CF6091030182FD16
:102A30000BC0909142029923A1F060910201809114
:102A40000301961738F0682F70E06038710500F3C5
:102A50008FE70895899FC001112470E00E94F92E2C
:102A6000F4CF61E070E0D7CF81E00895803F31F48A
:102A70000E94BF148195809348020895813F19F404
:102A80000E94BF14F8CF823F31F40E94BF14819599
:102A9000809347020895833F19F40E94BF14F8CF32
:102AA000893F29F40E94FD148093490208958A3FCA
:102AB00021F40E94FD148195F7CF8B3F31F40E94E1
:102AC000FD14819580934A0208958C3F19F40E9469
:102AD000FD14F8CF9CE0980F953070F4845F990B4B
:102AE00021E030E001C0220F8A95EAF7809146028A
:102AF000822B8093460208958D3F31F480914402E9
:102B000081608093440208958E3F21F480914402B5
:102B10008260F7CF8F3FB9F7809144028460F1CF94
:102B200040914702803F59F48091480287FF0DC0D1
:102B30001092480241110BC01092430208C0813F1D
:102B400081F48091480218169CF3442381F080910F
:102B5000490290914A02892B09F05AC01092420210
:102B60000895823F49F447FFF0CF109247028091C9
:102B700048028111ECCFE0CF833F19F41416ACF377
:102B8000E4CF90914902893F29F41916F4F6109286
:102B90004902DBCF8A3F19F497FFD7CFF8CF909146
:102BA0004A028B3F29F497FFD0CF10924A02CDCF33
:102BB0008C3F19F41916CCF3C8CF9CE0980F9530D0
:102BC00090F4845F990B21E030E0B90102C0660FF8
:102BD000771F8A95E2F7CB01809590914602892371
:102BE00080934602B2CF8D3F31F4809144028E7FB4
:102BF00080934402AACF8E3F21F4809144028D7FBE
:102C0000F7CF8F3F09F0A1CF809144028B7FF0CFA7
:102C100008950E94F1269C019091470280914802FC
:102C2000982B21F030934102209340029091490269
:102C300080914A02982B21F030933F0220933E026C
:102C400085E492E00E944B25089586E0E5E4F2E0F9
:102C5000DF011D928A95E9F7109243021092420219
:102C6000109244020895FC01828181110EC083817B
:102C700081110BC08481811108C091E0858181118F
:102C800001C090E0892F8170089581E0FCCFA6E01B
:102C9000B0E0EDE4F6E10C94292F86E0E5E4F2E003
:102CA000DE01119601900D928A95E1F7109247028C
:102CB000109248021092490210924A028B819C8124
:102CC000892B89F080914002909141020E9409274E
:102CD000AC01909143029923C9F1809108018417B6
:102CE000150608F440C08D819E81892B91F080915A
:102CF0003E0290913F020E940927AC01909142024E
:102D0000992309F471C0809104018417150608F411
:102D100079C0BE016F5F7F4F85E492E00E94472635
:102D2000811105C085E492E00E94331681110E9452
:102D3000091686E0FE013196A5E4B2E001900D92FD
:102D40008A95E1F72696E3E00C94452F209109013E
:102D50008AE0289F900111242417350720F69F5FF1
:102D60009093430202C09F3FD1F71B81112359F07A
:102D70000E94BF149FEF11160CF491E0899F802DE3
:102D80001124809347021C81112359F00E94BF1423
:102D90009FEF11160CF491E0899F802D11248093F0
:102DA000480230914702332309F49DCF2091480215
:102DB000222309F498CF45EB3403C0011124992351
:102DC00059F09093470245EB2403900111243323DB
:102DD00039F03093480287CF81E080934702F3CFE8
:102DE00081E0809348027FCF209105018AE0289FEF
:102DF000900111242417350708F08BCF9F5F909323
:102E0000420202C09F3FD1F71D81112359F00E9459
:102E1000FD149FEF11160CF491E0899F802D112471
:102E2000809349021E81112359F00E94FD149FEFE7
:102E300011160CF491E0899F802D112480934A0291
:102E400030914902332309F464CF20914A022223AE
:102E500009F45FCF45EB3403C0011124992359F0E5
:102E60009093490245EB240390011124332339F058
:102E700030934A024ECF81E080934902F3CF81E044
:102E800080934A0246CFEF92FF920F931F93CF9306
:102E9000DF93EB01E82FD1110EC0442321F0F0E0C5
:102EA000EF51FD4FE4916E2F7E2F8E2FCDB7DEB701
:102EB000E6E00C94422F0D2F10E0282F30E0442341
:102EC00029F02F513D4FF901249130E0F6E0CF9FDA
:102ED000C0011124EFEFF0E0BF010E94E52EAB012D
:102EE0008C2F90E0880F991FA5E5A49FB001A59FA6
:102EF000700D1124861B970B982F990F980FBF0107
:102F0000601B710B629FD001639FB00D729FB00D6B
:102F100011248B2F9D9FB0011124672F7727EF017C
:102F2000C61BD70BBE01629FE001639FD00D729F4D
:102F3000D00D11247F01E91AF108E09EB001E19E55
:102F4000700DF09E700D1124672F7727E61BF70B8D
:102F5000E29F8001E39F100DF29F100D1124E12FDD
:102F6000722F4230510599F048F44115510569F02E
:102F70004130510581F0EB2F8D2F07C044305105B2
:102F800069F080F046305105B1F76E2F8FCFE22FF8
:102F90007B2F812FFACFE22F7D2FF7CFEB2F822FC0
:102FA000712FF3CF7B2F822FED2FEFCF41E00E94C7
:102FB000431708950E94D6170895CF93DF93762F75
:102FC000E901682F842F0E94DA17798368838A8346
:102FD000DF91CF9108958091B002982F9E7F39F4B0
:102FE0008091B002817082608093B0020895843035
:102FF000B8F7089588E090E00E94782F0895CF9266
:10300000DF92EF92FF926B017C010E94EB17B701F8
:10301000A60188E090E00E94962FFF90EF90DF904D
:10302000CF9008956091B0027091B1028091B20288
:103030009091B3020E94FF170895E0EBF2E083E065
:10304000808311828FEF82838383148260817181F8
:10305000828193810E94FF1708958091B00280FFC2
:1030600002C08695089580E008959091B40293304F
:1030700018F49F5F9093B402882351F06091B002DE
:103080007091B1028091B2029091B3020E94FF1739
:10309000089581E00E94351808959091B402992313
:1030A00019F091509093B402882351F06091B002CE
:1030B0007091B1028091B2029091B3020E94FF1709
:1030C000089581E00E944D1808958091B4020895FA
:1030D0008093B402662351F06091B0027091B10206
:1030E0008091B2029091B3020E94FF17089560E0B0
:1030F0000E94681808958091B10208958091B202EB
:1031000008958091B302089570E00E94951A089581
:1031100060910B018091B00280FF0BC080910A0189
:1031200023E0829FC00111248B549D4F0E9484187C
:10313000089580910C0190910D0123E0829FF00190
:103140001124EB54FD4F891748F711821082128227
:103150008F5F3396F8CFE0EBF2E080818E7F808343
:1031600060817181828193810E94FF172FEF80E738
:1031700092E0215080409040E1F700C000000E94A2
:1031800088180895E0EBF2E080818E7F80832FEF36
:1031900080E792E0215080409040E1F700C00000BD
:1031A0000E94881808959091B00290FF0EC09091EF
:1031B0000C0120910D0133E0939FF0011124EB5499
:1031C000FD4F921718F00E9488180895818360833C
:1031D00042839F5F3396F5CFA3E0B0E0E2EFF8E1E2
:1031E0000C94262FF82E062F142FE22E8091B00279
:1031F00080FF28C0E82FE695F0E0E457FE4F90816D
:1032000090934C028E7F823059F49E012F5F3F4F86
:103210008F2D0E94DD174B8169818A810E94D3180E
:10322000F092B1020093B2021093B302EE2051F07B
:103230006091B0027091B1028091B2029091B3029C
:103240000E94FF172396E6E00C94422FE0EBF2E099
:103250009181282F4381628188E0890F0E94EC18B8
:10326000089581E00E9426190895E0EBF2E0918133
:10327000282F4381628188EF890F0E94EC180895FE
:1032800081E00E9435190895E0EBF2E0628128E0C8
:10329000620F08F46FEF282F438181810E94EC18A0
:1032A000089581E00E9444190895E0EBF2E0628104
:1032B00028E0621B08F460E0282F438181810E948E
:1032C000EC18089581E00E9455190895E0EBF2E0B2
:1032D000438128E0420F08F44FEF282F628181815B
:1032E0000E94EC18089581E00E9466190895E0EBB1
:1032F000F2E0438128E0421B08F440E0282F62817D
:1033000081810E94EC18089581E00E947719089548
:1033100020E00E94EC1808958091B00280FF18C050
:10332000817082608093B002662351F06091B00298
:103330007091B1028091B2029091B3020E94FF1786
:103340004091B3026091B2028091B1020E9488194B
:103350000895682F81E00E948C19089581E00E94F1
:10336000A9190895682F9091B00296958FEF890F53
:1033700009F481E00E948C19089581E00E94B2193D
:10338000089561E00E948C190895E0EBF2E08081DD
:103390008160808386950E94C11908958091B00252
:1033A00080FF03C00E94AB1808950E94C5190895BC
:1033B00060E00E948C19089580914B0281112CC00D
:1033C0000E943410811104C00E94E1100E941D1857
:1033D0000E94FA176093B0027093B1028093B20218
:1033E0009093B3026E7F61F40E941D180E94FA1739
:1033F0006093B0027093B1028093B2029093B302D3
:103400000E94EB178091B00280FF03C086950E9456
:10341000D81981E080934B020895E0EBF2E08081BF
:103420008160808386950E94D8190895FA018111E0
:1034300001C0FB01099508951F93CF93DF93EC0121
:10344000FB01128111114FC00E94460F8272C93CCC
:10345000FCE5DF0709F460C030F5C53CECE5DE07AC
:1034600009F455C060F4C33C9CE5D90709F443C096
:1034700008F048C0C23CDC45D9F111E034C042E656
:1034800059E161E579E1C73C9CE5D907C1F141E328
:1034900059E160E479E1C83CDC4588F141E559E156
:1034A00062E679E12CC0CD3CFCE5DF07D1F1A0F468
:1034B00041E658E169E478E1CB3CECE5DE07F9F060
:1034C00043E759E164E879E1CC3CDC45C0F049E4EC
:1034D00058E161E678E113C0C63D8CE5D80718F0E5
:1034E000CD35DD4551F6812FDF91CF911F910895A4
:1034F0000E94CE19F8CF4DEB59E16EEA79E10E94B6
:10350000161AF1CF4EEA59E16DEB79E1F8CF40E4BC
:1035100059E161E379E1F3CF44E859E163E779E107
:10352000EECF81E00E94C119DECF259A45B14F7DD3
:1035300055B15062EFB7F8949B01220F331F260F4D
:10354000371F280F391F2817390741F4EFBF8FE5C0
:1035500094E00197F1F700C000000895DC016D913F
:10356000CD0178E055B9000000C067FF45B9660F8E
:10357000000000C000C000C045B900C07A9591F7B6
:10358000E2CF83E290E00E94702F823289F484E2DD
:1035900090E00E94702F813159F485E290E00E9402
:1035A000702F91E0883009F090E0892F81700895A4
:1035B00080E0FCCFCF93C82F6FEF811162E283E2EE
:1035C00090E00E94842F6FEFC11161E184E290E0EE
:1035D0000E94842F6FEFC11168E085E290E00E94A5
:1035E000842FCF910895089586E290E00E94702F75
:1035F000682F70E090E080E008950895CF93C62F83
:103600000E94FD1A6C2F86E290E00E94842FCF91D9
:10361000089580E00E94DA1A60E070E0CB010E9419
:10362000FE1A0E941C220E94F32281E00E94DA1AF4
:1036300008950E94F31A0E94F41A0E94FD1A0E9433
:10364000C11A811102C00E94091B0895CF93FB018A
:10365000C281CC2309F19C0122513F452031310523
:1036600020F582510E940323C0E08C2FCF91089552
:1036700081E00E94810B43E062E081E00E948B06C2
:10368000F3CF81E00E948D0B43E062E081E00E9475
:103690008B06EBCF82E0F6CF8031FFE59F0789F301
:1036A00081319F45B9F3C1E0E0CF8031EFE59E075E
:1036B000F9F281319F45C9F682E0DBCF2FEFFC01A3
:1036C00020830895CF93DF93EC0188818138E9F05E
:1036D00028F4803871F0DF91CF9108958238C9F0D5
:1036E0008338C9F70E947B1889830E947E188A83D9
:1036F000F2CF0E9481182FEF829FC00111246FEF3B
:1037000070E00E94E52E6983E6CF0E942D18898320
:10371000E2CF0E946518FBCFCF93DF93EC01888145
:10372000813821F128F4803869F0DF91CF91089534
:10373000823841F18338C9F70E948118482F6A8185
:10374000898111C089812FEF829FC00111246FEF01
:1037500070E00E94E52ED62F0E947E18C82F0E948E
:103760007B184D2F6C2F0E948819DFCF89810E9412
:10377000D8198981811103C00E94C218D6CF0E9436
:103780000D1AD3CF89810E947718CFCF1F93CF9383
:10379000DF93EC01162FDC01ED91CD01E150E33117
:1037A00008F0A0C0F0E0EA53F04D0C940D2F198200
:1037B0008AE08A830FC089818230A1F08330A9F02A
:1037C0008130B9F40E94FD260E94132F6A837B8307
:1037D0008C839D83612FCE010E94F127DF91CF91D1
:1037E0001F9108950E94F41AEFCF80E00E94BF134A
:1037F000E0CF612FCE010E945E1BECCF8981823029
:10380000C1F76A817B818C819D810E94132F0E9468
:10381000FE1AE0CF4B816A8189810E94D1219827CD
:10382000892798279D838C83D5CF2C813D81322792
:10383000232732274B816A8189810E94FB21CACFCD
:103840000E941C22C7CF0E948C1BC4CF0E94621B07
:10385000C1CF0E941218BECF0E94A4228983BACF82
:103860000E94A6229827892798279A838983B2CF16
:103870006B8170E089819A81AE014C5F5F4F982720
:10388000892798270E94A922A5CF6B8170E08981A2
:103890009A81AE014C5F5F4F9827892798270E9435
:1038A000CE2298CF0E94F32295CF0E94CF21D6CF6F
:1038B0006B8170E089819A81AE014C5F5F4F9827E0
:1038C000892798270E94502285CF6B8170E08981DB
:1038D0009A81AE014C5F5F4F9827892798270E94F5
:1038E000732278CF8FEF888375CFB0E0A0E0EBE74D
:1038F000FCE10C94242F6C017B0164E670E088E706
:103900000E943424EC0197FD12C010E000E0F601A3
:10391000E00FF11F849164E670E00E94A024EC01A6
:10392000892B29F40F5F1F4F0E151F0581F70E9489
:103930001625CE01CDB7DEB7E8E00C94402F0895F0
:103940000E949F1C0895E4ECF2E080E092E0DF0129
:103950009C011D9221503040E1F7F093C904E0939F
:10396000C8048FEF9FEF90937A02809379020895B5
:103970000E949F1C0E94A01C8093750280FD0FC0B6
:1039800080E8809374020E942E246DE070E088EF3E
:1039900093E00E94751C892B21F080E0089580E25D
:1039A000F0CF8091750263E070E081FD26C085EF65
:1039B00093E00E94751C892B81F76DE070E085EE25
:1039C00093E00E94751C892B41F70E94FD26605AE6
:1039D00075418F4F9F4F6093C4047093C5048093CB
:1039E000C6049093C7040E94A31C81E080937802D0
:1039F0008093770210927602089582EF93E0D9CFF8
:103A00002091740236E0839FC0011124629F800DD3
:103A1000911D1124811522E0920714F090E080E0BE
:103A20008C539D4F9093C9048093C80408952091AE
:103A3000C8043091C9042E5B324040917402642F57
:103A400070E0C9010E94E52E481B463010F4240F97
:103A5000311D211582E0380710F030E020E02C53B2
:103A60003D4F3093C9042093C80408951F93CF930A
:103A7000DF93162F8A3039F481E00E94AF1DDF9169
:103A8000CF911F9108958D3011F480E0F6CFC09151
:103A9000C804D091C90496E0FE01AEE4B2E0019002
:103AA0000D929A95E1F7803EB8F086E0FE01119202
:103AB0008A95E9F711111CC0C091C804D091C904BE
:103AC00046E050E0BE018EE492E00E945A2F892B1E
:103AD000E9F40E94171DD3CFF6E08F9FB0011124A7
:103AE0006B5F7B4F46E050E0CE010E94512FE2CF4A
:103AF000E091C804F091C9049F012A5F3F4F2E173F
:103B00003F07D1F2808180958193F9CFC45CD24088
:103B1000CE0125E0969587952A95E1F721E030E0E2
:103B2000A90102C0440F551F8A95E2F7CA014091CE
:103B3000790250917A02842B952B259645E0D695F3
:103B4000C7954A95E1F702C0220F331FCA95E2F7E5
:103B5000822B932B90937A0280937902BACFCF93E2
:103B6000382FE091C804F091C904E45CF240209140
:103B70007402622F70E0CF010E94E52E281B822F75
:103B8000332369F066E00E94D92EC82FC15010F48B
:103B9000CF91089560E080E20E94361DF7CF9F012B
:103BA000280F311D2115324018F080E0F0E0E0E0F0
:103BB0008E0F9F2F911D8C539D4F9093C90480931E
:103BC000C804E6CF1F93CF93DF93EC01162FFE01BD
:103BD0008491811104C0DF91CF911F910895612FCD
:103BE0000E94361D2196F3CF0E94E21D81E00E94C3
:103BF000AF1D0895CF93DF932091C8043091C9047D
:103C0000245C3240A901460F571F4130524020F03A
:103C100060E072E0621B730B4091790250917A026E
:103C2000FC01C901620F731FC1E0D0E0861797073E
:103C300038F050937A0240937902DF91CF91089542
:103C40002491DC01AC53BD4F3C91321781F02C9391
:103C50009C01A5E036952795AA95E1F7DE0102C003
:103C6000AA0FBB1F2A95E2F79D014A2B532B019601
:103C70003196DCCF80917802811103C08091770268
:103C800008950E94FD26605A75418F4F9F4F6093A3
:103C9000C4047093C5048093C6049093C7048091B4
:103CA00077028111EBCF62E070E083EE93E00E9437
:103CB000751C892B19F781E080937702DFCF2F9253
:103CC0003F925F926F927F928F929F92AF92BF923C
:103CD000CF92DF92EF92FF920F931F93CF93DF93D8
:103CE00080917802882369F02091790230917A02DC
:103CF0002115310531F08091760261E070E0882372
:103D000099F0DF91CF911F910F91FF90EF90DF908D
:103D1000CF90BF90AF909F908F907F906F905F906B
:103D20003F902F9008958F5F082F10E01B01082E01
:103D300002C0220C331C0A94E2F7A901422153214C
:103D4000452B89F39091750290FD44C08295880FB0
:103D500080768093110198013695279536952795A1
:103D600020931401815E809312011092150124E6C4
:103D700030E047E050E06FE071E088E70E94CE2439
:103D8000892B09F0BECFA80125E0440F551F2A95C5
:103D9000E1F78091750280FD2BC04C535D4F04E626
:103DA00010E020E230E060E488E70E94EF24892BF5
:103DB00009F0A7CF0E943A1EE101C095D0958091ED
:103DC000790290917A02C823D923D0937A02C093C2
:103DD000790297CF880F880F880F80931101109276
:103DE0001401895F8093120183E080931501BFCF96
:103DF000E4E5F2E080E2DF011D928A95E9F7A2E9AD
:103E0000B1E00EE811E086E9C82E81E0D82E97E0F7
:103E1000592E772473948D91E80129918E01240FF6
:103E2000352F311D2C533D4FE82FF0E0EC5AFD4F5C
:103E300090E080E0652C681A872C082E01C0880C61
:103E40000A94EAF77901A12CE701B9907E01B82024
:103E5000662D6A196770962E062E000C770BDB2DE7
:103E600001C0DD0F9A94EAF7719561957109677049
:103E7000772701C0B6946A95EAF7BD2A6081962E2D
:103E80009B289082A39468E0A612DECF019631961B
:103E90008830910579F6CA16DB0609F0BCCF04E636
:103EA00010E020E230E044E552E07DCF80917702DF
:103EB00090917802911103C091E089270895882399
:103EC00069F062E070E081EE93E00E94751C892B3E
:103ED00019F080917702089510927702809177020D
:103EE000EBCF0E94F20508950F931F938091780203
:103EF000882309F160E080E00E94001D0E94711F8C
:103F00000E945F1E809177028823A9F00E94FD26FF
:103F10000091C4041091C5042091C6043091C704D7
:103F2000601B710B820B930B6F3F7F4F8F4F9F472F
:103F300010F40E94561F1F910F910895CF93DF93A5
:103F4000EC01FB018281882309F464C1C330FDE5E3
:103F5000DF07E0F5CA3F9CE5D90730F49E01225007
:103F60003C4524313105D8F50E944A109093AD02AA
:103F70008093AC02C231ECE5DE0709F41FC108F002
:103F80006EC0C9308CE5D80709F4F2C008F03FC014
:103F9000C530ECE5DE0709F4DBC058F5C3308CE52D
:103FA000D80709F4CDC008F0CFC08091AC02816081
:103FB000C230DC4509F4AEC08091AC029091AD02F4
:103FC0000E9458100E94FF0A80E009C0C53AEDE542
:103FD000DE0751F238F4C1369DE5D90729F2DF91A9
:103FE000CF9108959E012D5A3D4523303105B8F7F4
:103FF000BBCF8091AC028062C730FCE5DF0709F4DB
:1040000089C008F4B1C08091AC02806483C0CD3017
:104010009CE5D90709F4BAC070F48091AC028E7F98
:10402000CB30FCE5DF0709F475C008F4A7C0809128
:10403000AC028D7F6FC0CF309CE5D90709F4B6C0C4
:1040400008F4A8C0C031FCE5DF0709F4B3C0C131F2
:10405000DC4509F0B1CF8091AC028F7B5BC0CF3FD4
:104060009CE5D90709F4B4C098F5CA3FFCE5DF0721
:1040700009F472C0B8F4C4319CE5D90709F4B6C09C
:1040800008F4A2C0C531DC4509F096CF8091AC029E
:1040900082FB992790F921E0922790FB82F990FB0F
:1040A00083F938C0CC3F8CE5D80709F477C008F411
:1040B00057C0CD3FECE5DE0709F474C08091AD0236
:1040C0008360CE3FDC4509F077CF8093AD0274CF9B
:1040D000C1368DE5D80709F496C068F4C130EDE526
:1040E000DE0709F48CC008F477C0C230DD4509F062
:1040F00063CF80E085C0CD3A9DE5D907E9F068F44B
:104100009091AC02892F8E7F90FF8160C53ADD458A
:1041100009F052CF8093AC024FCFCE3A8DE5D8074D
:1041200089F1CF3ADD4509F047CF9091AD02892F53
:10413000877F93FF8860C9CF8091AD028860C5CF2B
:104140008091AC028260E6CF8091AC028460E2CFC5
:104150008091AC028860DECF8091AD028160B5CFE6
:104160008091AD028260B1CF8091AC028061D2CFEC
:104170000E94FF0A8091AC028068CCCF8091AC0293
:104180008C60C8CF8091AD02877F9FCF8091AC02B9
:104190008B7FC0CF8091AC02877FBCCF8091AD0276
:1041A0008E7F93CF8091AD028D7F8FCF8091AC02B7
:1041B0008F7EB0CF8091AC028F7DACCF0E94FF0A82
:1041C0008091AC028F77A6CF8091AC02837FA2CF83
:1041D0008091AD028C7F79CF8091AD02982F909520
:1041E00091708E7F892B90FB81F96FCF0E94FF0A1F
:1041F0009091AC02892F97FB87F980588BCF81E093
:104200000E94E410D9CE9091AC02892F8F7E94FF4A
:10421000806180CF81E0E3CEB0E0A0E0E2E1F1E2B6
:104220000C94252FE82FF0E0EB5BF64FD490282F6D
:1042300026952695269530E0F901EB51F64F04912D
:10424000877010E0082E02C0159507950A94E2F7D2
:1042500001701127F901EB52F64FE490F12C082E72
:1042600002C0F594E7940A94E2F791E0E922FF2472
:10427000F901EB53F64FC491D0E002C0D595C79534
:104280008A95E2F7C170DD270115110519F081EE5D
:104290000E94A007E114F10419F086EE0E94A00725
:1042A0008D2D0E94A208E114F10419F086EE0E94FF
:1042B00031080115110519F081EE0E943108CD2B4E
:1042C00019F08CE20E94A208CDB7DEB7E7E00C94AB
:1042D000412FEF92FF920F931F93CF93DF93EC0147
:1042E000162F0AE08881882309F454C0813009F030
:1042F0004EC08981813099F47E0122E0E20EF11CEA
:104300008A810E94A208E7012196812F815050F3F3
:10431000EFE9FFE03197F1F700C00000F7CF8230FE
:1043200041F47E0182E0E80EF11C8A810E94A00720
:10433000EACF833041F47E01E2E0EE0EF11C8A8187
:104340000E943108E0CF843011F02196DDCF2A8120
:10435000229690E080E0AE014F5F5F4F2053330B19
:104360002A30310548F0019778F2EFE9FFE0319704
:10437000F1F700C00000F7CF089FB001099F700D52
:104380001124C901860F971F2981EA01E4CF0E94F9
:104390000C21BACFCDB7DEB7E6E00C94422F84E013
:1043A00008950F931F93CF93DF93843008F5611125
:1043B0001FC04730E8F4042F10E0000F111F2EE05B
:1043C000829F000D111D1124C80187960E94702F35
:1043D000C82FD0E0DC2FCC27C80188960E94702F10
:1043E0009E01282BC901DF91CF911F910F91089554
:1043F00090E080E0F8CF1F93CF93DF93122F8430AB
:10440000B8F4611115C0473098F4C42FD0E0CC0F38
:10441000DD1F9EE0899FC00DD11D1124632FCE01A9
:1044200087960E94842F612FCE0188960E94842F48
:10443000DF91CF911F910895CF92DF92EF92FF927B
:104440001F93CF93DF9385ECC82E82E0D82ED0E067
:10445000C0E0760110E00E941D0621E030E08C17DC
:104460001D0621F01CF0F70125913491412F60E0E9
:104470008C2F0E94FB2182E0E80EF11C1F5F173099
:1044800051F721968EE0C80ED11CC430D10509F732
:10449000DF91CF911F91FF90EF90DF90CF90089523
:1044A000EF92FF920F931F93CF93DF93EC018A015A
:1044B0007C01E60EF71ECE018796CE15DF0529F4A6
:1044C000CDB7DEB7E6E00C94422FC833D10540F4F7
:1044D0000E94702FF80180830F5F1F4F2196EBCF52
:1044E000F8011082F9CFB0E0A0E0E9E7F2E20C9425
:1044F000242F7C016A018C01060F171FEC01CE01ED
:104500008796C017D10729F4CDB7DEB7E8E00C9441
:10451000402FC833D10540F4FE01EE19FF09EC0D20
:10452000FD1D60810E94842F2196E9CF462F8430A3
:1045300040F4711106C0673020F460E00E94D12180
:10454000089590E080E0089580E1089581EA93E085
:104550000895EF92FF920F931F93CF93DF93EC0197
:104560008A017C01E60EF71ECE01815A9F4FCE15BF
:10457000DF0529F4CDB7DEB7E6E00C94422FC13A4F
:1045800023E0D20740F40E94702FF80180830F5F70
:104590001F4F2196E9CFF8011082F9CFB0E0A0E0DB
:1045A000E4EDF2E20C94242F7C016A018C01060FE9
:1045B000171FEC01CE01815A9F4FC017D10729F474
:1045C000CDB7DEB7E8E00C94402FC13A23E0D20724
:1045D00040F4FE01EE19FF09EC0DFD1D60810E9403
:1045E000842F2196E7CFCF93DF93CFE5D0E060E033
:1045F000CE010E94842F2196C11584E0D807B9F717
:10460000DF91CF910895A4E0B0E0E9E0F3E20C94EB
:10461000252FF82E8FE08F1548F18FEF93E00E9441
:10462000702F811123C00FE510E0F11023C0198213
:104630001A821B821C82DD24D39478018FEFE81A42
:10464000F80AC8010E94702F89831A82882371F0AA
:104650009FEF980F9330D8F48A83D9820E5F1F4F53
:10466000C7010E94702F8B83811112C02496E7E04E
:104670000C94412F011584E01807C1F3C8010E9472
:10468000702F811101C0FA940F5F1F4FCECF8701A9
:1046900060E0CE0101960E946921CFCFCF93DF93D6
:1046A000EB0186319C4511F50E94460F9A819923B2
:1046B00099F08A7A91E009F490E090937B0281115D
:1046C00009C089E20E941E0F0E94870F80E0DF91DF
:1046D000CF91089585E3F6CF80917B02811104C0CC
:1046E00089E20E94260FF0CF85E3FBCF81E0EFCF78
:1046F0000F931F93CF93DF93C42FD22FFC0182819E
:104700008823C9F040937E020E94F12690937D0297
:1047100080937C0280E28C0F883040F4C77081E087
:1047200001C0880FCA95EAF70E94AB08DF91CF91CC
:104730001F910F91089510917E02141332C0809141
:104740007C0290917D020E940927883C910548F5E2
:10475000C0E2CD0F1D17B9F080E2810F883040F420
:10476000177081E001C0880F1A95EAF70E94B2081D
:10477000C83048F481E09D2F977001C0880F9A954A
:10478000EAF70E94AB08802F0E94A208C83070F69A
:10479000D77081E001C0880FDA95EAF70E94B2086D
:1047A000C5CF80E28C0F883008F6C77081E001C069
:1047B000880FCA95EAF7F2CF0F939C01CB01233FF4
:1047C0004CE5340759F1A8F4283DFCE53F0701F119
:1047D000293D4CE53407D1F1273D3C4591F406E2F3
:1047E00021EE41EE67ED7CE50E94782380E00F9199
:1047F0000895253FFCE53F07E9F0B0F0263F3C4532
:10480000F9F0FC018281882339F110927E02EFCF0A
:1048100007E225EE45EE68ED7CE5E6CF06E221EE07
:1048200040EE63EF7CE5E0CF07E225EE44EE64EF77
:104830007CE5DACF06E221EE42EE65EF7CE5D4CFEF
:1048400007E225EE46EE66EF7CE5CECF08E221E0FA
:1048500045EE69ED7CE5C8CF81E0C9CF1092B90083
:104860008CE08093B8000895B0E0A0E0EAE3F4E2C1
:104870000C94212FB82EEB010E94F1266C01EE243E
:10488000E394F12CC431D10560F025E0E22EF12C47
:10489000CF3FDC0731F0CE0164E170E00E94E52EED
:1048A0007B0184EAA82E94E8992E1092BC00A09275
:1048B000BC000E94F1268C018091BC0087FF0DC0D6
:1048C0008091B900887F8830F9F08091B900887FA5
:1048D0008031D1F00FEF1FEF08C0C8010E940927F7
:1048E000E816F90648F70EEF1FEFCF3FDC07E9F2B5
:1048F000C6010E940927C817D907B8F6C801CDB765
:10490000DEB7EBE00C943D2FB092BB009092BC0060
:104910000E94F1268C018091BC0087FF0AC0809123
:10492000B900887F883111F08034A1F610E000E0F2
:10493000E5CFC8010E940927E816F90660F7D3CF32
:104940000F931F93CF93DF93EB018093BB0084E819
:104950008093BC000E94F1268C018091BC0087FFEF
:1049600011C02091B900287F81E090E0283211F435
:1049700090E080E0919581959109DF91CF911F9111
:104980000F910895CF3FDC0741F3C8010E9409272A
:10499000C817D90710F78EEF9FEFEFCFB0E0A0E078
:1049A000E4EDF4E20C94242F6B018A017901B90142
:1049B0000E943424E6010C0D1D1DC017D10711F013
:1049C00097FF08C024E92093BC00CDB7DEB7E8E02C
:1049D0000C94402FB70189910E94A024EECFB0E043
:1049E000A0E0E5EFF4E20C94242FC62F6A017901D0
:1049F000B8010E94342497FD0CC0B8018C2F0E948E
:104A0000A024E601EC0CFD1CCE15DF0511F097FF8C
:104A100008C024E92093BC00CDB7DEB7E8E00C94D1
:104A2000402FB80189910E94A024EECF84E98093A1
:104A3000BC0008959093A7018093A60108959093D8
:104A40008402809383020895E0918302F0918402AE
:104A5000309729F00190F081E02D0995089580E0CC
:104A60000895E0918302F0918402309799F02091AB
:104A70002201222359F02091AC0227FF07C0DC015C
:104A80002C9111962C93119726E02C930280F381A0
:104A9000E02D09950895E0918302F091840230970A
:104AA00039F022E0DC012C930480F581E02D09959A
:104AB000089520918102309182022817390771F000
:104AC0009093820280938102E0918302F0918402AC
:104AD000309721F00680F781E02D09950895209107
:104AE0007F02309180022817390771F0909380027D
:104AF00080937F02E0918302F0918402309721F04D
:104B00000084F185E02D09950895FC01329680918D
:104B10002201882321F08091AC029EE187FF96E07C
:104B200080E0915008F4089521912223D1F38F5F02
:104B3000F8CF662301F1209122012223F1F0209188
:104B4000AC0227FF1AC0462F4695469546954E3132
:104B500090F4677021E030E002C0220F331F6A95A5
:104B6000E2F7840F911DFC01828190E02823392314
:104B700081E0232B69F480E00895FC0132960896C9
:104B80002191261721F0E817F907D1F7F4CF81E03A
:104B900008959C01FC0132969FEF80E041914617F9
:104BA00051F09F3F19F4411101C0982F8F5F86305B
:104BB000A9F79F3F09F40895290F311D97FD3A95F4
:104BC000F90162830895FC0132960896219126131B
:104BD00003C0DF0111971C92E817F907B9F7089590
:104BE000E62FE695E695E695EE3168F4E80FF92FA5
:104BF000F11D677021E030E001C0220F6A95EAF7ED
:104C00008281822B82830895E62FE695E695E695CC
:104C1000EE3170F4E80FF92FF11D677021E030E0FC
:104C200001C0220F6A95EAF720958281282322830A
:104C3000089520912201222339F02091AC0227FF10
:104C400003C00E94F02508950E94C925089520916F
:104C50002201222339F02091AC0227FF03C00E94D9
:104C6000042608950E94E3250895FC013296809160
:104C70002201882351F08091AC0287FF06C08EE1AB
:104C8000DF011D928A95E9F7089586E0F9CF46E0A5
:104C900050E00E945A2F21E0892B09F420E0822F56
:104CA000089508950E9451260895811106C081E05B
:104CB000809385020E945226089582E0F9CF83E016
:104CC000809385020E94522608950E9455260895D9
:104CD00081E0809385020E94522608950E946826F2
:104CE0000895089508950E947226089508950895DC
:104CF0000E94712608950E9476260E9441140E9407
:104D0000772680E00E94BF1391E0811101C090E0FE
:104D1000892F089585B7806885BF85B7806885BF6E
:104D200008951F921FB61F9211248F939F93AF93E4
:104D3000BF9380918602811113C08091CA04909123
:104D4000CB04A091CC04B091CD044196A11DB11D1E
:104D50008093CA049093CB04A093CC04B093CD0469
:104D6000BF91AF919F918F911F901FBE1F9018957B
:104D70008091D204843031F10E941407109286028F
:104D800088E190E020E40FB6F894A8958093600045
:104D90000FBE2093600083B7817F846083BF83B799
:104DA000816083BF7894889583B78E7F83BF0FB669
:104DB000F894A895809160008861809360001092BB
:104DC00060000FBE08950E94FF0A0E941B0708950D
:104DD00082E084BD93E095BD9AEF97BD80936E000D
:104DE00008952FB7F8948091CA049091CB04A091B4
:104DF000CC04B091CD042FBF08952FB7F8946091E3
:104E0000CA047091CB048091CC049091CD042FBF43
:104E100008959C014FB7F8948091CA049091CB04F7
:104E2000A091CC04B091CD044FBF821B930B089589
:104E300078941F921FB61F9211248F939F93AF9364
:104E4000BF938091CA049091CB04A091CC04B091FF
:104E5000CD040196A11DB11D8093CA049093CB048B
:104E6000A093CC04B093CD04BF91AF919F918F914B
:104E70001F901FBE1F90189587E797E79093010832
:104E80008093000888E19AE00FB6F894A895809383
:104E900060000FBE90936000FFCF88E19AE00FB6EC
:104EA000F894A895809360000FBE90936000FFCFA8
:104EB0008091AA02089508959C0184E08093E900FE
:104EC0009FEF8091E800915085FD06C085ED8A95A1
:104ED000F1F700009111F5CF8091E80085FF0CC03B
:104EE00050E040E066E070E0C9010E94032A809132
:104EF000E8008E778093E8000895CF93DF93EC016C
:104F0000809122018823B1F18091AC0287FF32C0E9
:104F100060E284E08093E9008FEF9091E800815097
:104F200095FD06C095ED9A95F1F700008111F5CF3A
:104F30008091E80085FF1BC08091220170E050E065
:104F400040E0811104C050E040E068E070E0CE0134
:104F50000E94032A8091E8008E778093E80080E227
:104F6000FE01AAE8B2E001900D928A95E1F7DF9187
:104F7000CF91089568E081E0CDCF80938702709350
:104F80008902609388028091D2048430F9F480937E
:104F9000E9008FEF9091E800815095FD06C095EDF6
:104FA0009A95F1F700008111F5CF8091E80085FF17
:104FB0000DC050E040E063E070E087E892E00E94BE
:104FC000032A8091E8008E778093E8000895BC0161
:104FD00084E00E94BD270895BC0183E00E94BD27A4
:104FE0000895CF93FC01603221F58091D204843082
:104FF00001F5C091E900CF702091EC00922F9170E3
:1050000020FD90E8C92B82E08093E9008091E800C0
:1050100080FF0CC050E040E060E270E0CF010E94F1
:10502000032A8091E8008E778093E800CF70C093C8
:10503000E900CF9108958091D104811109C00E94A7
:10504000E22B0E943F2C8091E20084608093E2007A
:1050500008951092D10408950E94682608956091E1
:10506000CE0481E0611101C080E00E945F260895B6
:105070009091D20481E0943009F080E06091CE04F8
:105080000E946526089542E061EC81E00E945E2B5B
:1050900042E261EC84E00E945E2B42E261EC82E03D
:1050A0000E945E2B42E260EC83E00E945E2B9091B6
:1050B000D20481E0943009F080E06091CE040E9437
:1050C000552608958091D404833009F463C030F4E8
:1050D0008130E1F1823009F4A0C008958A3009F4EA
:1050E0008CC08B3009F471C0893009F052C08091B6
:1050F000D304813209F04DC08091D7049091D80437
:10510000009719F0029709F044C08091E800877F6A
:105110008093E8008091E80082FF37C09091F3000F
:105120008091F200029731F48091F100813011F00A
:10513000863021F48091F1008093AA028091E800EA
:105140008B778093E8000E94922B23C08091D30438
:10515000813AF9F48091E800877F8093E80080919C
:10516000D7049091D804892B61F460E28AE892E038
:1051700070E00E94A12A8091E8008B778093E8007C
:10518000089560E090E080E0F3CF8091D204811137
:10519000C1CF08958091D304813AD9F78091D70483
:1051A0009091D804892BA9F78091E800877F80939C
:1051B000E8008091E80080FFFCCF8091220180937D
:1051C000F1008091E8008E77BCCF8091D3048132CA
:1051D00001F78091D7049091D804892BD1F6809162
:1051E000E800877F8093E8000E94922B8091D5048D
:1051F000809322010E94FF0A08958091D304813296
:1052000041F68091E800877F8093E8000E94922B0E
:105210008091D6048093AB0208958091D304813AA3
:1052200009F0B7CF8091E800877F8093E8008091F4
:10523000E80080FFFCCF8091AB02C1CF84B7877FAD
:1052400084BF0FB6F894A895809160008861809320
:105250006000109260000FBE80E890E00FB6F894F6
:1052600080936100909361000FBE0E946E260895A6
:105270000E94E22B0E943F2CE2EEF0E080818460ED
:10528000808378940E94BE2E089586E191E00E946A
:105290001F2508958091D204853031F48091D20485
:1052A000853019F00E94E32608950E94B826809167
:1052B000D004882399F30E947B26882379F30E94E7
:1052C000ED290E94FF0AEACFA0E2B0E0EAE6F9E2A7
:1052D0000C942A2F8091D204843009F583E08093C6
:1052E000E9008091E80082FF1AC08091E80090E018
:1052F00085FF09C050E040E060E270E0CE01019619
:105300000E94522A91E08091E8008B778093E80018
:10531000992329F060E2CE0101960E94C61BA09657
:10532000E2E00C94462F0E9496290895292F3327F6
:105330002330310521F168F42130310509F443C0EF
:105340002230310509F444C090E080E030E020E0F4
:1053500026C02132310551F122323105A9F76330DF
:10536000710590F7FB01EE0FFF1FE756FE4F2081FE
:1053700031816A567E4FFB01808190E010C09927F1
:105380008130910581F0009729F00297E9F6E5EF69
:10539000F9E002C0EDE1FAE0849190E09F01FA01AA
:1053A000318320830895EFE0FAE0F6CF6330710592
:1053B00058F6660F771FFB01E156FE4F20813181C1
:1053C00089E090E0ECCF82E190E02CE73AE0E7CF93
:1053D0008BE590E021E23AE0E2CF80E189BD82E115
:1053E00089BD09B400FEFDCF8091D8008F7D8093E8
:1053F000D8008091E00082608093E0008091E0001E
:1054000081FDFCCF0895AF92BF92CF92DF92FF92C1
:105410000F931F93CF93DF936C01EB018A010E94DE
:10542000B12BF82E811123C00115110539F0F801B7
:1054300080819181C81BD90BC80ED91EB12CA12C1B
:105440002097A9F08091E80085FD22C08091E800B6
:105450008E778093E80001151105A1F0F801808195
:105460009181A80EB91EB182A08285E0F82E8F2D01
:10547000DF91CF911F910F91FF90DF90CF90BF9060
:10548000AF9008950E94B12B8823D1F2F82EEFCF70
:10549000F60181916F018093F1002197FFEFAF1A20
:1054A000BF0ACECFAF92BF92CF92DF92FF920F93FF
:1054B0001F93CF93DF936C01EB018A010E94B12B04
:1054C000F82E811123C00115110539F0F8018081F2
:1054D0009181C81BD90BC80ED91EB12CA12C2097C5
:1054E000A9F08091E80085FD22C08091E8008B77CB
:1054F0008093E80001151105A1F0F80180819181E8
:10550000A80EB91EB182A08285E0F82E8F2DDF9102
:10551000CF911F910F91FF90DF90CF90BF90AF90F0
:1055200008950E94B12B8823D1F2F82EEFCF8091FD
:10553000F100F60181936F012197FFEFAF1ABF0AC7
:10554000CECFFC018091D9049091DA048617970799
:10555000A0F06115710529F49091E8009E77909371
:10556000E80090E06115710551F4911108C0809137
:10557000E80082FF34C080E00895BC01F2CF809142
:10558000D2048823C1F18530C1F18091E80083FD08
:1055900030C08091E80082FDEACF8091E80080FF72
:1055A000E1CF8091F3002091F200382F6115710551
:1055B00019F02830310558F091E02830310509F014
:1055C00090E02091E8002E772093E800CBCF8191E6
:1055D0008093F100615071092F5F3F4FE7CF8091B9
:1055E000D204882341F0853041F08091E80083FFA8
:1055F000BECF81E0089582E0089583E00895FC0124
:105600008091D9049091DA0486179707A0F061156C
:10561000710529F48091E8008E778093E80090E08E
:105620006115710551F4911108C08091E80082FF65
:1056300035C080E00895BC01F2CF8091D204882368
:10564000C9F18530C9F18091E80083FD31C08091B6
:10565000E80082FDEACF8091E80080FFE1CF8091F1
:10566000F3002091F200382F6115710519F02830F0
:10567000310558F091E02830310509F090E0809133
:10568000E8008E778093E800CBCF84918093F1007F
:105690003196615071092F5F3F4FE6CF8091D20460
:1056A000882341F0853041F08091E80083FFBDCF31
:1056B00081E0089582E0089583E00895982F97305F
:1056C00028F08F708093E90081E008959093E900BD
:1056D000242F762F50E0981731F07091EC00209134
:1056E000ED005091F00021FD02C09F5FE8CF3091A6
:1056F000EB003E7F3093EB003091ED003D7F309327
:10570000ED003091EB0031603093EB007093EC00D2
:105710002093ED005093F0002091EE0027FDE5CF9F
:1057200080E008958091D30487FF13C08091E80042
:1057300082FF06C08091E8008B778093E80004C068
:105740008091D2048111F2CF08958091D2048823F0
:10575000D9F38091E80080FFF8CF8091E8008E7740
:10576000ECCF2091E4003091E50095E6A90120916D
:10577000EC00822F817020FF06C08091E80080FF3E
:1057800006C080E008952091E80022FD1AC08091B3
:10579000D204882389F0853089F08091EB0085FD63
:1057A0000FC02091E4003091E50042175307F9F251
:1057B0009150E1F684E0089582E0089583E0089531
:1057C00081E008950E94512C0E94592CE0EEF0E0F7
:1057D000808181608083E8EDF0E080818F77808335
:1057E00019BCA7EDB0E08C918E7F8C9380818F7E69
:1057F00080831092D10408950F931F93CF93DF936A
:105800000E94512C0E94592CC8EDD0E088818F77DE
:10581000888388818068888388818F7D888319BC8C
:105820001092D2041092CE041092D0041092CF04A1
:1058300000EE10E0F80180818B7F80838881816099
:10584000888342E060E080E00E945E2BE1EEF0E0C1
:1058500080818E7F8083E2EEF0E0808181608083B2
:10586000808188608083F80180818E7F8083888139
:1058700080618883DF91CF911F910F910895E8EDAA
:10588000F0E080818F7E8083E7EDF0E080818160B1
:10589000808384E082BF81E08093D1040E94FC2B4E
:1058A0000895E8EDF0E080818E7F80831092E20021
:1058B00008951092DA001092E10008951F920F925D
:1058C0000FB60F9211242F933F934F935F936F93D3
:1058D0007F938F939F93AF93BF93EF93FF938091A9
:1058E000E10082FF0BC08091E20082FF07C080913F
:1058F000E1008B7F8093E1000E94BD2E8091DA0051
:1059000080FF19C08091D80080FF15C08091DA0017
:105910008E7F8093DA008091D90080FF96C080E16D
:1059200089BD82E189BD09B400FEFDCF81E080938D
:10593000D2040E941B288091E10080FF19C0809151
:10594000E20080FF15C08091E2008E7F8093E2002C
:105950008091E20080618093E2008091D8008062B3
:105960008093D80019BC85E08093D2040E942F2830
:105970008091E10084FF2BC08091E20084FF27C06A
:1059800080E189BD82E189BD89B5982F917080FF42
:10599000FBCF8091D8008F7D8093D8008091E1006B
:1059A0008F7E8093E1008091E2008F7E8093E20001
:1059B0008091E20081608093E2008091CE04882390
:1059C00009F449C084E08093D2040E943828809171
:1059D000E10083FF29C08091E20083FF25C0809110
:1059E000E100877F8093E10082E08093D2041092EF
:1059F000CE048091E1008E7F8093E1008091E200EF
:105A00008E7F8093E2008091E20080618093E200CB
:105A100042E060E080E00E945E2B8091F0008860B0
:105A20008093F0000E942C28FF91EF91BF91AF91DD
:105A30009F918F917F916F915F914F913F912F91A6
:105A40000F900FBE0F901F90189519BC1092D204A2
:105A50000E94292870CF8091E30087FD93E0909306
:105A6000D204B3CF1F920F920FB60F9211242F932F
:105A70003F934F935F936F937F938F939F93AF93D6
:105A8000BF93CF93DF93EF93FF93D091E900DF7043
:105A90008091EC00C82FC17080FDC0E81092E90031
:105AA0008091F000877F8093F00078940E94762D9B
:105AB0001092E9008091F00088608093F000CD2B77
:105AC000CF70C093E900FF91EF91DF91CF91BF912B
:105AD000AF919F918F917F916F915F914F913F9186
