:100000000C9427020C9444020C9444020C94440275
:100010000C9444020C9444020C9444020C94440248
:100020000C9444020C9444020C945C270C943028E9
:100030000C948F210C9444020C9444020C944402BE
:100040000C9444020C9444020C9444020C94440218
:100050000C9444020C9416220C9444020C94440216
:100060000C9444020C9444020C9444020C944402F8
:100070000C9444020C9444020C9444020C944402E8
:100080000C9444020C9444020C9444020C944402D8
:100090000C9444020C9444020C9444020C944402C8
:1000A0000C9444020C9444020C9444022C002C0046
:1000B0002C0028002C002C002C0001000100010065
:1000C0000100010001000100000101010101010125
:1000D00001010202020202020202020303030303FD
:1000E00003030304040404040404050505050506CC
:1000F000060606060707070707080808080909098A
:10010000090A0A0A0B0B0B0C0C0C0D0D0D0E0E0E32
:100110000F0F0F10101111111212131314141515C3
:1001200016161717181819191A1A1B1B1C1D1D1E35
:100130001E1F202021222223242425262627282989
:10014000292A2B2C2D2D2E2F3031323233343536B7
:100150003738393A3B3C3D3E3F40414243444546B7
:100160004748494A4C4D4E4F505153545556585993
:100170005A5B5D5E5F616264656668696B6C6D6F3A
:100180007072737577787A7B7D7E808283858788AD
:100190008A8C8E8F91939596989A9C9EA0A2A3A5E7
:1001A000A7A9ABADAFB1B3B5B7BABCBEC0C2C4C6E8
:1001B000C9CBCDCFD1D4D6D8DBDDDFE2E4E7E9EBA4
:1001C000EEF0F3F5F8FAFDFF00AE00AF00DA0281C1
:1001D000FFD9F1DB20A4A62EAF00A0C000A1C8006B
:1001E000AED580A81FD300408D1420000000000071
:1001F000000000002A2B2800000000000000000082
:100200000000000000000029000000002C1E342027
:10021000212224342627252E362D3738271E1F204D
:100220002122232425263333362E37381F04050692
:100230000708090A0B0C0D0E0F10111213141516D6
:100240001718191A1B1C1D2F3130232D35040506D4
:100250000708090A0B0C0D0E0F10111213141516B6
:100260001718191A1B1C1D2F3130354C00000000C7
:10027000000000000000000000000000000000007E
:10028000000000000000000000000000000000006E
:100290007E0F00D4FFFFFFC7000000781803630043
:1002A000720069006D0073006F006E002000700026
:1002B0006100640000000C03740069006D006100BF
:1002C0006C0000000403090409025B00030100A0A4
:1002D000FA090400000103010100092111010001D4
:1002E0002240000705810308000109040100020300
:1002F00000000009211101000122220007058203EC
:100300002000010705030320000109040200010386
:1003100000000009211101000122B6000705840335
:100320002000011201000200000008EDFE626001E1
:1003300000010200010660FF0961A10109621500C8
:1003400026FF009520750881020963150026FF002D
:10035000952075089102C005010902A101850209D5
:1003600001A1000509190129081500250195087545
:100370000181020501093009311581257F9502753A
:1003800008810609381581257F95017508810605C4
:100390000C0A38021581257F950175088106C0C0B9
:1003A00005010980A101850319012AB7001501265D
:1003B000B700950175108100C0050C0901A10185E8
:1003C0000419012AA002150126A0029501751081C9
:1003D00000C005010906A1018506050719E029E706
:1003E000150025019508750181020507190029EFFF
:1003F0001500250195F075018102050819012905EF
:10040000950575019102950175039101C0050109DA
:1004100006A101050719E029E715002501950875D2
:100420000181029501750881010507190029FF1551
:100430000026FF00950675088100050819012905A9
:10044000950575019102950175039101C000112474
:100450001FBECFEFDAE0DEBFCDBF11E0A0E0B1E01C
:10046000E8E9F5E502C005900D92A63AB107D9F783
:1004700024E0A6EAB1E001C01D92A53DB207E1F774
:100480000E94D1100C94A12A0C94000081FF03C09B
:10049000249A2C9808952498FCCF82E0089581E056
:1004A000089581E008950E945102089508950E94E0
:1004B00056020895A5E0B0E0E0E6F2E00C941B2AB5
:1004C00049835A833091AD0189819A81311119C0D4
:1004D000662399F0222389F00E944708182F682F7D
:1004E00089819A810E942C0869817A81812F0E94DA
:1004F000941D2596E3E00C94372A0E943908182FA2
:10050000F3CF0E94470869817A81F1CFFC01262F41
:10051000408151816281738184810E945A020895D1
:1005200081E00895CF93DF93EC0160E00E948602A2
:10053000BE010E945702DF91CF910895E1E0F0E003
:10054000DF0102C0AA0FBB1F6A95E2F7BD01DF0100
:1005500002C0AA0FBB1F4A95E2F76A2B01C0EE0F3B
:100560002A95EAF7962F9823961302C08E2B0895AA
:10057000E0958E230895242F462F682F8091B10196
:100580000E949E020E948C0708950E94D70F089532
:100590000E94DB0F089508950E941E070E94CB025F
:1005A0002FEF84E39CE0215080409040E1F700C0B1
:1005B000000008950E94CC020E943A2208950E94F1
:1005C000CC020E944B2208950F931F93CF93DF9389
:1005D0008C0161E00E948602EC01B8010E9445177F
:1005E000811106C080E0DF91CF911F910F91089596
:1005F000B801CE010E9453028823A1F3B801CE01B5
:100600000E94DA1E882371F3B801CE010E949C1A61
:10061000882341F3B801CE010E944C1E882311F3B8
:10062000B801CE010E943B168823E1F2F8018281D5
:10063000882361F0CA35FDE5DF0701F158F4C115E3
:10064000ECE5DE0791F0CE3DDC4591F0C8010E945B
:100650004F02C9CFCC358DE5D80769F090F0C73A85
:10066000DD45A1F70E94DF02BDCF0E94DA02BACFBA
:100670000E94000DF7CF0E943A0CE8CF0E94440C74
:10068000E5CF0E94480CE2CF0E9471210E946203D4
:100690000E94521A08950E9466030E9476210895CE
:1006A0000E944602089581E008950E945303089530
:1006B0000895CF93C82F0E9450038C2F0E9455039A
:1006C000CF91089580E00E94590308950E9422204E
:1006D0000E9459030895CF930E942220C82F809131
:1006E000A8018C1779F0C093A8010E94FB216093A8
:1006F000A9017093AA018093AB019093AC018C2F58
:100700000E945903CF910895ABE0B0E0EAE8F3E02E
:100710000C941C2A4F83588769877A878B876111CD
:100720000E94850B1E821D8285E0FE013796DE0148
:10073000119601900D928A95E1F78C819D81892B0C
:1007400061F449815A816B817C818D819E810E94F7
:10075000AE0A2B96E2E00C94382A89819A8189238B
:100760008F3F79F3CE0101960E9490028111E9CF6B
:10077000F0CFFC01808191810E9474080895CF938D
:10078000C82F8823C9F08238C9F40E94222081FD35
:1007900013C089E30E943D0B0E94A60B2FEF87EE4A
:1007A00093E0215080409040E1F700C0000089E3D1
:1007B0000E94450B0E94A60BCF9108958338A1F4A7
:1007C0000E94222080FDF8CF83E50E943D0B0E940D
:1007D000A60B2FEF81EE94E0215080409040E1F78E
:1007E00000C0000083E5E4CF8438A1F40E942220F9
:1007F00082FDE2CF87E40E943D0B0E94A60B2FEF03
:1008000081EE94E0215080409040E1F700C000006C
:1008100087E4CECF8CEF8C0F813A90F46C2F8091CF
:100820000001909101010E949720882329F08C2FCC
:100830000E94450B0E94A60B8C2F0E943D0BBACF45
:1008400080E28C0F883048F4C77081E001C0880FC7
:10085000CA95EAF70E94680BADCFEBE5EC0FE330E9
:1008600040F4F0E0EF5AFE4F808190E00E94572064
:10087000A3CFE8E5EC0FE73150F4F0E0EE0FFF1FF7
:10088000ED5DFE4F808191810E946D2095CFC03F2C
:1008900008F492CF8C2F0E9455110E9428128CCF01
:1008A000882309F455C0823879F40E94222081FF00
:1008B0004FC089E30E943D0B0E94A60B89E30E9472
:1008C000450B0E94A60B0895833859F40E942220FC
:1008D00080FF3EC083E50E943D0B0E94A60B83E58E
:1008E000EECF843859F40E94222082FF31C087E481
:1008F0000E943D0B0E94A60B87E4E1CF9CEF980F6E
:10090000913AE8F290E2980F983050F4877091E0B5
:1009100001C0990F8A95EAF7892F0E946E0BD1CFFB
:100920009BE5980F933028F490E080E00E945720D8
:10093000089598E5980F973128F490E080E00E94A0
:100940006D200895803F20F00E94AF110E94281270
:1009500008951F93CF93DF93182FEB010E94BF03DD
:10096000209739F4812F0E945004DF91CF911F917D
:1009700008958FE99FE00197F1F700C000002197EB
:10098000EFCF70E060E0893311F460E570E00E9421
:10099000A9040895882321F00E94680B0E94A60BE9
:1009A0000895882321F00E946E0B0E94A60B0895E3
:1009B000B0E0A0E0EEEDF4E00C94152A6C01D62F27
:1009C000C72FFC011281F580F2949FE0F9220E946A
:1009D0005E0BE82E8823B9F0E12E1123A1F08C2FB5
:1009E000807F803421F080E28D0F8830D0F08091BC
:1009F000A70282FF16C082E00E94090C0E945E0BD3
:100A000091E0E82EE926BC2EB2948FE0B822FBE0FC
:100A1000FB1508F468C0EB2DF0E0ED55F54D0C9496
:100A2000FF29E12CF0CF0C2F0F70C07F11F0029541
:100A3000007F112399F0002359F080E28D0F883058
:100A400010F0D11107C0802F0E94680B0E94A60BE6
:100A50008D2F41C0802F0E94780BF8CF8D2F0E94E0
:100A60005004002309F43FC080E28D0F883010F05D
:100A7000D11104C0802F0E946E0B03C0802F0E94F2
:100A80007E0B0E94A60B2FC00C2F0F70C07FC032B0
:100A900011F00295007FDD2381F0D13009F463C0AD
:100AA000112309F46DC0FF2009F463C0F6018581AC
:100AB00080FFCECF8F7085835CC08091A70282FDBE
:100AC00033C0112359F0002329F0802F0E94680BB6
:100AD0000E94A60B80E00E94BF0305C080E00E9438
:100AE00050040111C7CFEB2DE850FF0B349720F4D1
:100AF0000E9422200E945903EE2089F00E945A0B86
:100B000080FD0DC0F60112820E94540B0E94A007C6
:100B1000C6010E94DE060E94540B0E94AC07CDB7AE
:100B2000DEB7E9E00C94312A112389F0F11006C0F8
:100B30000E94880B802B0E94CA04D5CF21E0F212BC
:100B4000F7CF0E94880B802B0E948F0BCCCFF11027
:100B500006C00E949C0B802F0E94D104C4CF31E0BC
:100B6000F31609F2F6CF112331F085E08F1508F462
:100B7000BACF802FE0CF94E09F1508F4B4CFEBCF2D
:100B8000FF2049F3D93349F4FFEF27EE33E0F1506A
:100B900020403040E1F700C000008D2F0E9450043B
:100BA000A2CF8C2F86958695837069F0813009F0ED
:100BB0009ACF8D2F9C2F9370111102C090E080E08E
:100BC0000E946D2090CF8D2F9C2F9370111102C029
:100BD00090E080E00E94572086CF8D2F112329F0CE
:100BE0000E9455110E9428127ECF0E94AF11FACFA9
:100BF0008C2F837079F5111176CF4D2F4295469544
:100C00004770440F440F8D2F8F70042E01C0880F42
:100C10000A94EAF72D2F2071D4FF07C02FE030E0AF
:100C200001C0220F4A95EAF72095C695C695C37074
:100C3000822BC23049F058F4C13019F00E947A0773
:100C400052CF0E9474074FCF0E9480074CCF0E9462
:100C5000710749CF8695112311F08C2F817088235D
:100C600009F441CF4D2F429546954770440F440FEC
:100C70008D2F8F70042E01C0880F0A94EAF72D2F54
:100C80002071D4FF07C02FE030E001C0220F4A9549
:100C9000EAF72095C695C695C370822BC23049F0FD
:100CA00058F4C13019F00E94CB071DCF0E94C50730
:100CB0001ACF0E94D10717CF0E948C0714CFCF7094
:100CC000112329F08C2F0E94A0078D2F34CF8D2F58
:100CD0000E94D1048C2F0E94AC0705CFD23F51F166
:100CE00060F4D03FB9F0D13F81F0112309F449C03D
:100CF000F110AECE8C2F8F7121C0D33F11F1D43FB4
:100D0000A1F78091A70282FD26C08C2F8F7111233D
:100D100011F314C0112349F084E08F1508F4E3CED9
:100D20008C2F8F710E94B907DECE95E09F1508F4D5
:100D3000DACEF6CF8C2F8F711111CDCF0E94A00784
:100D4000D2CE112329F08C2F8F710E949707CBCE22
:100D50000E949307C8CE112349F0CF718C2F0E94B7
:100D6000A00763E08C2F0E94EB0BBDCE81E00E94B8
:100D7000090CE1E0EF1508F0B6CE82E00E94090C04
:100D8000B2CEF110FFCE8C2F8F71A5CF0F931F9392
:100D9000CF93DF93EC01688179818A810E947F087B
:100DA0008C010E94D7070E947007B801CE010E94F3
:100DB000D804DF91CF911F910F910895CF93DF93C6
:100DC000EC018B819C81892B29F088819981892371
:100DD0008F3F51F4DF91CF910895CE010E94C60656
:100DE000CE010E949202F6CFCE010E94E402811150
:100DF000F4CF0E945E0B882369F38A81882351F324
:100E00008091A70282FFE6CF82E00E94090CE2CF28
:100E100090E080E00E94572090E080E00E946D20EA
:100E20000E94850B0E94A60B0E9444120E94281269
:100E300008950E944D0B0E94080708950E94750BAB
:100E40000E941907089592959F70963091F058F47A
:100E5000925F9F70923058F4803F19F030F4883ED2
:100E600030F481E008959A5FF4CF843FD1F380E0BD
:100E70000895883EB0F3813FD1F7F3CFFC01838121
:100E80009481892B29F08081918189238F3F11F4EE
:100E900080E00895808191810E9474080E94230758
:100EA0000895A5E0B0E0E7E5F7E00C941C2A25964C
:100EB000E2E00C94382AA6E0B0E0E1E6F7E00C941A
:100EC0001C2A2696E2E00C94382A08950E946507B1
:100ED00008950E9466078093B2010E940807089552
:100EE00008950E94690708959091B201892B0E948C
:100EF000690708959091B20189230E9469070895B6
:100F00009091B20189270E94690708950E946507A0
:100F100008950E94860708950E9489078093B10171
:100F20000E940807089580E00E948C07089591E0D0
:100F300001C0990F8A95EAF7892F0E948C070895BE
:100F400021E030E001C0220F8A95EAF78091B101DB
:100F5000822B0E948C07089521E030E001C0220F0F
:100F60008A95EAF720958091B10182230E948C072F
:100F7000089521E030E001C0220F8A95EAF78091C0
:100F8000B10182270E948C0708959091B101892BAD
:100F90000E948C0708959091B10189230E948C07CB
:100FA00008959091B10189270E948C0708950895B2
:100FB000262F277091E001C0990F2A95EAF723E0C8
:100FC000769567952A95E1F7FB01EE0FFF1FE60F77
:100FD000F71FE40FF51F50E040E0682F70E08191AB
:100FE000DF0111979B01042E02C0369527950A94C4
:100FF000E2F7217021952827292328272C934F5F7A
:101000005F4F4330510559F70895A82FA77023E08B
:10101000969587952A95E1F7FC01EE0FFF1FE80FE3
:10102000F91FE60FF71F50E040E080E0219130E02B
:101030000A2E02C0369527950A94E2F721703327CD
:10104000042E01C0220F0A94EAF7822B4F5F5F4FF4
:101050004330510559F70895262F911109C0873063
:1010600038F4682F70E04EEA51E0822F0E94D807D2
:10107000089591110AC0873030F46EEA71E090E073
:101080000E940508982F892F089590E0FCCFCF92F9
:10109000DF92FF920F931F93CF93DF936C01009128
:1010A000B1018091B201082BC7E0D0E010E0FC2E26
:1010B000C8010C2E02C0959587950A94E2F780FD31
:1010C0000CC02197A0F7F12C8F2DDF91CF911F91AC
:1010D0000F91FF90DF90CF900895B6018C2F0E9462
:1010E000B20E019771F3F0CFCF93DF93EC010E9422
:1010F0004708BE010E94B20EDF91CF9108951F9361
:10110000CF93DF93EB019091AD01992339F0CB019F
:101110000E947408DF91CF911F910895882369F090
:10112000CB010E944708182F682FCE010E942C087F
:10113000BE01812F0E94B20EEDCFCB010E94390873
:10114000182FF6CF1F93CF93DF93C091B30116E012
:101150008091B4018C1304C0DF91CF911F91089549
:10116000D0E01C9FF0011D9FF00D1124EB54FE4FA9
:101170004081518162817381848195810E945B07E6
:101180002196C770E5CF4091E5015091E60160914D
:10119000E7017091E8018091E9019091EA010E94D4
:1011A0005B0708951F93CF93DF938091EA01807FBF
:1011B00009F049C08091E701882309F444C0809177
:1011C000B301C091B4016091E5017091E601A09175
:1011D000E801B091E901D62FD72316E0C81799F19D
:1011E00090E0109711F0DF3F19F401968770F6CF69
:1011F000189F9001199F300D1124F901EB54FE4FF7
:1012000041814713F2CF40814613EFCF4281411114
:10121000ECCF438154814A1B5B0B483C510528F7B6
:101220008091EA018F7080618093EA01F901E654B0
:10123000FE4F80818F708061808385EE91E00E94F7
:10124000DE060E94A208DF91CF911F910895A1E1CF
:10125000B0E0EDE2F9E00C94142A8C0185E0F8018D
:10126000DE011D9601900D928A95E1F7F801E2806A
:1012700085EEC82E81E0D82E6091E8017091E901D9
:101280006115710509F44EC19091E5012091E601C7
:10129000892F82238F3F09F445C140815181A3806A
:1012A000B480F090E701F501E61BF70BFF2009F48D
:1012B000EAC08091EA01382F307FE83CF10508F060
:1012C000A3C031116DC0FE2C251316C0941314C099
:1012D000E11012C08F7080618093EA010E94C30800
:1012E000C6010E94DE068091EA01F80185838F2DF8
:1012F0006196EAE00C94302AA114B10429F0842FFD
:1013000085238F3F09F027C180E0F82FF170DF2E91
:1013100080FF3CC08091B3012091B40136E082137C
:1013200015C04D875E878D859E850E947408292F84
:1013300022952F702230F0F0243018F59F70F1F0D4
:10134000F8019581907FD1F4D12C1EC090E0389F98
:10135000F001399FF00D1124EB54FE4F61816513AC
:1013600006C06081641303C06281E6120FC001965B
:101370008770D5CF9F7011F0882331F3805E88305D
:1013800018F3C8010E94DE06FD2CB1CFEE2009F44F
:10139000AECF8091EA0181608093EA01F12CA7CF62
:1013A000251306C0941304C0F801EE2009F487C089
:1013B000C8010E943E07882319F1EE2009F18091AF
:1013C000EA01803270F02091E5013091E601388722
:1013D0002F831986BB86AA868C87CE0107960E942A
:1013E000DE0686E0F801A5EEB1E001900D928A9547
:1013F000E1F70E94D2080E94C308FF24F39477CF3C
:10140000C8010E94DE06F9CF311113C07A2DB98AC6
:10141000A88A6E2D89890E94510785EE91E00E946D
:10142000DE0686E0F60111928A95E9F70E94C3086C
:10143000B5CF25130FC094130DC0E1100BC0F801F8
:101440008583C8010E94DE0686E0F60111928A9526
:10145000E9F74DCFC8010E943E07882389F2EE20AC
:1014600079F28091EA01803208F4BBCF2091E50146
:101470003091E6013A8329831B82BD82AC828E8340
:10148000CE010196ACCFE83CF10508F03EC0FE2C41
:10149000EE2009F4B5CF25132AC0941328C08091FB
:1014A000EA0180FD1BC0982F907FC1F0F801858371
:1014B000903F31F0982F907F905F8F70892B8583BC
:1014C000C8010E94DE0686E0F801A5EEB1E00190B9
:1014D0000D928A95E1F70E94C30809CF86E0F801D2
:1014E000A5EEB1E001900D928A95E1F700CFC80119
:1014F0000E943E07811175CF8091EA01816080933F
:10150000EA01C8010E94DE06F2CE7A2DB98AA88AC5
:101510006E2D89890E94510786E0F60111928A9505
:10152000E9F7D9CFEE2009F46BCFC8010E943E073E
:10153000F82E882309F464CF86E0F801A5EEB1E027
:1015400001900D928A95E1F785EE91E00E94B90332
:101550000E94D208C0CF81E08E25D7CEACE0B0E0AB
:10156000E4EBFAE00C941B2A4F83588769877A874B
:101570008B879C87CE0107960E942709882369F0F4
:101580008A859B85892B39F04F815885842F852347
:101590008F3F09F06BC016E05FC086E0FE01379612
:1015A000DE01119601900D928A95E1F78A859B855F
:1015B000892B89F38F81988589238F3F61F320914F
:1015C000B40130E0C9010196877099274091B301B9
:1015D0004817190671F40E941E071092B401109268
:1015E000B30186E0E5EEF1E0DF011D928A95E9F7AF
:1015F000D2CF96E0929FD001939FB00D1124AB54AF
:10160000BE4FFE01319601900D929A95E1F78093BD
:10161000B4010E94A208BFCF819FC00111248B5446
:101620009E4F0E9427098823E9F0E091B3011E9F95
:10163000F0011124EB54FE4F40815181628173818E
:10164000848195810E945B078091B30190E00196AF
:10165000877099278093B3018091B3019091B40171
:101660008913DACF2C96E3E00C94372A69857A85C2
:101670008B859C850E945B078ECF682F809100012F
:10168000909101010E9417210895682F8091000117
:10169000909101010E94252108958091000190916F
:1016A00001010E943321089580910B028595859553
:1016B0008595089580910B028770089590910B0293
:1016C000977081E009F480E0089580912E020895DA
:1016D00090912E02892B80932E02089580959091EF
:1016E0002E02982390932E02089510922E020895B0
:1016F00090912D02892B80932D02089580959091D1
:101700002D02982390932D02089510922D02089592
:1017100080910C02089508950E948B0B089590917A
:10172000A70292FF08C090910C02981721F08093B5
:101730000C020E948C0B089580910C02882329F0E2
:1017400010920C0280E00E948C0B0895CF93DF93DF
:10175000E0910001F091010180912E028083E091DF
:101760000001F0910101808190912D02892B8083ED
:1017700090910C02992381F0E0910001F091010118
:101780008081892B808380910001909101010E94CA
:10179000832081110E949C0BC0910001D091010116
:1017A00040E250E06BEE71E0CE010E94432A892BAB
:1017B00059F080E2FE01ABEEB1E001900D928A9506
:1017C000E1F7CE010E942F20DF91CF910895089577
:1017D0000E94E70B08959091A70292FF11C098E034
:1017E000899F90011124622B60930B020E94A00735
:1017F00080910B028595859585950E94E80B08954B
:101800000E94A007089510920B0280E00E94E80B4E
:10181000089590910B028095892380930B02282FC5
:10182000277091F4282F082E000C330B9217130603
:1018300059F09091A70292FF07C0859585958595EF
:101840000E94AC070E94030C08959091A70292FB9E
:10185000222720F9281769F080FB92F99093A702BC
:101860008091A6029091A7020E94770C82E00E94CC
:10187000090C08958091A70282FB882780F991E0E6
:1018800089270E94250C089581E00E94250C089567
:1018900080E00E94250C08956FEF7FEF90E080E0DC
:1018A0000E948B2A089590E080E00E94672A883E7B
:1018B0009E4F19F40E94E016089580E0089582E09A
:1018C00090E00E94592A089583E090E00E94592AEE
:1018D0000895CF9384E090E00E94592AC82F82E2B5
:1018E00090E00E94592A982F8C2FCF910895CF9382
:1018F000C92F682F84E090E00E946D2A6C2F82E24D
:1019000090E00E946D2ACF910895AB01BC018FE059
:1019100090E00E947F2A0895AB01BC0183E190E032
:101920000E947F2A089560E070E0CB010E948C0C39
:10193000089560E070E0CB010E94850C0E94930C3A
:10194000089568EE7EEF90E080E00E948B2A60E0D0
:1019500082E090E00E946D2A60E083E090E00E94C7
:101960006D2A1092B20160E084E090E00E946D2A3E
:1019700064E082E290E00E946D2A60E085E090E001
:101980000E946D2A60E086E090E00E946D2A6FEF71
:1019900087E090E00E946D2A40E050E0BA0188E0C4
:1019A00090E00E947F2A60E08DE090E00E946D2A26
:1019B00040E050E0BA0188E190E00E947F2A60E0B8
:1019C00087E190E00E946D2A40E050E0BA018CE18E
:1019D00090E00E947F2A70E060E080E290E00E9448
:1019E0008B2A40E050E0BA0188E190E00E947F2A13
:1019F00080E00E94F9160E9428170E94990C089511
:101A00000E94A10C0895682F8EE090E00E946D2A3C
:101A100008950E94FB2160933602709337028093F1
:101A200038029093390260933202709333028093AC
:101A30003402909335020895089508950E941D0D73
:101A4000089508950E94210D08958CE99FE00E9459
:101A500018200E941C0D0E941E0D089581E008951B
:101A60000E942E0D0895089508950E94330D0E943E
:101A7000340D08950E94BB0F0E94580308950E94E0
:101A8000E6210E9438170E9454100E943A0D80E00F
:101A90000E94D7180E94FB150E94220D0895AAE00B
:101AA000B0E0E5E5FDE00C94152A0E946010D090AE
:101AB000310280E00E94DE0FC82ED8122BC00E9497
:101AC000EF218C0180912F029091300208171907A5
:101AD000A1F08FEF89838A831B820E94EF218160AE
:101AE000782F9D838C8349815A816B818D810E94DF
:101AF00084031093300200932F020E94721ADC10AC
:101B00000E9436190E9466120E946B032A96E9E031
:101B10000C94312A80913A0281FD0E94E40F0E94C8
:101B2000300DB82E80E00E94DE0F182F8091310218
:101B3000181721F1E12EE82600E0FF24F3948E2D02
:101B40008F21B1F0BB20A1F00E831F8291E0812F85
:101B50008F2109F490E098870E94EF218160782F0F
:101B60009A8789874E815F8168858A850E94840370
:101B70000F5FFF0C073019F7109331020E94090D17
:101B8000BCCFCF93DF930E94B70EEC01811521E506
:101B9000920708F042C0811530E5930708F09FC016
:101BA000883E910530F5803E910508F094C0883A52
:101BB000910588F4853A910508F086C08130910539
:101BC00009F489C0009709F486C0049708F083C01F
:101BD000D0E0C0E080C08F3B9105D0F7C85AD0E07C
:101BE000CC0FDD1FCC5ADE4F0990D881C02DD464B4
:101BF00072C0811540E2940750F4C11581E0D80706
:101C000008F069C0C03FD10518F3D06564C08115E4
:101C10009044F0F2DF70D06A5EC0811535E593071D
:101C200018F5811544E5940708F085C0C11583E5D2
:101C3000D80708F06CC0C11522E5D20708F462C0CD
:101C4000CE018370992721E030E002C0220F331FBC
:101C50008A95E2F7C695C69580E2C89FE0011124F7
:101C6000C22BD32BDC6837C0811539E59307A8F464
:101C7000811548E5940708F063C0C11586E5D807CB
:101C800008F0A6CF8C2F0E94590FC82FD0E0DC2F70
:101C9000CC27CC27DF71D0621EC081152AE59207C0
:101CA00008F453C090568115904208F091CF8D2FC3
:101CB0008F710E94590F90E0982F882788279F7175
:101CC0009C012C2BE901E7CFC55AD0E0CE57DE4F5F
:101CD000C881D0E0D064CE01DF91CF9108958370A8
:101CE000992721E030E002C0220F331F8A95E2F7E6
:101CF000C695C69540E2C49FE0011124C22BD32BA8
:101D0000DD68E9CFDC2FCC27C16FD06AE4CFCE01EC
:101D10008370992721E030E002C0220F331F8A959B
:101D2000E2F7C695C69540E2C49FE0011124C22B9C
:101D3000D32BDA68D0CFD82FCC27C46FD06ACBCFC3
:101D4000D82FCC27C06FD06AC6CF8F700E94590F92
:101D500034E0D695C7953A95E1F7CF709C2FEC010A
:101D6000D069B9CF0E94941D0E94C10D0895823898
:101D70009105B9F1B0F48133910509F47DC048F4BF
:101D80008932910509F46DC08A32910509F47BC04E
:101D900008958533910509F45FC08933910509F1F0
:101DA0000895833E9105D9F138F4803E910529F1DB
:101DB000823E910579F10895863E9105D9F1873EDD
:101DC000910509F43EC0843E910541F52091A7029A
:101DD00021FF24C08091A60284FD19C087EE90E007
:101DE00008952091A602237009F05AC02091A702FD
:101DF00023FF14C089E290E008952091A60220FDFF
:101E000038C03091A70230FF09C024FF43C090E0E2
:101E100080E008952091A60222FDF7CF0895209139
:101E2000A60222FD3AC03091A70230FD39C024FF3E
:101E3000F5CFEDCF2091A60223FFF0CF24FDE7CF11
:101E4000CDCF2091A60223FD2EC03091A70231FFF5
:101E5000EECF84EE90E008952091A60225FFDECF1C
:101E6000C9CF2091A60225FD21C02091A70223FF02
:101E7000D5CF89E390E0D2CF2091A60226FFCECF26
:101E80008AE290E008952091A60226FFC7CF81E361
:101E900090E0089583EE90E0089582EE90E008953A
:101EA00080EE90E0089586EE90E0089585E390E05E
:101EB00008959091A60292FF06C0282F287128301D
:101EC000F9F4877F846093FF06C0282F287128319A
:101ED000F1F4877E84612091A70220FF06C0382F8D
:101EE00038713830D9F4877F816021FF06C0282FF0
:101EF00028712831D1F4877E816194FD877E089511
:101F0000282F24712430F9F68B7F8860DCCF282FAE
:101F10002471243101F78B7E8861DDCF382F317138
:101F2000313019F78E7F8860E0CF282F2171213161
:101F300021F78E7E8861E1CF80E008950E944C0CED
:101F400008950E9460102FEF86E791E021508040B5
:101F50009040E1F700C000000E94601080E00E9405
:101F6000DE0F80FF04C00E949E0F0E943A22089557
:101F70000E94A10F08950E94530C811102C00E947B
:101F8000000D0E945F0C80933A020E94690C9093AE
:101F9000A7028093A6020E94B80F0E94640C0E94C0
:101FA00071078091B1010E948907089508950E94E8
:101FB000D60F089508950E94DA0F0895E82FF0E0F3
:101FC000E755FD4F80810895089580EA8A95F1F7DD
:101FD000089500C008950E94E50F0895F894E82F31
:101FE000E295EF70F0E031A1282F2F7081E090E0B2
:101FF00001C0880F2A95EAF7982F9095932391A313
:1020000092A1892B82A378940895CF93DF9386E3DE
:102010000E94EE0FC5E8D1E089918F3F11F00E9438
:10202000EE0F81E0CC38D807B9F7DF91CF91089552
:102030000F931F93CF93DF938C01C62FF894269AAA
:102040002E9878940E94E90FE5E8F1E081E0D0E075
:1020500091919F3F79F0A92FA295AF70B0E0909633
:102060002C9130E09F7002C0359527959A95E2F744
:10207000982F20FD90E0D92B880F91E0EC38F907DC
:1020800039F786E30E94EE0F61E0D11101C060E0F4
:102090008C2F0E94EB0FF801EC0FF11DD083DF9124
:1020A000CF911F910F9108950E9405101092A902DF
:1020B0001092A80281E00E9485100E94C502089536
:1020C000A1E0B0E0E6E6F0E10C941B2A198260E0A2
:1020D000CE0101960E9418109091A802898121E0FA
:1020E000981301C020E098138093A80241E069EAA8
:1020F00072E088EA92E00E948610182F0E94C802BF
:10210000812F2196E3E00C94372A0895CF92DF9235
:10211000EF92FF920F931F93CF936C017B01042FDB
:10212000222349F081E080933D020E94EF219093A9
:102130003C0280933B02C0913D02C1110AC0C0E045
:102140008C2FCF911F910F91FF90EF90DF90CF9048
:10215000089580913B0290913C020E9407220597CE
:1021600070F310E0A801B601C7010E94432A892B31
:1021700041F0A801B601C7010E94502A10923D0209
:10218000DFCFC0E0FBCF0E9436240E943F0D0E94AB
:10219000432408950E9448240E944F0D0E94622407
:1021A00008950E9488210E941C240E94250D0E94EF
:1021B000C3100E94CA100E94350DFBCF80914402CB
:1021C00080FF0DC06091070170E0660F771F6038D7
:1021D000710570F56115710569F1862F089581FF0C
:1021E00007C06091070184E0689FB0011124EFCF20
:1021F0006091070182FD0AC0809143028823A9F003
:102200002091060160910701821710F088E0ECCF61
:10221000869FC001112433E0880F991F3A95E1F79A
:10222000622F70E00E94EB29D2CF68E070E0D5CF3A
:102230008FE7089581E008958091440280FF0CC0EB
:102240006091030170E075956795759567956115C7
:10225000710549F1862F089581FF06C06091030141
:1022600070E075956795F3CF6091030182FD0BC017
:10227000909142029923A1F06091020180910301A3
:10228000961738F0682F70E06038710500F38FE71B
:102290000895899FC001112470E00E94EB29F4CFBA
:1022A00061E070E0D7CF81E00895803F31F40E9473
:1022B000DE108195809348020895813F19F40E94B1
:1022C000DE10F8CF823F31F40E94DE1081958093BA
:1022D00047020895833F19F40E94DE10F8CF893F2A
:1022E00029F40E941C118093490208958A3F21F429
:1022F0000E941C118195F7CF8B3F31F40E941C1175
:10230000819580934A0208958C3F19F40E941C1114
:10231000F8CF9CE0980F953070F4845F990B21E022
:1023200030E001C0220F8A95EAF780914602822BA5
:102330008093460208958D3F31F48091440281607C
:102340008093440208958E3F21F48091440282607C
:10235000F7CF8F3FB9F7809144028460F1CF40916D
:102360004702803F59F48091480287FF0DC01092C8
:10237000480241110BC01092430208C0813F81F412
:102380008091480218169CF3442381F08091490201
:1023900090914A02892B09F05AC010924202089586
:1023A000823F49F447FFF0CF1092470280914802E4
:1023B0008111ECCFE0CF833F19F41416ACF3E4CFD6
:1023C00090914902893F29F41916F4F610924902B6
:1023D000DBCF8A3F19F497FFD7CFF8CF90914A020D
:1023E0008B3F29F497FFD0CF10924A02CDCF8C3F7C
:1023F00019F41916CCF3C8CF9CE0980F953090F4DF
:10240000845F990B21E030E0B90102C0660F771FAD
:102410008A95E2F7CB0180959091460289238093BB
:102420004602B2CF8D3F31F4809144028E7F80937B
:102430004402AACF8E3F21F4809144028D7FF7CFD2
:102440008F3F09F0A1CF809144028B7FF0CF089598
:102450000E94EF219C019091470280914802982BA5
:1024600021F03093410220934002909149028091E3
:102470004A02982B21F030933F0220933E0285E4DC
:1024800092E00E944920089586E0E5E4F2E0DF0151
:102490001D928A95E9F7109243021092420210921F
:1024A00044020895FC01828181110EC08381811153
:1024B0000BC08481811108C091E08581811101C028
:1024C00090E0892F8170089581E0FCCFA6E0B0E014
:1024D000ECE6F2E10C941B2A86E0E5E4F2E0DE0192
:1024E000119601900D928A95E1F710924702109291
:1024F00048021092490210924A028B819C81892BDA
:1025000089F080914002909141020E940722AC0123
:10251000909143029923C9F180910801841715060F
:1025200008F440C08D819E81892B91F080913E02FC
:1025300090913F020E940722AC01909142029923A0
:1025400009F471C0809104018417150608F479C05C
:10255000BE016F5F7F4F85E492E00E9445218111AB
:1025600005C085E492E00E94521281110E94281257
:1025700086E0FE013196A5E4B2E001900D928A95C5
:10258000E1F72696E3E00C94372A209109018AE0CE
:10259000289F900111242417350720F69F5F909300
:1025A000430202C09F3FD1F71B81112359F00E94C3
:1025B000DE109FEF11160CF491E0899F802D1124FD
:1025C000809347021C81112359F00E94DE109FEF77
:1025D00011160CF491E0899F802D112480934802FC
:1025E00030914702332309F49DCF209148022223E2
:1025F00009F498CF45EB3403C0011124992359F015
:102600009093470245EB240390011124332339F0C2
:102610003093480287CF81E080934702F3CF81E077
:10262000809348027FCF209105018AE0289F900186
:1026300011242417350708F08BCF9F5F9093420237
:1026400002C09F3FD1F71D81112359F00E941C1138
:102650009FEF11160CF491E0899F802D1124809337
:1026600049021E81112359F00E941C119FEF11167F
:102670000CF491E0899F802D112480934A023091BF
:102680004902332309F464CF20914A02222309F43A
:102690005FCF45EB3403C0011124992359F0909387
:1026A000490245EB240390011124332339F0309380
:1026B0004A024ECF81E080934902F3CF81E08093BC
:1026C0004A0246CFEF92FF920F931F93CF93DF936F
:1026D000EB01E82FD1110EC0442321F0F0E0E853C4
:1026E000FF4FE4916E2F7E2F8E2FCDB7DEB7E6E041
:1026F0000C94342A0D2F10E0282F30E0442329F0C9
:1027000028533F4FF901249130E0F6E0CF9FC001FC
:102710001124EFEFF0E0BF010E94D729AB018C2F0D
:1027200090E0880F991FA5E5A49FB001A59F700DAB
:102730001124861B970B982F990F980FBF01601BD0
:10274000710B629FD001639FB00D729FB00D112479
:102750008B2F9D9FB0011124672F7727EF01C61B98
:10276000D70BBE01629FE001639FD00D729FD00D19
:1027700011247F01E91AF108E09EB001E19E700D7D
:10278000F09E700D1124672F7727E61BF70BE29F51
:102790008001E39F100DF29F100D1124E12F722F85
:1027A0004230510599F048F44115510569F0413026
:1027B000510581F0EB2F8D2F07C04430510569F092
:1027C00080F046305105B1F76E2F8FCFE22F7B2F6F
:1027D000812FFACFE22F7D2FF7CFEB2F822F712F92
:1027E000F3CF7B2F822FED2FEFCF41E00E946213BA
:1027F00008950E94F5130895CF93DF93762FE90192
:10280000682F842F0E94F913798368838A83DF916C
:10281000CF9108958091AA02982F9E7F39F48091DC
:10282000AA02817082608093AA0208958430B8F76A
:10283000089588E090E00E94612A0895CF92DF9287
:10284000EF92FF926B017C010E940A14B701A6016E
:1028500088E090E00E947F2AFF90EF90DF90CF9079
:1028600008956091AA027091AB028091AC029091A0
:10287000AD020E941E140895EAEAF2E083E080832C
:1028800011828FEF828383831482608171818281C0
:1028900093810E941E1408958091AA0280FF02C0B5
:1028A0008695089580E008959091AE02933018F4D3
:1028B0009F5F9093AE02882351F06091AA027091BD
:1028C000AB028091AC029091AD020E941E1408955B
:1028D00081E00E94541408959091AE02992319F05A
:1028E00091509093AE02882351F06091AA027091AA
:1028F000AB028091AC029091AD020E941E1408952B
:1029000081E00E946C1408958091AE020895809336
:10291000AE02662351F06091AA027091AB028091E1
:10292000AC029091AD020E941E14089560E00E94D6
:10293000871408958091AB0208958091AC020895A8
:102940008091AD02089570E00E94B41608956091E0
:102950000B018091AA0280FF0BC080910A0123E045
:10296000829FC001112481559D4F0E94A314089598
:1029700080910C0190910D0123E0829FF0011124C0
:10298000E155FD4F891748F71182108212828F5F3F
:102990003396F8CFEAEAF2E080818E7F808360810F
:1029A0007181828193810E941E142FEF80E792E053
:1029B000215080409040E1F700C000000E94A71421
:1029C0000895EAEAF2E080818E7F80832FEF80E72E
:1029D00092E0215080409040E1F700C000000E944A
:1029E000A71408959091AA0290FF0EC090910C0137
:1029F00020910D0133E0939FF0011124E155FD4F2B
:102A0000921718F00E94A71408958183608342836F
:102A10009F5F3396F5CFA3E0B0E0E1E1F5E10C94E0
:102A2000182AF82E062F142FE22E8091AA0280FF7A
:102A300028C0E82FE695F0E0E457FE4F9081909390
:102A40004C028E7F823059F49E012F5F3F4F8F2DB5
:102A50000E94FC134B8169818A810E94F214F092DA
:102A6000AB020093AC021093AD02EE2051F06091E6
:102A7000AA027091AB028091AC029091AD020E94CB
:102A80001E142396E6E00C94342AEAEAF2E09181DF
:102A9000282F4381628188E0890F0E940B150895D9
:102AA00081E00E9445150895EAEAF2E09181282F1D
:102AB0004381628188EF890F0E940B15089581E0A0
:102AC0000E9454150895EAEAF2E0628128E0620F5C
:102AD00008F46FEF282F438181810E940B15089520
:102AE00081E00E9463150895EAEAF2E0628128E03D
:102AF000621B08F460E0282F438181810E940B153E
:102B0000089581E00E9474150895EAEAF2E0438195
:102B100028E0420F08F44FEF282F628181810E9444
:102B20000B15089581E00E9485150895EAEAF2E008
:102B3000438128E0421B08F440E0282F6281818114
:102B40000E940B15089581E00E949615089520E0DB
:102B50000E940B1508958091AA0280FF18C0817011
:102B600082608093AA02662351F06091AA0270915C
:102B7000AB028091AC029091AD020E941E14409174
:102B8000AD026091AC028091AB020E94A71508953E
:102B9000682F81E00E94AB15089581E00E94C8155E
:102BA0000895682F9091AA0296958FEF890F09F4E6
:102BB00081E00E94AB15089581E00E94D11508952F
:102BC00061E00E94AB150895EAEAF2E0808181603D
:102BD000808386950E94E01508958091AA0280FF67
:102BE00003C00E94CA1408950E94E415089560E08D
:102BF0000E94AB15089580914B0281112CC00E9458
:102C0000530C811104C00E94000D0E943C140E94CC
:102C100019146093AA027093AB028093AC02909354
:102C2000AD026E7F61F40E943C140E9419146093FF
:102C3000AA027093AB028093AC029093AD020E9403
:102C40000A148091AA0280FF03C086950E94F7159E
:102C500081E080934B020895EAEAF2E0808181608E
:102C6000808386950E94F7150895FA01811101C0AD
:102C7000FB01099508951F93CF93DF93EC01FB01AE
:102C8000128111114FC00E94650B8272C93CFCE594
:102C9000DF0709F460C030F5C53CECE5DE0709F458
:102CA00055C060F4C33C9CE5D90709F443C008F063
:102CB00048C0C23CDC45D9F111E034C041E855E1DF
:102CC00060E775E1C73C9CE5D907C1F140E555E1F6
:102CD0006FE575E1C83CDC4588F140E755E161E806
:102CE00075E12CC0CD3CFCE5DF07D1F1A0F440E854
:102CF00054E168E674E1CB3CECE5DE07F9F042E92B
:102D000055E163EA75E1CC3CDC45C0F048E654E1AE
:102D100060E874E113C0C63D8CE5D80718F0CD35E6
:102D2000DD4551F6812FDF91CF911F9108950E94CB
:102D3000ED15F8CF4CED55E16DEC75E10E943516BF
:102D4000F1CF4DEC55E16CED75E1F8CF4FE555E174
:102D500060E575E1F3CF43EA55E162E975E1EECF55
:102D600081E00E94E015DECF259A45B14F7D55B137
:102D70005062EFB7F8949B01220F331F260F371FC5
:102D8000280F391F2817390741F4EFBF8FE594E06A
:102D90000197F1F700C000000895DC016D91CD01AD
:102DA00078E055B9000000C067FF45B9660F000024
:102DB00000C000C000C045B900C07A9591F7E2CFCD
:102DC00083E290E00E94592A823289F484E290E002
:102DD0000E94592A813159F485E290E00E94592AD3
:102DE00091E0873009F090E0892F8170089580E0AC
:102DF000FCCFCF93C82F6FEF811162E283E290E0A6
:102E00000E946D2A6FEFC11161E184E290E00E949F
:102E10006D2A6FEFC11167E085E290E00E946D2A94
:102E2000CF910895089586E290E00E94592A682F74
:102E300070E090E080E008950895CF93C62F0E943F
:102E40001C176C2F86E290E00E946D2ACF910895A6
:102E500080E00E94F91660E070E0CB010E941D172F
:102E60000E941A1D0E94F11D81E00E94F91608952A
:102E70000E9412170E9413170E941C170E94E0164E
:102E8000811102C00E9428170895CF93FB01C281CF
:102E9000CC2309F19C0122513F452031310520F519
:102EA00082510E94011EC0E08C2FCF91089581E0D5
:102EB0000E94A00743E062E081E00E94BB02F3CFE2
:102EC00081E00E94AC0743E062E081E00E94BB0227
:102ED000EBCF82E0F6CF8031FFE59F0789F38131A8
:102EE0009F45B9F3C1E0E0CF8031EFE59E07F9F2ED
:102EF00081319F45C9F682E0DBCF2FEFFC012083B3
:102F00000895CF93DF93EC0188818138E9F028F4AC
:102F1000803871F0DF91CF9108958238C9F08338FD
:102F2000C9F70E949A1489830E949D148A83F2CF64
:102F30000E94A0142FEF829FC00111246FEF70E058
:102F40000E94D7296983E6CF0E944C148983E2CF7F
:102F50000E948414FBCFCF93DF93EC0188818138EA
:102F600021F128F4803869F0DF91CF9108958238FB
:102F700041F18338C9F70E94A014482F6A818981E2
:102F800011C089812FEF829FC00111246FEF70E083
:102F90000E94D729D62F0E949D14C82F0E949A14F0
:102FA0004D2F6C2F0E94A715DFCF89810E94F71546
:102FB0008981811103C00E94E114D6CF0E942C1692
:102FC000D3CF89810E949614CFCF1F93CF93DF93E5
:102FD000EC01162FDC01ED91CD01E150E33108F059
:102FE000A0C0F0E0E155F54D0C94FF2919828AE06C
:102FF0008A830FC089818230A1F08330A9F08130AB
:10300000B9F40E94FB210E94052A6A837B838C838A
:103010009D83612FCE010E94EF22DF91CF911F91FE
:1030200008950E941317EFCF80E00E94DE0FE0CFDB
:10303000612FCE010E947D17ECCF89818230C1F7CC
:103040006A817B818C819D810E94052A0E941D17C7
:10305000E0CF4B816A8189810E94CF1C9827892704
:1030600098279D838C83D5CF2C813D8132272327C0
:1030700032274B816A8189810E94F91CCACF0E9444
:103080001A1DC7CF0E94AB17C4CF0E948117C1CFB2
:103090000E943114BECF0E94A21D8983BACF0E9424
:1030A000A41D9827892798279A838983B2CF6B819B
:1030B00070E089819A81AE014C5F5F4F9827892724
:1030C00098270E94A71DA5CF6B8170E089819A8106
:1030D000AE014C5F5F4F9827892798270E94CC1D2F
:1030E00098CF0E94F11D95CF0E94CD1CD6CF6B8149
:1030F00070E089819A81AE014C5F5F4F98278927E4
:1031000098270E944E1D85CF6B8170E089819A813E
:10311000AE014C5F5F4F9827892798270E94711D49
:1031200078CF8FEF888375CFB0E0A0E0EAE9F8E1CF
:103130000C94162A6C017B0164E670E088E70E941B
:10314000321FEC0197FD12C010E000E0F601E00F25
:10315000F11F849164E670E00E949E1FEC01892BB0
:1031600029F40F5F1F4F0E151F0581F70E941420D1
:10317000CE01CDB7DEB7E8E00C94322A08950E9464
:10318000BE180895EEEBF2E080E092E0DF019C01D2
:103190001D9221503040E1F7F093C304E093C20444
:1031A0008FEF9FEF909374028093730208950E94B3
:1031B000BE180E94BF1880936F0280FD0FC080E888
:1031C00080936E020E942C1F6DE070E08FED91E005
:1031D0000E949418892B21F080E0089580E2F0CFBE
:1031E00080916F0263E070E081FD26C08CED91E07C
:1031F0000E949418892B81F76DE070E08CEC91E0CF
:103200000E949418892B41F70E94FB21605A754156
:103210008F4F9F4F6093BE047093BF048093C00490
:103220009093C1040E94C21881E08093720280933F
:10323000710210927002089589ED91E0D9CF20912A
:103240006E0236E0839FC0011124629F800D911DA4
:103250001124811522E0920714F090E080E082545E
:103260009D4F9093C3048093C2040895809172028D
:10327000811103C08091710208950E94FB21605A60
:1032800075418F4F9F4F6093BE047093BF0480932E
:10329000C0049093C104809171028111EBCF62E070
:1032A00070E08AEC91E00E949418892B19F781E074
:1032B00080937102DFCF2F923F925F926F927F9245
:1032C0008F929F92AF92BF92CF92DF92EF92FF9236
:1032D0000F931F93CF93DF9380917202882369F03D
:1032E00020917302309174022115310531F08091E3
:1032F000700261E070E0882399F0DF91CF911F9117
:103300000F91FF90EF90DF90CF90BF90AF909F9084
:103310008F907F906F905F903F902F9008958F5F78
:10332000082F10E01B01082E02C0220C331C0A9447
:10333000E2F7A90142215321452B89F390916F02B5
:1033400090FD44C08295880F80768093110198018A
:10335000369527953695279520931401815E8093A5
:1033600012011092150124E630E047E050E06FE0D2
:1033700071E088E70E94CC1F892B09F0BECFA8011D
:1033800025E0440F551F2A95E1F780916F0280FDDB
:103390002BC042545D4F04E610E020E230E060E4D0
:1033A00088E70E94ED1F892B09F0A7CF0E943619EC
:1033B000E101C095D0958091730290917402C82369
:1033C000D923D0937402C093730297CF880F880FCC
:1033D000880F8093110110921401895F809312016C
:1033E00083E080931501BFCFEEE4F2E080E2DF01DD
:1033F0001D928A95E9F7A2E9B1E00EE811E086E9AD
:10340000C82E81E0D82E97E0592E772473948D91A1
:10341000E80129918E01240F352F311D22543D4F93
:10342000E82FF0E0E25BFD4F90E080E0652C681A49
:10343000872C082E01C0880C0A94EAF77901A12C88
:10344000E701B9907E01B820662D6A196770962E43
:10345000062E000C770BDB2D01C0DD0F9A94EAF7E6
:103460007195619571096770772701C0B6946A9567
:10347000EAF7BD2A6081962E9B289082A39468E08B
:10348000A612DECF019631968830910579F6CA16DC
:10349000DB0609F0BCCF04E610E020E230E04EE4A9
:1034A00052E07DCF8091710290917202911103C020
:1034B00091E089270895882369F062E070E088EC44
:1034C00091E00E949418892B19F08091710208955F
:1034D0001092710280917102EBCF81E008950E94F9
:1034E0006D1A08950F931F9380917202882309F13A
:1034F00060E080E00E941F190E946F1A0E945B1911
:10350000809171028823A9F00E94FB210091BE04E2
:103510001091BF042091C0043091C104601B710B55
:10352000820B930B6F3F7F4F8F4F9F4710F40E948A
:10353000521A1F910F910895CF93DF93EC01FB0175
:103540008281882309F464C1C330FDE5DF07E0F51B
:10355000CA3F9CE5D90730F49E0122503C452431F6
:103560003105D8F50E94690C9093A7028093A602BA
:10357000C231ECE5DE0709F41FC108F06EC0C930A6
:103580008CE5D80709F4F2C008F03FC0C530ECE57F
:10359000DE0709F4DBC058F5C3308CE5D80709F421
:1035A000CDC008F0CFC08091A6028160C230DC455A
:1035B00009F4AEC08091A6029091A7020E94770CF8
:1035C0000E941E0780E009C0C53AEDE5DE0751F212
:1035D00038F4C1369DE5D90729F2DF91CF910895DE
:1035E0009E012D5A3D4523303105B8F7BBCF809160
:1035F000A6028062C730FCE5DF0709F489C008F441
:10360000B1C08091A602806483C0CD309CE5D9070B
:1036100009F4BAC070F48091A6028E7FCB30FCE52D
:10362000DF0709F475C008F4A7C08091A6028D7F5A
:103630006FC0CF309CE5D90709F4B6C008F4A8C024
:10364000C031FCE5DF0709F4B3C0C131DC4509F046
:10365000B1CF8091A6028F7B5BC0CF3F9CE5D9079D
:1036600009F4B4C098F5CA3FFCE5DF0709F472C05D
:10367000B8F4C4319CE5D90709F4B6C008F4A2C077
:10368000C531DC4509F096CF8091A60282FB9927CF
:1036900090F921E0922790FB82F990FB83F938C0E2
:1036A000CC3F8CE5D80709F477C008F457C0CD3F6C
:1036B000ECE5DE0709F474C08091A7028360CE3F79
:1036C000DC4509F077CF8093A70274CFC1368DE532
:1036D000D80709F496C068F4C130EDE5DE0709F4B7
:1036E0008CC008F477C0C230DD4509F063CF80E0BC
:1036F00085C0CD3A9DE5D907E9F068F49091A6021E
:10370000892F8E7F90FF8160C53ADD4509F052CF49
:103710008093A6024FCFCE3A8DE5D80789F1CF3AF4
:10372000DD4509F047CF9091A702892F877F93FF4E
:103730008860C9CF8091A7028860C5CF8091A6021A
:103740008260E6CF8091A6028460E2CF8091A602DB
:103750008860DECF8091A7028160B5CF8091A702FB
:103760008260B1CF8091A6028061D2CF0E941E07F5
:103770008091A6028068CCCF8091A6028C60C8CFD1
:103780008091A702877F9FCF8091A6028B7FC0CFB9
:103790008091A602877FBCCF8091A7028E7F93CFB6
:1037A0008091A7028D7F8FCF8091A6028F7EB0CFB0
:1037B0008091A6028F7DACCF0E941E078091A60249
:1037C0008F77A6CF8091A602837FA2CF8091A70298
:1037D0008C7F79CF8091A702982F909591708E7FE2
:1037E000892B90FB81F96FCF0E941E079091A60252
:1037F000892F97FB87F980588BCF81E00E94030DBA
:10380000D9CE9091A602892F8F7E94FF806180CFC0
:1038100081E0E3CEB0E0A0E0E0E1FCE10C94172A07
:10382000E82FF0E0E451FE4FD490282F26952695FE
:10383000269530E0F901E457FD4F0491877010E0C0
:10384000082E02C0159507950A94E2F7017011271A
:10385000F901E458FD4FE490F12C082E02C0F594D4
:10386000E7940A94E2F791E0E922FF24F901E45990
:10387000FD4FC491D0E002C0D595C7958A95E2F777
:10388000C170DD270115110519F081EE0E94BF03FB
:10389000E114F10419F086EE0E94BF038D2D0E9401
:1038A000C104E114F10419F086EE0E9450040115E0
:1038B000110519F081EE0E945004CD2B19F08CE215
:1038C0000E94C104CDB7DEB7E7E00C94332AEF9233
:1038D000FF920F931F93CF93DF93EC01162F0AE013
:1038E0008881882309F454C0813009F04EC0898151
:1038F000813099F47E0122E0E20EF11C8A810E945F
:10390000C104E7012196812F815050F3EFE9FFE0D8
:103910003197F1F700C00000F7CF823041F47E010B
:1039200082E0E80EF11C8A810E94BF03EACF833057
:1039300041F47E01E2E0EE0EF11C8A810E94500407
:10394000E0CF843011F02196DDCF2A81229690E0DD
:1039500080E0AE014F5F5F4F2053330B2A303105BB
:1039600048F0019778F2EFE9FFE03197F1F700C0F6
:103970000000F7CF089FB001099F700D1124C90105
:10398000860F971F2981EA01E4CF0E940A1CBACF53
:10399000CDB7DEB7E6E00C94342A84E008950F93A7
:1039A0001F93CF93DF93843008F561111FC0473018
:1039B000E8F4042F10E0000F111F2EE0829F000D8D
:1039C000111D1124C80187960E94592AC82FD0E0E2
:1039D000DC2FCC27C80188960E94592A9E01282BEB
:1039E000C901DF91CF911F910F91089590E080E080
:1039F000F8CF1F93CF93DF93122F8430B8F4611167
:103A000015C0473098F4C42FD0E0CC0FDD1F9EE0E6
:103A1000899FC00DD11D1124632FCE0187960E946E
:103A20006D2A612FCE0188960E946D2ADF91CF9179
:103A30001F910895CF92DF92EF92FF921F93CF9341
:103A4000DF938CEAC82E80E0D82ED0E0C0E076016B
:103A500010E00E944D0221E030E08C171D0621F09D
:103A60001CF0F70125913491412F60E08C2F0E94CA
:103A7000F91C82E0E80EF11C1F5F173051F7219608
:103A80008EE0C80ED11CC430D10509F7DF91CF916B
:103A90001F91FF90EF90DF90CF900895EF92FF92EB
:103AA0000F931F93CF93DF93EC018A017C01E60E05
:103AB000F71ECE018796CE15DF0529F4CDB7DEB708
:103AC000E6E00C94342AC833D10540F40E94592A08
:103AD000F80180830F5F1F4F2196EBCFF801108212
:103AE000F9CFB0E0A0E0E7E7FDE10C94162A7C01F5
:103AF0006A018C01060F171FEC01CE018796C017D3
:103B0000D10729F4CDB7DEB7E8E00C94322AC833E8
:103B1000D10540F4FE01EE19FF09EC0DFD1D608199
:103B20000E946D2A2196E9CF462F843040F471110E
:103B300006C0673020F460E00E94CF1C089590E03A
:103B400080E0089580E1089581EA93E00895EF927E
:103B5000FF920F931F93CF93DF93EC018A017C01B7
:103B6000E60EF71ECE01815A9F4FCE15DF0529F4D0
:103B7000CDB7DEB7E6E00C94342AC13A23E0D20791
:103B800040F40E94592AF80180830F5F1F4F21964D
:103B9000E9CFF8011082F9CFB0E0A0E0E2EDFDE15D
:103BA0000C94162A7C016A018C01060F171FEC0188
:103BB000CE01815A9F4FC017D10729F4CDB7DEB788
:103BC000E8E00C94322AC13A23E0D20740F4FE0127
:103BD000EE19FF09EC0DFD1D60810E946D2A2196F2
:103BE000E7CFCF93DF93CFE5D0E060E0CE010E9436
:103BF0006D2A2196C11584E0D807B9F7DF91CF91DE
:103C00000895A4E0B0E0E7E0FEE10C94172AF82E56
:103C10008FE08F1548F18FEF93E00E94592A8111B0
:103C200023C00FE510E0F11023C019821A821B8215
:103C30001C82DD24D39478018FEFE81AF80AC801BA
:103C40000E94592A89831A82882371F09FEF980F66
:103C50009330D8F48A83D9820E5F1F4FC7010E9428
:103C6000592A8B83811112C02496E7E00C94332AE1
:103C7000011584E01807C1F3C8010E94592A811177
:103C800001C0FA940F5F1F4FCECF870160E0CE01D5
:103C900001960E94671CCFCFCF93DF93EB01863153
:103CA0009C4511F50E94650B9A81992399F08A7AB7
:103CB00091E009F490E090937502811109C089E2C6
:103CC0000E943D0B0E94A60B80E0DF91CF910895EA
:103CD00085E3F6CF80917502811104C089E20E94CC
:103CE000450BF0CF85E3FBCF81E0EFCF0F931F9320
:103CF000CF93DF93C42FD22FFC0182818823C9F098
:103D0000409378020E94EF2190937702809376028D
:103D100080E28C0F883040F4C77081E001C0880FCA
:103D2000CA95EAF70E94CA04DF91CF911F910F91C3
:103D3000089510917802141332C080917602909108
:103D400077020E940722883C910548F5C0E2CD0F1A
:103D50001D17B9F080E2810F883040F4177081E0C0
:103D600001C0880F1A95EAF70E94D104C83048F4C0
:103D700081E09D2F977001C0880F9A95EAF70E9405
:103D8000CA04802F0E94C104C83070F6D77081E049
:103D900001C0880FDA95EAF70E94D104C5CF80E20E
:103DA0008C0F883008F6C77081E001C0880FCA9573
:103DB000EAF7F2CF0F939C01CB01233F4CE5340788
:103DC00059F1A8F4283DFCE53F0701F1293D4CE5F8
:103DD0003407D1F1273D3C4591F406E221EE41EE56
:103DE00067ED7CE50E94761E80E00F910895253FE7
:103DF000FCE53F07E9F0B0F0263F3C45F9F0FC0157
:103E00008281882339F110927802EFCF07E225EE04
:103E100045EE68ED7CE5E6CF06E221EE40EE63EF8D
:103E20007CE5E0CF07E225EE44EE64EF7CE5DACFF7
:103E300006E221EE42EE65EF7CE5D4CF07E225EE07
:103E400046EE66EF7CE5CECF08E221E045EE69ED77
:103E50007CE5C8CF81E0C9CF1092B9008CE0809397
:103E6000B8000895B0E0A0E0E8E3FFE10C94132A65
:103E7000B82EEB010E94EF216C01EE24E394F12CAB
:103E8000C431D10560F025E0E22EF12CCF3FDC07F4
:103E900031F0CE0164E170E00E94D7297B0184EA11
:103EA000A82E94E8992E1092BC00A092BC000E940B
:103EB000EF218C018091BC0087FF0DC08091B9007B
:103EC000887F8830F9F08091B900887F8031D1F007
:103ED0000FEF1FEF08C0C8010E940722E816F9067D
:103EE00048F70EEF1FEFCF3FDC07E9F2C6010E9453
:103EF0000722C817D907B8F6C801CDB7DEB7EBE07F
:103F00000C942F2AB092BB009092BC000E94EF212B
:103F10008C018091BC0087FF0AC08091B900887F26
:103F2000883111F08034A1F610E000E0E5CFC8013F
:103F30000E940722E816F90660F7D3CF0F931F936C
:103F4000CF93DF93EB018093BB0084E88093BC00A8
:103F50000E94EF218C018091BC0087FF11C020914D
:103F6000B900287F81E090E0283211F490E080E0F1
:103F7000919581959109DF91CF911F910F910895AE
:103F8000CF3FDC0741F3C8010E940722C817D907B9
:103F900010F78EEF9FEFEFCFB0E0A0E0E2EDFFE192
:103FA0000C94162A6B018A017901B9010E94321F13
:103FB000E6010C0D1D1DC017D10711F097FF08C0B9
:103FC00024E92093BC00CDB7DEB7E8E00C94322A98
:103FD000B70189910E949E1FEECFB0E0A0E0E3EF11
:103FE000FFE10C94162AC62F6A017901B8010E94DC
:103FF000321F97FD0CC0B8018C2F0E949E1FE60156
:10400000EC0CFD1CCE15DF0511F097FF08C024E96C
:104010002093BC00CDB7DEB7E8E00C94322AB8019B
:1040200089910E949E1FEECF84E98093BC00089581
:104030009093A7018093A601089590937E028093A8
:104040007D020895E0917D02F0917E02309729F083
:104050000190F081E02D0995089580E00895E091A8
:104060007D02F0917E02309799F020912201222367
:1040700059F02091A60227FF07C0DC012C91119670
:104080002C93119726E02C930280F381E02D099563
:104090000895E0917D02F0917E02309739F022E0A0
:1040A000DC012C930480F581E02D09950895209181
:1040B0007B0230917C022817390771F090937C02C3
:1040C00080937B02E0917D02F0917E02309721F097
:1040D0000680F781E02D09950895209179023091AD
:1040E0007A022817390771F090937A028093790247
:1040F000E0917D02F0917E02309721F00084F185FD
:10410000E02D09950895FC013296809122018823C3
:1041100021F08091A6029EE187FF96E080E0915019
:1041200008F4089521912223D1F38F5FF8CF6623FD
:1041300001F1209122012223F1F02091A60227FF14
:104140001AC0462F4695469546954E3190F46770B5
:1041500021E030E002C0220F331F6A95E2F7840F9E
:10416000911DFC01828190E02823392381E0232BDB
:1041700069F480E00895FC01329608962191261793
:1041800021F0E817F907D1F7F4CF81E008959C01F9
:10419000FC0132969FEF80E04191461751F09F3F1E
:1041A00019F4411101C0982F8F5F8630A9F79F3F06
:1041B00009F40895290F311D97FD3A95F90162839D
:1041C0000895FC01329608962191261303C0DF0161
:1041D00011971C92E817F907B9F70895E62FE695AD
:1041E000E695E695EE3168F4E80FF92FF11D67705A
:1041F00021E030E001C0220F6A95EAF78281822B2C
:1042000082830895E62FE695E695E695EE3170F403
:10421000E80FF92FF11D677021E030E001C0220F97
:104220006A95EAF7209582812823228308952091B8
:104230002201222339F02091A60227FF03C00E9409
:10424000EE2008950E94C720089520912201222384
:1042500039F02091A60227FF03C00E940221089591
:104260000E94E1200895FC0132968091220188236A
:1042700051F08091A60287FF06C08EE1DF011D92FA
:104280008A95E9F7089586E0F9CF46E050E00E946C
:10429000432A21E0892B09F420E0822F0895089514
:1042A0000E944F210895811106C081E080937F0212
:1042B0000E945021089582E0F9CF83E080937F022D
:1042C0000E94502108950E945321089581E0809317
:1042D0007F020E94502108950E946621089508954A
:1042E00008950E9470210895089508950E946F21F5
:1042F00008950E9474210E9460100E94752180E040
:104300000E94DE0F91E0811101C090E0892F089595
:1043100085B7806885BF85B7806885BF08951F927F
:104320001FB61F9211248F939F93AF93BF938091D9
:104330008002811113C08091C4049091C504A091A2
:10434000C604B091C7044196A11DB11D8093C40459
:104350009093C504A093C604B093C704BF91AF91D6
:104360009F918F911F901FBE1F9018958091CC0434
:10437000843031F10E9444031092800288E190E081
:1043800020E40FB6F894A895809360000FBE2093A8
:10439000600083B7817F846083BF83B7816083BF00
:1043A0007894889583B78E7F83BF0FB6F894A895CD
:1043B00080916000886180936000109260000FBE61
:1043C00008950E941E070E944B03089582E084BD59
:1043D00093E095BD9AEF97BD80936E0008952FB737
:1043E000F8948091C4049091C504A091C604B09142
:1043F000C7042FBF08952FB7F8946091C40470913B
:10440000C5048091C6049091C7042FBF08959C01F4
:104410004FB7F8948091C4049091C504A091C6044C
:10442000B091C7044FBF821B930B089578941F92DD
:104430001FB61F9211248F939F93AF93BF938091C8
:10444000C4049091C504A091C604B091C70401961C
:10445000A11DB11D8093C4049093C504A093C6040C
:10446000B093C704BF91AF919F918F911F901FBED2
:104470001F90189587E797E79093010880930008AD
:1044800088E19AE00FB6F894A895809360000FBE7B
:1044900090936000FFCF88E19AE00FB6F894A8955A
:1044A000809360000FBE90936000FFCF8091A402C4
:1044B000089508959C0184E08093E9009FEF809126
:1044C000E800915085FD06C085ED8A95F1F7000062
:1044D0009111F5CF8091E80085FF0CC050E040E0DD
:1044E00066E070E0C9010E9401258091E8008E77A6
:1044F0008093E8000895CF93DF93EC01809122012F
:104500008823B1F18091A60287FF32C060E284E087
:104510008093E9008FEF9091E800815095FD06C0EF
:1045200095ED9A95F1F700008111F5CF8091E800A3
:1045300085FF1BC08091220170E050E040E08111B6
:1045400004C050E040E068E070E0CE010E94012528
:104550008091E8008E778093E80080E2FE01A4E875
:10456000B2E001900D928A95E1F7DF91CF91089525
:1045700068E081E0CDCF80938102709383026093E5
:1045800082028091CC048430F9F48093E9008FEFAB
:104590009091E800815095FD06C095ED9A95F1F750
:1045A00000008111F5CF8091E80085FF0DC050E03B
:1045B00040E063E070E081E892E00E940125809194
:1045C000E8008E778093E8000895BC0184E00E94A3
:1045D000BB220895BC0183E00E94BB220895CF93C3
:1045E000FC01603221F58091CC04843001F5C0914A
:1045F000E900CF702091EC00922F917020FD90E89F
:10460000C92B82E08093E9008091E80080FF0CC014
:1046100050E040E060E270E0CF010E94012580910F
:10462000E8008E778093E800CF70C093E900CF91C7
:1046300008958091CB04811109C00E94E0260E9458
:104640003D278091E20084608093E20008951092FB
:10465000CB0408950E94662108956091C80481E00A
:10466000611101C080E00E945D2108959091CC0409
:1046700081E0943009F080E06091C8040E946321D9
:10468000089542E061EC81E00E945C2642E261EC28
:1046900084E00E945C2642E261EC82E00E945C269B
:1046A00042E260EC83E00E945C269091CC0481E0C1
:1046B000943009F080E06091C8040E94532108956D
:1046C0008091CE04833009F463C030F48130E1F18D
:1046D000823009F4A0C008958A3009F48CC08B3070
:1046E00009F471C0893009F052C08091CD04813243
:1046F00009F04DC08091D1049091D204009719F037
:10470000029709F044C08091E800877F8093E80019
:104710008091E80082FF37C09091F3008091F20011
:10472000029731F48091F100813011F0863021F44C
:104730008091F1008093A4028091E8008B778093B0
:10474000E8000E94902623C08091CD04813AF9F4BC
:104750008091E800877F8093E8008091D104909158
:10476000D204892B61F460E284E892E070E00E9458
:104770009F258091E8008B778093E800089560E0A2
:1047800090E080E0F3CF8091CC048111C1CF0895F7
:104790008091CD04813AD9F78091D1049091D204CF
:1047A000892BA9F78091E800877F8093E8008091AA
:1047B000E80080FFFCCF809122018093F10080917E
:1047C000E8008E77BCCF8091CD04813201F78091D3
:1047D000D1049091D204892BD1F68091E800877F93
:1047E0008093E8000E9490268091CF04809322015C
:1047F0000E941E0708958091CD04813241F6809178
:10480000E800877F8093E8000E9490268091D00482
:104810008093A50208958091CD04813A09F0B7CF25
:104820008091E800877F8093E8008091E80080FF16
:10483000FCCF8091A502C1CF84B7877F84BF0FB61C
:10484000F894A89580916000886180936000109230
:1048500060000FBE80E890E00FB6F894809361008E
:10486000909361000FBE0E946C2108950E94E02683
:104870000E943D27E2EEF0E080818460808378949E
:104880000E94BC29089586E191E00E941D200895B0
:104890008091CC04853031F48091CC04853019F0BE
:1048A0000E94E12108950E94B6218091CA048823C4
:1048B00099F30E947921882379F30E94EB240E94C6
:1048C0001E07EACFA0E2B0E0E8E6F4E20C941C2A6E
:1048D0008091CC04843009F583E08093E9008091D5
:1048E000E80082FF1AC08091E80090E085FF09C0CF
:1048F00050E040E060E270E0CE0101960E94502559
:1049000091E08091E8008B778093E800992329F06B
:1049100060E2CE0101960E94E517A096E2E00C94B9
:10492000382A0E9494240895292F332723303105F3
:1049300021F168F42130310509F443C022303105FA
:1049400009F444C090E080E030E020E026C021324D
:10495000310551F122323105A9F76330710590F725
:10496000FB01EE0FFF1FE756FE4F208131816A5693
:104970007E4FFB01808190E010C099278130910526
:1049800081F0009729F00297E9F6ECE9F2E002C025
:10499000E4ECF2E0849190E09F01FA0131832083FE
:1049A0000895E6EBF2E0F6CF6330710558F6660F36
:1049B000771FFB01E156FE4F2081318189E090E0B5
:1049C000ECCF82E190E023E233E0E7CF8BE590E0AB
:1049D00028EC32E0E2CF80E189BD82E189BD09B4F3
:1049E00000FEFDCF8091D8008F7D8093D80080910C
:1049F000E00082608093E0008091E00081FDFCCFC8
:104A00000895AF92BF92CF92DF92FF920F931F93C0
:104A1000CF93DF936C01EB018A010E94AF26F82E41
:104A2000811123C00115110539F0F80180819181B0
:104A3000C81BD90BC80ED91EB12CA12C2097A9F0E8
:104A40008091E80085FD22C08091E8008E778093F8
:104A5000E80001151105A1F0F80180819181A80EEF
:104A6000B91EB182A08285E0F82E8F2DDF91CF9103
:104A70001F910F91FF90DF90CF90BF90AF9008955E
:104A80000E94AF268823D1F2F82EEFCFF601819154
:104A90006F018093F1002197FFEFAF1ABF0ACECFCD
:104AA000AF92BF92CF92DF92FF920F931F93CF935B
:104AB000DF936C01EB018A010E94AF26F82E811171
:104AC00023C00115110539F0F80180819181C81BBF
:104AD000D90BC80ED91EB12CA12C2097A9F080911A
:104AE000E80085FD22C08091E8008B778093E80084
:104AF00001151105A1F0F80180819181A80EB91E60
:104B0000B182A08285E0F82E8F2DDF91CF911F9189
:104B10000F91FF90DF90CF90BF90AF9008950E94CB
:104B2000AF268823D1F2F82EEFCF8091F100F60165
:104B300081936F012197FFEFAF1ABF0ACECFFC011F
:104B40008091D3049091D40486179707A0F0611543
:104B5000710529F49091E8009E779093E80090E029
:104B60006115710551F4911108C08091E80082FF30
:104B700034C080E00895BC01F2CF8091CC0488233A
:104B8000C1F18530C1F18091E80083FD30C0809192
:104B9000E80082FDEACF8091E80080FFE1CF8091BC
:104BA000F3002091F200382F6115710519F02830BB
:104BB000310558F091E02830310509F090E020915E
:104BC000E8002E772093E800CBCF81918093F1000D
:104BD000615071092F5F3F4FE7CF8091CC0488234C
:104BE00041F0853041F08091E80083FFBECF81E045
:104BF000089582E0089583E00895FC018091D30434
:104C00009091D40486179707A0F06115710529F4D7
:104C10008091E8008E778093E80090E0611571053F
:104C200051F4911108C08091E80082FF35C080E006
:104C30000895BC01F2CF8091CC048823C9F185305E
:104C4000C9F18091E80083FD31C08091E80082FDC8
:104C5000EACF8091E80080FFE1CF8091F3002091BE
:104C6000F200382F6115710519F02830310558F020
:104C700091E02830310509F090E08091E8008E77CE
:104C80008093E800CBCF84918093F10031966150FE
:104C900071092F5F3F4FE6CF8091CC04882341F00C
:104CA000853041F08091E80083FFBDCF81E0089519
:104CB00082E0089583E00895982F973028F08F7050
:104CC0008093E90081E008959093E900242F762FE6
:104CD00050E0981731F07091EC002091ED00509168
:104CE000F00021FD02C09F5FE8CF3091EB003E7FD6
:104CF0003093EB003091ED003D7F3093ED0030912B
:104D0000EB0031603093EB007093EC002093ED00EA
:104D10005093F0002091EE0027FDE5CF80E008954C
:104D20008091CD0487FF13C08091E80082FF06C008
:104D30008091E8008B778093E80004C08091CC04D8
:104D40008111F2CF08958091CC048823D9F380910A
:104D5000E80080FFF8CF8091E8008E77ECCF2091BB
:104D6000E4003091E50095E6A9012091EC00822F46
:104D7000817020FF06C08091E80080FF06C080E0BF
:104D800008952091E80022FD1AC08091CC04882368
:104D900089F0853089F08091EB0085FD0FC020916E
:104DA000E4003091E50042175307F9F29150E1F623
:104DB00084E0089582E0089583E0089581E00895F5
:104DC0000E944F270E945727E0EEF0E0808181602B
:104DD0008083E8EDF0E080818F77808319BCA7EDB8
:104DE000B0E08C918E7F8C9380818F7E8083109237
:104DF000CB0408950F931F93CF93DF930E944F2707
:104E00000E945727C8EDD0E088818F7788838881FA
:104E10008068888388818F7D888319BC1092CC0438
:104E20001092C8041092CA041092C90400EE10E057
:104E3000F80180818B7F808388818160888342E054
:104E400060E080E00E945C26E1EEF0E080818E7FF1
:104E50008083E2EEF0E080818160808380818860E1
:104E60008083F80180818E7F808388818061888340
:104E7000DF91CF911F910F910895E8EDF0E08081CF
:104E80008F7E8083E7EDF0E080818160808384E025
:104E900082BF81E08093CB040E94FA260895E8ED5A
:104EA000F0E080818E7F80831092E200089510925E
:104EB000DA001092E10008951F920F920FB60F9240
:104EC00011242F933F934F935F936F937F938F930F
:104ED0009F93AF93BF93EF93FF938091E10082FF85
:104EE0000BC08091E20082FF07C08091E1008B7FC0
:104EF0008093E1000E94BB298091DA0080FF19C0F5
:104F00008091D80080FF15C08091DA008E7F809359
:104F1000DA008091D90080FF96C080E189BD82E1EE
:104F200089BD09B400FEFDCF81E08093CC040E94CE
:104F300019238091E10080FF19C08091E20080FF79
:104F400015C08091E2008E7F8093E2008091E200A4
:104F500080618093E2008091D80080628093D800C5
:104F600019BC85E08093CC040E942D238091E10040
:104F700084FF2BC08091E20084FF27C080E189BDBF
:104F800082E189BD89B5982F917080FFFBCF809118
:104F9000D8008F7D8093D8008091E1008F7E809330
:104FA000E1008091E2008F7E8093E2008091E20038
:104FB00081608093E2008091C804882309F449C08D
:104FC00084E08093CC040E9436238091E10083FF2B
:104FD00029C08091E20083FF25C08091E100877F96
:104FE0008093E10082E08093CC041092C804809109
:104FF000E1008E7F8093E1008091E2008E7F8093BC
:10500000E2008091E20080618093E20042E060E093
:1050100080E00E945C268091F00088608093F00020
:105020000E942A23FF91EF91BF91AF919F918F91A1
:105030007F916F915F914F913F912F910F900FBE94
:105040000F901F90189519BC1092CC040E94272332
:1050500070CF8091E30087FD93E09093CC04B3CFB1
:105060001F920F920FB60F9211242F933F934F93DD
:105070005F936F937F938F939F93AF93BF93CF93E0
:10508000DF93EF93FF93D091E900DF708091EC0004
:10509000C82FC17080FDC0E81092E9008091F00037
:1050A000877F8093F00078940E9474281092E90022
:1050B0008091F00088608093F000CD2BCF70C0937A
:1050C000E900FF91EF91DF91CF91BF91AF919F9157
:1050D0008F917F916F915F914F913F912F910F90A1
:1050E0000FBE0F901F901895AAE2B0E0EAE7F8E231
:1050F0000C941B2A8DEC94E02091F100FC0121938B
:10510000CF01F4E0853D9F07B9F70E9460238091AD
:10511000E80083FF1EC18091CD049091CE049A30A7
:1051200008F017C1E92FF0E0EE53F54D0C94FF297C
:10513000803899F0823809F00CC18091D1048F70C9
:10514000873008F006C18093E9008091EB0085FB71
:10515000882780F91092E90006C08091C9049091D7
:10516000CA04911182609091E800977F9093E800C3
:105170008093F1001092F1008091E8008E77E5C0F5
:10518000882309F4D3C0823009F0E3C08091CF04B2
:105190008111D6C08091D1048F702FEF280F263057
:1051A00008F0D7C08093E9002091EB0020FFC8C031
:1051B000933031F48091EB0080628093EB00C0C0AB
:1051C0009091EB0090619093EB0021E030E001C002
:1051D000220F8A95EAF72093EA001092EA00809164
:1051E000EB008860EACF8111B4C01091CF041F7723
:1051F0008091E3008078812B8093E3008091E80028
:10520000877F8093E8000E9490268091E80080FFCD
:10521000FCCF8091E30080688093E30082E011116D
:1052200083E08093CC0495C08058823008F091C010
:105230008091CF049091D0048C3D23E09207A1F59A
:1052400083E08A838AE289834FB7F894DE0113965C
:1052500020E03EE051E2E32FF0E050935700E4916C
:1052600020FF03C0E295EF703F5FEF708E2F90E05C
:10527000EA30C0F0C7968D939D932F5F243159F784
:105280004FBF8091E800877F8093E8006AE270E07A
:10529000CE0101960E949F258091E8008B77809334
:1052A000E80057C0C096E7CF6091D1047091D20456
:1052B000AE014F5F5F4F0E949124BC01892B09F41E
:1052C00048C09091E800977F9093E80089819A8187
:1052D0000E94FD25E1CF8038E1F58091E800877FCD
:1052E0008093E8008091C8048093F10045CF81113C
:1052F00030C09091CF04923060F58091E800877FB4
:105300008093E8009093C8040E9490268091C8047E
:10531000882311F084E005C08091E30087FDFACF77
:1053200081E08093CC040E94412313C08091CF047C
:10533000813079F481E0933009F080E08093CA04F1
:105340001092E9008091E800877F8093E8000E9436
:1053500090268091E80083FF0AC08091E800877F53
:105360008093E8008091EB0080628093EB00AA9626
:10537000E3E00C94372A0895CF938091CC048823DE
:10538000A1F0C091E900CF709091EC00892F81705D
:1053900090FD80E8C82B1092E9008091E80083FD21
:1053A0000E947428CF70C093E900CF910895AA1B82
:1053B000BB1B51E107C0AA1FBB1FA617B70710F000
:1053C000A61BB70B881F991F5A95A9F78095909532
:1053D000BC01CD01089597FB072E16F4009407D069
:1053E00077FD09D00E94D72907FC05D03EF490959F
:1053F00081959F4F0895709561957F4F0895EE0FA9
:10540000FF1F0590F491E02D0994692796276927DD
:1054100078278727782708952F923F924F925F929F
:105420006F927F928F929F92AF92BF92CF92DF92B4
:10543000EF92FF920F931F93CF93DF93CDB7DEB719
:10544000CA1BDB0B0FB6F894DEBF0FBECDBF0994AD
:105450002A88398848885F846E847D848C849B8404
:10546000AA84B984C884DF80EE80FD800C811B8112
:10547000AA81B981CE0FD11D0FB6F894DEBF0FBE41
:10548000CDBFED010895FB01DC0104C08D910190B9
:10549000801921F441505040C8F7881B990B08959A
:1054A000FB01DC0102C001900D9241505040D8F741
:1054B0000895F999FECF92BD81BDF89A992780B5DC
:1054C0000895A6E1B0E044E050E00C94932AA8E1EE
:1054D000B0E042E050E00C94932A262FF999FECFD9
:1054E00092BD81BDF89A019700B4021639F01FBA37
:1054F00020BD0FB6F894FA9AF99A0FBE0895039654
:10550000272F0E946E2A0E946D2A252F0E946E2A44
:10551000242F0C946E2A0196272F0E946E2A0C9439
:105520006D2ADC01CB01FC01F999FECF06C0F2BD6A
:10553000E1BDF89A319600B40D9241505040B8F751
:105540000895F894FFCF1305130544054405D105CC
:10555000ED0573057305F8055F066E066E06F61712
:10556000FA171D18291834183F18421845184818FA
:10557000911891184B184F1857186418711874180F
:10558000771884189828C028A929C028A929F328A1
:085590001429A9296B297729D0
:105598000D02280850011E0A140100050005050027
:1055A80021007F22000356227B225A22EA22E5228A
:1055B800592201E200E900EA00B500B600B700CDC3
:1055C800008301CC008A0192019401210223022464
:1055D800022502260227022A02B300B4006F0070D7
:1055E80000818283E200E900EA00B500B600B70056
:1055F800CD008301CC008A0192019401210223028B
:1056080024022502260227022A02B300B4006F00F2
:105618007000818283F4F5F6F73133320001000817
:105628001018181008004022B60D0435035703DA85
:0656380002F3021303005F
:00000001FF
